:1008000000380020110C00006D0C0000F78801007A
:1008100000000000000000000000000000000000D8
:100820000000000000000000000000006D0C00004F
:1008300000000000000000006D0C00005188010065
:10084000FD25010007260100112601001B260100DD
:10085000252601006D0C00006D0C00006D0C0000E1
:100860000D8301006D0C0000E73A0100DD3A010044
:100870006D0C00006D0C00006D0C00006D0C000094
:100880006D0C00006D0C00006D0C00006D0C000084
:100890006D0C00006D0C00006D0C00006D0C000074
:1008A0009B600100A93C0100BB6201006D0C0000CF
:1008B0006D0C00006D0C00006D0C00006D0C000054
:100C0000FFFFFFFFFFFFFFFFFFFFFFFFFE7FFFFF75
:100C100072B610490F4A0F4B0E4C0E4D0D4E0D4F34
:100C2000B846B946BA46BB46BC460B490B4A521AAF
:100C3000013A05DD0020042308601944043AFBDA78
:100C400007488546074880470748804762B617F03F
:100C500057FEFEE7000000000000002000380020E2
:100C600000380020690E0100A90E0100FEE7C04611
:100C700002B4714649084900095C49008E4402BC2F
:100C80007047C046002243088B4274D303098B424D
:100C90005FD3030A8B4244D3030B8B4228D3030C4C
:100CA0008B420DD3FF22090212BA030C8B4202D3EE
:100CB0001212090265D0030B8B4219D300E0090A16
:100CC000C30B8B4201D3CB03C01A5241830B8B421F
:100CD00001D38B03C01A5241430B8B4201D34B0308
:100CE000C01A5241030B8B4201D30B03C01A52416D
:100CF000C30A8B4201D3CB02C01A5241830A8B42F2
:100D000001D38B02C01A5241430A8B4201D34B02DA
:100D1000C01A5241030A8B4201D30B02C01A52413E
:100D2000CDD2C3098B4201D3CB01C01A52418309F2
:100D30008B4201D38B01C01A524143098B4201D32C
:100D40004B01C01A524103098B4201D30B01C01A57
:100D50005241C3088B4201D3CB00C01A52418308D1
:100D60008B4201D38B00C01A524143088B4201D3FE
:100D70004B00C01A5241411A00D20146524110465E
:100D80007047FFE701B5002000F0F0F802BDC04653
:100D90000029F7D076E7704703460B437FD4002243
:100DA00043088B4274D303098B425FD3030A8B42FF
:100DB00044D3030B8B4228D3030C8B420DD3FF2269
:100DC000090212BA030C8B4202D31212090265D037
:100DD000030B8B4219D300E0090AC30B8B4201D3EA
:100DE000CB03C01A5241830B8B4201D38B03C01A31
:100DF0005241430B8B4201D34B03C01A5241030BA8
:100E00008B4201D30B03C01A5241C30A8B4201D358
:100E1000CB02C01A5241830A8B4201D38B02C01A03
:100E20005241430A8B4201D34B02C01A5241030A7A
:100E30008B4201D30B02C01A5241CDD2C3098B425F
:100E400001D3CB01C01A524183098B4201D38B01DC
:100E5000C01A524143098B4201D34B01C01A52417F
:100E600003098B4201D30B01C01A5241C3088B42C4
:100E700001D3CB00C01A524183088B4201D38B00AF
:100E8000C01A524143088B4201D34B00C01A524151
:100E9000411A00D201465241104670475DE0CA0F28
:100EA00000D04942031000D34042534000229C46E8
:100EB00003098B422DD3030A8B4212D3FC228901F2
:100EC00012BA030A8B420CD3890192118B4208D3C8
:100ED000890192118B4204D389013AD0921100E02A
:100EE0008909C3098B4201D3CB01C01A524183093E
:100EF0008B4201D38B01C01A524143098B4201D36B
:100F00004B01C01A524103098B4201D30B01C01A95
:100F10005241C3088B4201D3CB00C01A524183080F
:100F20008B4201D38B00C01A5241D9D243088B4265
:100F300001D34B00C01A5241411A00D20146634608
:100F400052415B10104601D34042002B00D549426C
:100F5000704763465B1000D3404201B5002000F0AB
:100F600005F802BD0029F8D016E770477047C04663
:100F70009140031C90409C46203A934019435242B2
:100F80006346D340194370478446101C62468C4622
:100F9000191C634600E0C0461FB501F083FF00281E
:100FA00001D40021C8421FBD10B501F0DDFE404252
:100FB000013010BD10B501F075FF002801DB0020E5
:100FC00010BD012010BDC04610B501F06BFF002818
:100FD00001DD002010BD012010BDC04610B501F09C
:100FE000FDFE002801DC002010BD012010BDC04620
:100FF00010B501F0F3FE002801DA002010BD012039
:1010000010BDC0468446081C6146FFE71FB500F0CE
:10101000B3FC002801D40021C8421FBD10B500F068
:1010200045FC4042013010BD10B500F0A5FC002881
:1010300001DB002010BD012010BDC04610B500F03E
:101040009BFC002801DD002010BD012010BDC04622
:1010500010B500F051FC002801DC002010BD01207B
:1010600010BDC04610B500F047FC002801DA002092
:1010700010BD012010BDC046002B11D1002A0FD198
:10108000002900D1002802D00021C943081C07B460
:10109000024802A14018029003BDC046D1FEFFFFE6
:1010A00003B4684601B5029800F066F8019B9E46BD
:1010B00002B00CBC7047C046F0B5CE46474615049A
:1010C0002D0C2E0080B50704140C3F0C9946030C20
:1010D0007E435D43674363437F19340CE4199C46A8
:1010E000A54203D980235B029846C4444B46514332
:1010F00043433604360C250C24046544A4195918BE
:10110000491920000CBC90469946F0BD9E2110B5AF
:10111000C905041CFFF7A6FF002803D1201C00F01E
:1011200029FF10BD9E21201CC90500F087FD00F09D
:1011300021FF80231B069C466044F2E770B5002225
:101140000C4B04000D00FFF753FF002804D12000D2
:10115000290002F0BFFC70BD064B002220002900D0
:1011600002F082F902F0B6FC80231B069C46604424
:10117000F1E7C0460000E041F0B557464E4645460F
:10118000DE46E0B5040083B00D00924699468B42DE
:101190002FD82CD04946504602F044FE29000600C4
:1011A000200002F03FFE331A9846203B9B4600D5B4
:1011B00074E053465A4693401F00534642469340BC
:1011C0001E00AF4229D826D05B46A41BBD41002B90
:1011D00000DA79E0002200230092019301235A46AD
:1011E00093400193012342469340009319E08242C9
:1011F000D0D900220023009201930C9B002B01D038
:101200001C605D600098019903B03CBC9046994613
:10121000A246AB46F0BDA342D6D9002200230092DD
:1012200001934346002BE8D0FB0772081A43464659
:101230007B080EE0AB4201D1A2420CD8A41A9D411A
:10124000012024196D410021013E24184D41002E3A
:1012500006D0AB42EED9013E24196D41002EF8D1E3
:101260005B460098019900196941002B22DB2B0095
:101270005A46D3402A004446E2401C005B46150013
:10128000002B2CDB26009E40330026004746BE4044
:101290003200801A994100900191AEE74246202326
:1012A0009B1A5246DA40414613004A468A401700CC
:1012B0001F4382E7424620239B1A2A0046469A4053
:1012C0002300F3401343D5E74246202300219B1A15
:1012D0000022009101920122DA40019282E7424607
:1012E000202326009B1ADE402F00B4469740664616
:1012F0003B003343C9E7C046F0B5C6464E0247023D
:10130000760A7B0A4400C50FF7004800984600B5EE
:10131000240E2A00DB00000EC90FBC468D4267D0A8
:10132000221A002A00DCA5E000283AD1002F00D1C3
:1013300093E0511E002900D0BCE00124DB1B5A01C0
:1013400046D59B019E09300002F04EFD05388640CF
:10135000844200DD9DE0041B320020200134E24085
:10136000041BA64033005E1EB341002413435A07FA
:1013700004D00F221A40042A00D004335A0129D580
:101380000134FF2C00D181E02A009B015B0AE4B20A
:101390005B02E405580AD2072043104304BC904680
:1013A000F0BDFF2CE3D080213800C90408438446F7
:1013B0001B2A00DD82E020206146D140821A60466F
:1013C00090400200501E82410A439B1A5A01B8D431
:1013D0005A07CED1DE082A00FF2C3AD1002E00D1C8
:1013E000AEE08023DB0333435B025B0AFF24CFE7DD
:1013F000211A002952DD002831D0FF2CB7D08020DF
:101400003E00C0040643B4461B2900DDAAE02026A6
:101410006046C840711A66468E4031004E1EB1418A
:1014200001435B185901D3D50134FF2C00D187E06B
:10143000012278491A405B080B40134397E7002CC0
:1014400000D0A7E0002B00D0B6E03B1E62D1002602
:10145000002273025B0AE4B29AE7140087E7002FC8
:101460004DD0481E002857D1634401245A01AFD5FE
:101470000224DDE7002A24D1621CD2B2012ADEDD7B
:10148000DE1B720135D5FE1A0D005CE72A00002331
:101490007EE73300604A241A134068E7002963D1CD
:1014A000611CC8B201284EDDFF2949D063445B08A6
:1014B0000C005CE7FF2A41D00A0079E701229B1A61
:1014C00084E7002C1DD0FF2822D08024E40452425F
:1014D00023431B2A00DD8AE01C002025D440AA1AE1
:1014E00093405A1E9341234362460400D31A0D00D1
:1014F00025E7002E00D026E700220024A9E70C00F3
:1015000035E7002B4DD0D243002AEDD0FF28E0D1A3
:101510006346FF240D002AE7FF290FD0010073E77F
:10152000002B61D0FF24002F00D120E7802241460C
:10153000D203114202D0164200D13B00FF2416E72D
:10154000FF24002324E7002CEAD1002B58D0002FE1
:1015500000D10CE763445A0100D439E72E4A0C004D
:10156000134004E701215CE7002C1ED1002B40D082
:10157000C94300290BD0FF2836D01B2947DC1C00AB
:101580002026CC40711A8B40591E8B412343634463
:10159000040047E7002B18D13B1E2DD00D00FF247F
:1015A000E5E63B0004000D00E1E6FF281CD08024A6
:1015B000E40449422343E0E7002F00D1D7E6DE1BD5
:1015C00072011FD5FB1A0D00D1E6FF24002F00D1B8
:1015D000CDE680224046D2031042AFD01642ADD1B4
:1015E0003B000D00FF24C2E66346FF24BFE6012353
:1015F0007AE73B000400BAE680260022F603F0E614
:101600003B00B4E6331E00D0E2E6002221E70123CE
:10161000BDE7C046FFFFFF7DFFFFFFFBF0B557466C
:101620004E46DE464546E0B544024300C60F83B051
:101630000F1C640A1B0EB24653D0FF2B27D080220A
:10164000E400D20414437F2252429046984400237F
:1016500099469B467D027800FB0F6D0A000E0093B1
:1016600024D0FF2846D080230021ED00DB041D4359
:101670007F384746381A4F460F43BF00B9463300FC
:10168000009A874F53404A46BA5801939746002C18
:101690004ED108239946F7339846FD3B9B467D0281
:1016A0007800FB0F6D0A000E0093DAD1002D26D1D1
:1016B000002001213300009A7A4F53404246101A0D
:1016C0004A460A439200BA581D009746009B2C00D8
:1016D0009A468B465B46022B31D15346FF210024AC
:1016E00038E0002C17D10423994600239846013393
:1016F0009B46AFE7FF20002D0BD10221DAE728003F
:1017000002F072FB431F9D4076235B42181A0021B2
:10171000AFE70321ADE7200002F066FB431F9C40CA
:1017200076235B421B1A9846002399469B4691E715
:101730000C239946F3339846FC3B9B468AE7032BE0
:1017400000D1A5E05546012B00D081E00123002106
:1017500000242B406402C905600ADB0708431843D4
:1017600003B03CBC90469946A246AB46F0BD8024EF
:101770000023E403FF21EDE7FF210024EAE7012332
:10178000591A1B2966DD019A134000210024E1E764
:101790008023DB031C4238D01D4251D01C4364021D
:1017A000640A3300FF21D5E763016C01A3423BD2F9
:1017B0001B260021013801251F0049005B00002F76
:1017C00001DB9C4201D81B1B2943013E002EF3D1B3
:1017D0001C00631E9C410C4301007F310029CEDDBB
:1017E000630704D00F232340042B00D004342301CB
:1017F00003D501002C4B80311C40FE290DDD012357
:10180000019AFF2113400024A4E78023DB031C433B
:101810006402640A3300FF219CE70123019AA401BA
:10182000640AC9B2134095E71B1B1A260121C2E7BF
:10183000009B8B469A4600244CE76302E5D50025C1
:101840008024E4032C436402640A009BFF2181E7A7
:101850000195C1E723002020CB40411A8C40611E36
:101860008C411C43630704D00F232340042B00D07A
:101870000434630105D50123019A0121134000249A
:1018800068E70123019AA401640A1340002161E77B
:101890008023DB031C436402640A5346FF2159E79B
:1018A00010C2010050C20100FFFFFFF770B54200F7
:1018B00045024E024C00C30F6D0A120E760A240E2A
:1018C000C90F0120FF2A06D0FF2C03D0A24201D16C
:1018D000B54206D070BD002DFCD1FF2CFAD1002EF0
:1018E000F8D18B4206D00120002AF3D12800451EF2
:1018F000A841EFE70020EDE7F0B5420045024C02B9
:10190000C30F48006D0A120E640A000EC90FFF2AA9
:101910001ED0FF2821D0002A0AD16E426E41F6B2B5
:1019200000280FD1002C0DD10020002D09D005E09A
:10193000002801D1002C01D08B4211D00121584246
:101940000843F0BD002EF7D0012001390843F8E725
:10195000002DDED002204042F3E7002CDBD0F9E777
:101960008242EBDC04DBA542E8D80020A542E8D2A5
:101970000121581E0843E4E7F0B542004D024C0037
:101980004602760A120EC30F6D0A240EC90FFF2AF3
:1019900016D0FF2C18D0002A0AD170427041C0B274
:1019A000002C15D0002805D0012001390843F0BDD6
:1019B000002C13D0994214D001205B421843F6E763
:1019C0000220002EF3D1E4E70220002DEFD1E2E760
:1019D000002DE7D10020002EE9D0EDE7002DE9D160
:1019E000EAE7A24206DCDFDBAE4203D80020AE42CB
:1019F000DAD3DCE7012049420843D8E7F8B5574677
:101A00004E464546DE46E0B54702460088467F0A18
:101A1000360EC40F002E47D0FF2E24D0FB008027A7
:101A2000FF041F43002399469A467F3E43465D02CA
:101A30005800DB0F6D0A000E984643D0FF283BD0BC
:101A4000EB0080250022ED041D437F383618731CFF
:101A500041469B464B46614013430F2B64D8754863
:101A60009B00C3589F46002F42D108239946063B4E
:101A7000FF269A46DAE74146022A28D0032A00D1F7
:101A8000CEE0012A00D0ACE0114000200022CCB210
:101A90004002D205400AE407104320433CBC904674
:101AA0009946A246AB46F8BD002F15D104239946AE
:101AB000033B00269A46B9E7FF200222002DC5D03D
:101AC0000322C3E7002D19D100200122BEE7012423
:101AD000FF220C400020DBE7380002F085F9762673
:101AE000431F9F4000237642361A99469A469DE747
:101AF0000C239946093BFF269A4697E7280002F0F7
:101B000073F9431F9D4076235B42181A00229DE71C
:101B100080200024C003FF22BAE73D005246ABE715
:101B20003D0021005246A7E73B0C9C462A04120CBC
:101B30002B0C1400604665463F043F0C7C43424337
:101B40005D437B43270C9B18FF18BA4203D98023BF
:101B50005B029C46654424043A04240C1219930148
:101B60005C1EA3413F0C920E7D191A43AD01154333
:101B70002B0104D501235E466A081D40154332003F
:101B80007F32002A25DD6B0704D00F232B40042B66
:101B900000D004352B0103D53200274B80321D4085
:101BA000FE2A94DC0124A801400AD2B20C406FE75F
:101BB0008020C003074207D0054205D128434002D8
:101BC000400A4446FF2263E738434002400AFF22AE
:101BD0005EE70124A31A1B2B05DD0C400022002028
:101BE00056E75E46CBE72A002020DA40C31A9D4024
:101BF0002B005D1EAB4113435A0704D00F221A403D
:101C0000042A00D004335A0104D5012401220C40D7
:101C100000203DE701249B01580A0C40002237E7D1
:101C200080200124C00328434002400A0C40FF22C8
:101C30002EE7C04690C20100FFFFFFF7F0B54F4608
:101C4000D64646464400C0B5C20F47024802400A85
:101C5000844666467B0A4800C90F9A46240E150042
:101C6000DB00000E8946F600FF2800D18FE001213D
:101C70004F464F403900914266D0221A002A00DCBC
:101C80009DE000283DD1002E00D18BE0511E00299F
:101C900000D0B5E001249B1B5A0144D59B019F094C
:101CA000380002F0A1F805388740844200DD96E054
:101CB000041B3A0020200134E240041BA7403B00F3
:101CC0005F1EBB41002413435A0704D00F221A4061
:101CD000042A00D004335A0127D50134FF2C00D147
:101CE00079E001229B015B0AE4B22A405B02E40531
:101CF000580AD207204310431CBC90469946A2467E
:101D0000F0BDFF2CE0D08021C9040E431B2A7BDCF0
:101D100031002020D140821A9640721E96410E4317
:101D20009B1B5A01BAD45A07D0D10122DF082A409E
:101D3000FF2C33D1002F00D1A8E08023DB033B43ED
:101D40005B025B0AFF24D1E7211A00294CDD002841
:101D50002AD0FF2CB8D08020C00406431B2900DD08
:101D6000AFE030002027C840791A8E40711E8E41A6
:101D700006439B195901D6D50134FF2C00D185E0CB
:101D800001227A491A405B080B4013439CE7002E5E
:101D900000D070E76BE73B1EC5D100227B025B0AD7
:101DA000E4B2A3E714008FE7002E4DD0481E0028B0
:101DB00057D19B1901245A01B5D50224E0E7002A26
:101DC00025D1621CD2B2012A72DD9F1B7A0135D562
:101DD000F71A0D0064E7012200232A4086E73B0042
:101DE000634A241A13406FE700296CD1611CC8B202
:101DF00001284EDDFF2949D09B195B080C0063E7E1
:101E0000FF2A41D00A0081E701269B1B89E7002CAD
:101E10001CD0FF2821D08024E404524223431B2AF3
:101E200000DD96E01C002025D440AA1A93405A1EDB
:101E300093412343F31A04000D002DE7002F00D037
:101E40002EE700220024A9E70C003DE7002B58D024
:101E5000D243002AEED0FF28E1D13300FF240D0049
:101E600032E7FF2910D0010078E7002B6ED0FF2465
:101E7000002E00D128E780225146D203114203D020
:101E80006146114200D13300FF241DE7FF240023E7
:101E90002CE7002CE9D1002B63D0002E00D113E7F2
:101EA0009B195A0100D43EE7314A0C0013400BE75E
:101EB000002C1ED1002B2FD1002E4FD033000D004F
:101EC00002E7012655E7002C1FD1002B43D0C94360
:101ED00000290BD0FF2839D01B2944DC1C00202707
:101EE000CC40791A8B40591E8B4123439B19040027
:101EF00040E7002B1AD1002E24D180270022FF03B7
:101F00001BE7330004000D00DEE6FF281ED080240E
:101F1000E40449422343DFE7002E00D1D4E69F1BAF
:101F20007A0100D437E7F31A0D00CDE6FF24002E26
:101F300000D1C9E680225046D2031042A4D06046A8
:101F40001042A1D133000D00FF24BDE63300FF2471
:101F5000BAE601236EE733000400B5E6002700224D
:101F60001CE73300B0E60123C0E7C046FFFFFF7D5A
:101F7000FFFFFFFB41024300C20F490A1B0E002076
:101F80007E2B0DDD9D2B0CDC802000040143952B66
:101F90000ADC9620C31AD9404842002A00D1080022
:101FA0007047034BD018FBE7963B9940F4E7C046D7
:101FB000FFFFFF7F70B5002830D0C317C4185C4006
:101FC000C50F200001F010FF9E231B1A962B0DDC7D
:101FD0009622D21A94402A006402640ADBB2640298
:101FE000DB05600AD2071843104370BD992B19DC3A
:101FF0009922D21A002A29DD94402200144C144060
:10200000510704D00F210A40042A00D00434620191
:1020100013D4A401640ADBB22A00E0E70022002303
:102020000024DCE705222100121AD140B922D21A7D
:102030009440621E94410C43DAE7054B2A001C4091
:102040009F23A4011B1A640ADBB2C8E72200D5E76C
:10205000FFFFFFFB10B5041E27D001F0C5FE9E2335
:102060001B1A962B0ADC9622D21A94406402640A48
:10207000DBB26402DB05600A184310BD992B17DC44
:102080009922D21A002A27DD94402200134C1440D2
:10209000510704D00F210A40042A00D00434620101
:1020A00012D4A401640ADBB2E3E700230024E0E7D2
:1020B000B9222100D21A91400A00511E8A410521FD
:1020C000091ACC401443DBE7044B1C409F23A401B6
:1020D0001B1A640ADBB2CCE72200D7E7FFFFFFFB45
:1020E000F8B54546DE4657464E460C03E0B54E0071
:1020F000C90F88460D00610A440F0C43C70019033D
:102100005800DB0F9B464B0A510F0B43760D400DD9
:102110001900D200D84500D1AEE0351A002D00DC00
:10212000F6E000280FD1134300D1DBE06B1E002B3B
:1021300000D037E1BA1A9742BF41641A7F42E41BCC
:102140000126170024E0C64B9E424DD080231B047D
:102150001943382D00DD07E11F2D00DD38E1202077
:10216000431B9A460B00504683409946130048464D
:10217000EB401843030050468240501E8241E94024
:102180001A43BA1A611A9742A441170064420C1B01
:10219000230262D56402650A002D00D1DFE0280029
:1021A00001F022FE0300083B1F2B00DDD2E02022BD
:1021B0003C00D21A9D40D4409F4025439E4200DD02
:1021C000C4E09E1B731C1F2B00DDF1E020223800B1
:1021D0002900D21AD840914097402C000143781E24
:1021E0008741DC4000260F437B0709D00F233B408B
:1021F000042B05D03B1DBB42BF417F42E4191F00A9
:1022000023022CD5964B01369E4200D19AE04546DA
:10221000944BFF081C406007760564020743240BBB
:10222000760D00212403230B0C0D8F4A24051C433B
:102230001440330523435B00ED075B082B43380054
:1022400019003CBC90469946A246AB46F8BD644690
:10225000044300D111E2040067467B07C6D145461E
:102260006007FF080743E4087D4B9E4230D02403FB
:102270007605240B760DD4E7331A9A46002B78DDC9
:10228000002831D076488642AED080200004014339
:102290005346382B00DCE9E00A43511E8A410021F5
:1022A000D219BA42BF4109197C4217000C19230206
:1022B000D3D56B4B01369E4200D13AE10120694BE8
:1022C0001C407B0807401F43E007074364088BE777
:1022D00023003B4300D1CBE18022120314432403AB
:1022E000240B9EE72E007FE70800104300D1B4E0E6
:1022F000581E002800D0DEE0BA18BA429B4164188C
:102300005B42E418170001262302A6D50226D5E772
:10231000002D6ED1701C4005400D012800DCF9E055
:10232000B81A844687428041E51A40422D1A280295
:1023300000D489E0D71BBA4292411C1B5242A51A15
:10234000D84629E74546002400276AE7454CF61A97
:102350002C4049E73D002838854000272EE738000B
:1023600001F042FD20301DE70A43511E8A41002141
:1023700007E7002B00D0F3E0701C43055B0D012B39
:1023800000DCADE0364B984200D1D1E0BA18BA4239
:10239000BF4164187F42E419E707520817436408F5
:1023A000060021E72E48854200D193E01D00D0E6CB
:1023B00029001F3EF140202B00D18DE04022D31A8E
:1023C0009D402F437D1EAF4100240F43002644E76C
:1023D0002B000800203BD8400300202D00D17DE0D9
:1023E0004020451BA9400A43511E8A4100211A433F
:1023F000C7E6002E50D01A4EB04257D080266B420E
:102400009946360434434B46382B00DDD6E01F2B6B
:1024100000DD35E12026F51A2600AE40B2463E002A
:10242000DE40AC46350056462E436546AF407D1E25
:10243000AF41DC403743D71BBA4292410C1B52429A
:10244000A41A0600D846A3E6644667462C4300D08B
:10245000A2E600250026002706E71E00C4E6C046C7
:10246000FF070000FFFF7FFFFFFF0F801F2B63DCD4
:102470002020C31A080098409C468346534610000B
:10248000D84003005846184363469A40531E9A4169
:1024900053460243D94003E726003E4306D0EB43B0
:1024A0009946002BC7D0944EB042ACD10C00170017
:1024B0000600D84698E6904B9A450BD08246E7E650
:1024C000002800D09EE01800104300D1E9E01C0075
:1024D0001700D846884E87E6002572E7002182E77C
:1024E00023003B43002E00D0ABE0002B00D1E7E0FF
:1024F0000B00134300D177E6BA18BA42BF41641803
:102500007F42E419230200D4F2E07C4B17001C4008
:10251000060069E620003843002ED1D100285BD1A7
:102520001C00144300D1A8E01C001700D8465BE64D
:1025300006000024002797E650460B002038C340D1
:1025400099465346202B00D195E0402350461B1A54
:1025500099400A43511E8A414B4600211A439FE687
:10256000002E30D126003E4367D0DB439A46002B35
:102570001CD0614EB04260D05346382B00DD96E04F
:102580001F2B00DD9FE02026F31A26009E409C466C
:10259000B34653463E00DE4033005E461E4363466C
:1025A0009F407B1E9F415346DC403743BF189742F4
:1025B000924164185242A418060078E627437C1E14
:1025C000A741002437E74C4EB04236D080265B420C
:1025D00036049A463443CFE71800104300D103E68F
:1025E000B81A84466745AD41E01A6D42401B0502AA
:1025F00000D42CE6D71BBA4292411C1B5242A41AAB
:10260000D846F1E51800104300D163E7F8086707E2
:1026100007438020E4080003044208D0DD08054297
:1026200005D1D208590711430F002C00D8467B0F63
:10263000E4001C43FF00304ED6E50C0017000600F6
:10264000D2E5002B38D00B00134300D142E7F80845
:10265000670707438020E40800030442E7D0CB0863
:102660000342E4D1D208490711430F001C00DEE702
:1026700000270024D5E500216BE700250027F3E5BE
:102680004E462500203EF5404B462E00202B2DD0F7
:102690004025ED1AAC4027437C1EA7410024374358
:1026A000C9E6802400252403134E0027DCE52743D8
:1026B0007C1EA741002479E70C0017000E4E93E51D
:1026C0000C00170090E556462300203EF340994643
:1026D0005346202B0ED0402356469B1B9C4027433D
:1026E0007C1EA7414B4600241F435FE70024D2E72E
:1026F0001700B2E50024F2E7FF070000FFFF7FFFAD
:10270000F0B557464546DE464E46E0B54C000E0352
:1027100087B0834692461D008046360B640DCF0F6E
:10272000002C4FD06F4B9C4235D08023420F1B04AE
:10273000F600134333439946C30098466A4B00267C
:102740009C460023644403932B031B0B9B466B00A6
:10275000ED0F50465B0D01955ED0624A934253D017
:102760005A46D1008022400F120402430A43934686
:102770005246D1005C4A94460022634438006840C7
:1027800084460290E41A16430F2E00D9B4E0574B4A
:10279000B6009B599F460300334399466CD10023F2
:1027A0009846023308260393CEE7CB464146039A68
:1027B0000197022A65D1019B4A4C9C4600230022C6
:1027C00098466BE00300334399464ED0002E00D16B
:1027D000BCE1300001F008FB03000B3B1C2B00DDCB
:1027E000ACE11D22D31A5A460100DA4008398E4066
:1027F0001300334399465B468B40984600233C4C7C
:102800000026241A03939FE751465A46114329D1C3
:10281000002293460232B1E7594601431ED05B467F
:10282000002B00D19EE1584601F0DEFA03000B3B7D
:102830001C2B00DD8FE102005946083A91408B467F
:102840001D21CB1A5146D9400B0059460B43514626
:102850009B469140264B00221B1A8FE70023012242
:102860009B468BE75146032288E7002398460133B5
:1028700004260024039367E70323B14603930C2641
:1028800062E7032A00D15CE2019B012A00D0E4E167
:1028900013409C4600230024002298460021120386
:1028A000130B0A0D12051A432305124C4046224011
:1028B000134362465B00D2075B081343190007B05D
:1028C0003CBC90469946A246AB46F0BD0023802210
:1028D0009C4612039846034CE0E70023014C00227B
:1028E0009846DBE7FF07000001FCFFFFD0C20100B4
:1028F0000DFCFFFFFFFF0F80D94500D939E100D162
:1029000034E1002346464D469A46013C5B460A0E9A
:102910001B021A430B02170C039313041B0C390000
:10292000280090460193FEF7ADF90200019B834613
:102930005A43280039009146FEF72AFA350C09045B
:102940000D43A9450DD95B464544013BA84500D937
:102950003AE1A94500D837E102235B429C46454451
:10296000E3444B46EB1A390018000493FEF78AF94A
:10297000019B05004343390004989946FEF708FA85
:10298000330409041B0C0B43994509D943446A1EBF
:10299000984500D91AE1994500D817E1023D434412
:1029A0004A469B1A5A4612042A4303999346100C2E
:1029B0000A0C914609045A46090C4E460D001204B1
:1029C000120C4543059151437243704352190E0C4A
:1029D000B218954203D980256D02AC466044150CAF
:1029E00009041204090C28185218834200D2CEE0C0
:1029F00000D1C8E01D1A53469E1AB2459241524278
:102A0000AB1A9A46984500D117E139001800FEF735
:102A100039F9019B05004343390050460493FEF702
:102A2000B7F904980B04310C1943884209D9414481
:102A30006B1E884500D907E1884200D804E1023DB9
:102A40004144049BCB1A180039000493FEF71AF98D
:102A5000019B82464343390004980193FEF798F99D
:102A600001980B043104090C194388420DD95346CF
:102A70004144013B884500D9E8E0884200D8E5E0C0
:102A800002235B429C464144E244019B2D04CE1A42
:102A900051462943059D4F462A000B04080C1B0C88
:102AA0005A4345437B4378435B19170CFB189D42FF
:102AB00003D980256D02AC4660441D0C12041B0432
:102AC000120C28189B18864200D293E000D18EE0A9
:102AD00001231943A04BE318002B00DC99E04A07BF
:102AE00000D09EE05A46D20106D55A469B4B1A406A
:102AF00080239346DB00E318994A934268DD012363
:102B0000029A984C1A400023944698460022C5E643
:102B100080224B46120313420AD05B46134206D171
:102B20001A431203120BAC4688468E4CB6E64B464F
:102B30001A431203120BBC468A4CAFE603005A46F6
:102B4000283B9A4000239146984657E6584601F0A4
:102B50004BF9203040E603005246283B9A400021C2
:102B6000934677E601F040F920305FE6884500D2D1
:102B7000C7E64B46DE075D0843465B081E434346F7
:102B8000DB079A46C2E60025924500D333E7039E51
:102B90005946B446E244B245AD416D424544EB1856
:102BA0000139984507D2984200D97FE000D1BCE0B6
:102BB0001D1A8B461FE79845FAD1039D5545F2D95A
:102BC00043468B461D1A16E79B46CAE61500E7E604
:102BD0005A46C90852070A435B0590465C0D5A469F
:102BE0000123029952021940120B8C4656E6002B23
:102BF00000D16FE746444A1EB04529D911008642EC
:102C000000D065E7039A934200D061E762E70121B3
:102C100049420120C21A382A21DD029B03409C460A
:102C200038E60F220A40042A00D15BE70A00111D92
:102C3000914292415242934454E7474BE318002B90
:102C4000E5DD01225242F2E71D00FAE69A461CE752
:102C5000B04239D86ED011003AE702933AE71F2A02
:102C60003CDC20239B1A0C005846994098404B1E90
:102C700099415B46D440D340204308431A004307A0
:102C800009D00F230340042B05D00100081D884202
:102C90009B415B42D21813023AD50123029A0124C8
:102CA0001A400023944698460022F7E50221494243
:102CB0008C46039DE344AC46E244AA45AD416D42D7
:102CC0004544ED182D1A96E68A1E03994D008D4253
:102CD000894149424144761803958FE71F204042BD
:102CE000C31A5846D8400300202A28D040205D4609
:102CF000821A954029434A1E914119430723002215
:102D00000B4009D00F2300220B400800042BBDD13B
:102D1000010053075202120BC908194301238846C8
:102D20000299002419408C46B8E55245BED88B461E
:102D3000002560E6039D9D42C6D3110062E7002591
:102D4000D8E780225B4612031A43019B1203120B41
:102D50009C468846034CA1E5FF030000FFFFFFFEF1
:102D6000FE070000FF070000F0B54F464646D64676
:102D70005C00C0B51F03DB0F9A46174B0E034D00D6
:102D800084468046360B6D0DC90F91463F0B640D8E
:102D900001209D4208D09C4201D0A5420BD01CBC12
:102DA00090469946A246F0BD63463343F7D1AC4204
:102DB000F5D13A43F3D10120BE42F0D1C845EED15E
:102DC000514507D0002DEAD163461E433000461E10
:102DD000B041E4E70020E2E7FF070000F0B5454618
:102DE000DE4657464E46E0B51F033D0B2C4F0E0303
:102DF0004C00AB465D008446360B640DC90F90460F
:102E00006D0DDB0FBC422AD0254FBD422DD0002CCA
:102E10000FD130430700814678427841C0B2002D7F
:102E200017D15F463A4314D14B460020002B0AD0FD
:102E300006E0002D02D15846024301D0994218D035
:102E40004842012108433CBC90469946A246AB4605
:102E5000F0BD0028F2D00120013B1843F3E7370012
:102E60000743D1D002204042EDE75F461743CED062
:102E7000F8E7AC42E4DC03DA481E01210843E2E74C
:102E80005E45DDD806D000205E45DCD20123481E19
:102E90001843D8E7C445D3D80020C445F6D3D2E7B9
:102EA000FF070000F0B54E464546DE4657465C003B
:102EB000E0B51F03DB0F99462A4B0E034D00C90FE7
:102EC0008446360B6D0D8B4690463F0B640D9D423C
:102ED00020D0244B9C4222D0002D12D130434342BB
:102EE0004341DBB2002C1FD0002B0CD04B460120FD
:102EF000013B034318003CBC90469946A246AB46B2
:102F0000F0BD002C16D0CB4517D05B4659420123AB
:102F10000B43EFE7310002230143EBD1D9E739003E
:102F200002231143E6D1D7E73A43DDD1002300283D
:102F3000E0D0EAE73A43E6D1E7E7A542E5DC05DB86
:102F4000BE42E2D807D00023BE42D3D25946012365
:102F500001390B43CEE7C445D7D80023C445F5D388
:102F6000C8E7C046FF070000F0B557464546DE46B5
:102F70004E46E0B50C0398464E00230B87B0070081
:102F800092469B46760DCD0F002E6BD06D4B9E4228
:102F900035D080245B46420F2404DB0014431C43DD
:102FA000C3009946684BA3469C460023002766440D
:102FB000029343461C035A00DB0F5046240B520D6C
:102FC000984600D176E05F4B9A426DD08023410F46
:102FD0001B040B435C49E4008C461C43C3000020E7
:102FE00062444146B6186940721C019194460743F9
:102FF0000F2F00D9B0E0554ABF00D25997465B4623
:103000000343994600D087E000239B4602330827FC
:103010000293CEE742460192022867D0032800D1EE
:103020000EE2012800D062E100230024002299462C
:1030300001990140CDB2002112030B0D120B1B05AB
:103040001343434A240513401C436400ED076408FE
:103050002C434846210007B03CBC90469946A24606
:10306000AB46F0BD034399464FD05B46002B00D1E1
:1030700089E1584600F0B8FE03000B3B1C2B00DD35
:103080007AE11D22D31A3A0001005C46DA40083981
:103090008C4013008F4023439B46B94600232D4E9E
:1030A0000027361A029384E7534623432AD100248B
:1030B000022096E75346234320D0002C00D157E14D
:1030C000200000F091FE03000B3B1C2B00DD49E1CA
:1030D0001D21CB1A51460200D9405346083A94406C
:1030E00093400C431B4A121A00207AE70125019BEA
:1030F000144C1D400023002299469CE70024002226
:1031000001206EE7534603206BE700239B46013303
:103110000427002602934CE7032381460C270293E1
:1031200047E780220023002512039946054C82E7D9
:103130005C464B4602986FE75C464B460195029809
:103140006AE7C046FF07000001FCFFFF10C3010053
:10315000FFFF0F800DFCFFFF4A464946170C1A0C73
:103160001B041B0C08041900000C41431500884681
:1031700019007D437943039589462900150045438D
:103180004D44029545462D0CAA46029D5544A9453D
:1031900006D98A46802149028946CA44514603918C
:1031A000290C0491414609042D04090C8846290084
:1031B000250C24044144240C0591210041438846F8
:1031C000210079438A466843414650448146080CB1
:1031D00048446F43824503D98021490289464F44C0
:1031E000010C894639004944029141460F04049973
:1031F0003F0C88460004C01980444146049159465A
:103200000F0C0904090C884659438A46390051437A
:10321000894641464A435146090C8B467B43D218A6
:103220005A44934203D980235B029B46D9445146BA
:103230000904090C8A46414661437C43130C12047D
:103240004B445244A1468A463C0041466C434D43A0
:1032500051464D440F0C7D19A94503D980214902DF
:1032600088464444049F0399B84641448B468345AD
:10327000804141428846514608042F04000C3F1803
:103280005846029910188946904292414F44BA46D6
:10329000524299469346C244D144CB448F42BF41E7
:1032A000C245894199459B41934592417F4249429C
:1032B0002D0C52420F435B4213437F19FF185B46AC
:1032C0003C19DB0D059A64021C43430213435D1E47
:1032D000AB415A46C00D034352021343E20156D597
:1032E00001205A0803401343E207134364085A4875
:1032F000604400284DDD5A0709D00F221A40042AE5
:1033000005D01A1D9A429B415B42E4181300E2016A
:1033100004D58020514AC00014406044504A904275
:1033200000DDE3E60125DB0862071A436402019B26
:103330009146220B4405640D1D407CE680225946CF
:103340001203114208D0144206D122431203120B79
:1033500045469946434C6EE65B461A431203120BF0
:10336000404C68E603005446283B9C400023B9E6E5
:1033700000F03AFD2030A6E60300283B9F400023E2
:10338000BB4699468AE600F02FFD203074E6B4462D
:10339000ADE701252A1A382A06DD019B00241D40CD
:1033A00000230022994646E61F2A21DC2025200022
:1033B000AD1A1E00AB40A840D6405D1EAB41304365
:1033C0001843D440430709D00F230340042B05D0F2
:1033D0000300181D98429B415B42E418230221D54B
:1033E0000125019B01241D4000230022994622E66D
:1033F0001F2521006D42281AC1400800202A1DD037
:103400005F35AA1A944023435C1EA341072503435A
:103410001D400022002D09D00F2200241A40180060
:10342000042AD6D1030065076402220BDB082B4374
:1034300001259946019B00241D40FCE50024E2E79C
:10344000802201251203224301991203120B0D4021
:103450009946044CEFE5C046FF030000FFFFFFFE66
:10346000FE070000FF070000F0B54646D6464F466F
:103470000C03C0B5CD0F4E00610A440F0C43C100D0
:103480005800400D84468A460F001903500F490A20
:103490000143C648760DA846DB0FD200844500D113
:1034A000D8E001204340AB4200D1A6E06046351A87
:1034B000002D00DC05E1002810D10B00134300D1E2
:1034C000D7E06B1E002B00D04BE153469F1ABA4544
:1034D0008041641A4042241A01261EE0B34B9E42EA
:1034E00048D080231B041943382D00DD19E11F2D1E
:1034F00000DD4CE120230F005B1B10009A409F4031
:10350000E840531E9A41E940074317435346DF1BE7
:10351000611ABA45A44164420C1B230200D4C5E0E1
:103520006402650A002D00D1F6E0280000F05CFC82
:103530000300083B1F2B00DDE9E020223C00D21AEB
:103540009D40D4409F4025439E4200DDDBE09E1B12
:10355000731C1F2B00DD0AE120223800D21A29003B
:1035600097402C009140D8407A1E9741DC400026BD
:1035700001430F437B0709D00F233B40042B05D0A9
:103580003B1DBB42BF417F42E4191F00230225D5EA
:10359000864B01369E4200D1AFE0854B01251C4091
:1035A00043466207FF08640276051743240B760D35
:1035B0001D4000212403230B0C0D7E4A24051C43CF
:1035C0001440330523435B00ED075B082B433800B1
:1035D00019001CBC90469946A246F0BD0125434601
:1035E0006207FF081743E4081D40704B9E4236D027
:1035F00024037605240B760DDBE76346F31A002BD4
:1036000000DC94E06046002835D068488642B1D09E
:1036100080273F043943382B00DCFDE00A431700C4
:1036200000217A1E97415744574580410919444269
:103630000C1923023AD55D4B01369E4200D14BE175
:1036400001225B4B1C407B0817401F43E2071743D6
:1036500064088FE70800104300D024E721E7230027
:103660003B4300D1B9E18022120314432403240B0D
:103670009FE72E007EE70800104300D1CAE0581EE5
:103680008446002800D0E7E0524452458041641847
:103690004042241817000126230207D50226CFE74F
:1036A00064462C4300D1B3E12C0067467B0700D071
:1036B00062E76307FF081F4301254346E4081D40F6
:1036C00093E7002D78D1751C6D056D0D012D00DC83
:1036D000F2E05046801A8245BF41651A7F42ED1BD9
:1036E0008446280200D48CE05046171ABA42924110
:1036F0000C1B5542651B984614E7012543460024E0
:103700001D40002755E72A4CF61A2C4032E73D00B1
:1037100028388540002717E7380000F065FB203087
:1037200006E70A43170000217A1E9741EEE6002BB8
:1037300000D0E5E0731C9C465B055B0D012B00DCB3
:103740009FE01A4B9C4500D1C5E052445245804150
:10375000641840422418E707520817436408664675
:1037600008E71248854200D185E01D00BCE629002B
:103770001F3EF140202B00D17FE04022D31A9D4014
:103780002F437D1EAF4100240F4300268EE72B0000
:103790000F00203BDF40202D71D040235D1BA9404E
:1037A0000A43511E8A4100211743AFE6FF0700007C
:1037B000FFFF7FFFFFFF0F80002E3ED0B34EB445CA
:1037C00045D0802636046D423443382D00DDA8E014
:1037D0001F2D00DD1FE1202627005046761BB74035
:1037E000E84007435046B040461EB041EC403843E5
:1037F000171ABA4292410C1B5242A41A66469846C6
:103800008BE6644667462C4300D08BE600250026F5
:103810000027EAE61E00ADE61F2B60DC2027F81A21
:103820000F00844687401000D8400743604682401E
:10383000501E8241D9401743F5E626005046064304
:1038400005D0ED43002DD3D0904EB445BDD10C0032
:103850001700664698468DE68C4883420BD0634637
:10386000D9E6002D00D096E00800104300D1E2E038
:103870000C0017009846854E7CE6002580E7002165
:103880008EE7230050460343002E00D0A8E0002B13
:1038900000D1DEE00B00134300D16BE652445245E9
:1038A00080416418404224181700230200D4FDE62A
:1038B000774B66461C405DE6250050460543002ECA
:1038C000CFD1002D4FD10C00144300D1A0E00C004B
:1038D000170098464EE666460024002785E61F003E
:1038E0000800203FF8400700202B00D18EE0402048
:1038F000C31A99400A43511E8A410021174392E698
:10390000002E14D126005046064362D0DB43002B24
:103910005CD187189742924164185242A4186646B7
:1039200087E650462043441EA041002460E7574EDE
:10393000B4454ED0802636045B423443382B00DD3C
:103940007FE01F2B00DD8BE0202627005046F61A73
:10395000B740D84007435046B040461EB0410743E9
:10396000DC40BF18D6E70D00154300D102E65046F3
:10397000801A8245BF41651A7F42ED1B84462802AA
:1039800000D48DE65046171ABA4292410C1B52429F
:10399000A41A9846EEE50D00154300D16BE750469A
:1039A0006707C00807438020E4080003044207D0EB
:1039B000CD08054204D12C009846D70849070F438B
:1039C0007B0FE4001C43FF00304ED3E52F4EB4457F
:1039D000B4D10C0017006646CCE500270024E8E5CA
:1039E000002B39D00B00134300D144E7C008670710
:1039F00007438020E40800030442E1D0CB080342DF
:103A0000DED1D70849070F431C00D9E7002171E731
:103A100000250027E9E52E002700203EF740202D55
:103A20002FD04026751BAC4050462043441EA04179
:103A300000243843DCE6802400252403134E0027AD
:103A4000D3E5504620430700781E87410024BF1865
:103A500060E70C0017008DE50C0017000B4E89E5A0
:103A60001E002700203EF740202B0CD04026F31AE2
:103A70009C4050462043441EA04107430024BF18E9
:103A800048E70024D0E70024F3E7C046FF07000022
:103A9000FFFF7FFF70B50E4E0D031C0349005B0056
:103AA0002D0B490D240B5B0DB14204D008490020B9
:103AB0008B4208D070BD05430120002DFAD1044986
:103AC00000208B42F6D114432000441EA041F1E7B0
:103AD000FF07000030B5134D0A034B00120B5B0DBE
:103AE000C90F0024AB4210DD0F4CA3420FDC802431
:103AF0000E4D64032243ED1A1F2D0BDD0C48C31A33
:103B0000DA405442002900D11400200030BD094B96
:103B1000CC18FAE7084CE840A44663449A400243B4
:103B2000EFE7C046FE0300001D0400003304000060
:103B300013040000FFFFFF7FEDFBFFFF70B50028BF
:103B400030D0C317C4185C40C50F200000F04CF9FA
:103B5000174B184A1B1AD21A1F2A18DD164AD21AF6
:103B60009440002224035B05240B5B0D0021100010
:103B700024030A0D240B12052243104C1B0522407E
:103B800013435B00ED075B082B43190070BD210058
:103B900091400A000B21081AC4405B052403240B42
:103BA0005B0DE3E70025002300240022DEE7C0468A
:103BB0001E0400003304000013040000FFFF0F8008
:103BC00010B5041E28D000F00FF9154B154A1B1A2A
:103BD000D21A1F2A15DD144AD21A94400022240357
:103BE0005B05240B5B0D0021100024030A0D240B40
:103BF000120522430D4C1B05224013435B0059085C
:103C000010BD210091400A000B21081AC4405B0539
:103C10002403240B5B0DE6E7002300240022E2E7E7
:103C20001E0400003304000013040000FFFF0F8097
:103C30004100090E4B1C70B5DBB24602750AC40F79
:103C4000012B14DDE0239B006D07360BCB18002100
:103C50000A0D280012051C4D32435B052A405B0803
:103C600013435B00E4075B082343190070BD002980
:103C700014D1002D1ED0280000F0B6F80A281CDC54
:103C80000B232A001B1ADA40030015339D400F4B0B
:103C900012031B1A5B05160B5B0DD8E7002D06D02F
:103CA000320B802636036D071643094BCFE7084BCE
:103CB0000026CCE700230026C9E703002A000B3BBF
:103CC0009A400025E3E7C046FFFF0F80890300000C
:103CD000FF070000F0B54C00640D0B03621C450F9C
:103CE0005B0A52052B43C90FC500520D012A28DD7E
:103CF0003A4AA618FE2E1BDC002E3EDD8001020093
:103D0000501E82416D0F2A43DB0013435A0704D033
:103D10000F221A40042A00D004338022D2041A4011
:103D20005AD00136FF2E03D09B015B0AF4B201E0AA
:103D3000FF2400235802E405400AC9072043084332
:103D4000F0BD002C07D01D43F2D08020DB008004A2
:103D50000343FF26DAE72B4303D00523DB08FF2CC0
:103D600003D05B025B0AE4B2E4E7002B32D0802090
:103D7000C00303435B025B0ADCE73200173214DB4B
:103D800080221E2712041343BF1B1F2F0FDC144A6F
:103D9000944664442A00A5402E00A340751EAE41FF
:103DA000FA40334313430026B0E70024D5E702224C
:103DB0005242961B1A00F240202F09D0094884462F
:103DC0006444A3402B435D1EAB41002613439DE793
:103DD0000023F7E70023ADE73400BFE780FCFFFFD7
:103DE00082FCFFFFA2FCFFFF1C2101231B04984261
:103DF00001D3000C10391B0A984201D3000A08397C
:103E00001B09984201D30009043902A2105C401832
:103E10007047C046040302020101010100000000D6
:103E20000000000010B5002903D1FFF7DDFF2030AE
:103E300002E0081CFFF7D8FF10BDC04610B508000F
:103E4000202114F08EFE002010BD10B51C000800CB
:103E500011009AB214F0B4FE200010BD10B51C0081
:103E6000080011009AB214F025FF200010BD10B513
:103E70000CF034FF10BD000010B51E2301220549CF
:103E8000054800F0AEF9002802D10122034B1A7058
:103E900010BDC046C0000020C0100020E810002067
:103EA00010B5094B1B78012B0BD1084C200000F0FA
:103EB000D1F9002801D1C04610BD200000F09EF9C4
:103EC000FAE701204042F7E7E8100020C010002088
:103ED00010B5064B01001B78012B03D1044800F0FC
:103EE0005FFA10BD01204042FBE7C046E810002009
:103EF000C010002010B5064B01001B78012B03D128
:103F0000044800F0BBFA10BD01204042FBE7C04668
:103F1000E8100020C010002070B5104B06001B7880
:103F2000012B18D10E4D2B68EA689B68013B534367
:103F30008B4210D300290ED00139280000F0D9FAA5
:103F400031000400280000F099FA0443280000F032
:103F5000C9FA204370BD01204042FBE7E810002071
:103F6000C010002010B50B4B01001B78012B0DD1A8
:103F700009480368C2689B68013B53438B4205D3E1
:103F8000002903D0013900F0B4FA10BD01204042ED
:103F9000FBE7C046E8100020C010002010B5054B1C
:103FA0001B78012B03D1044800F09CFA10BD0120BE
:103FB0004042FBE7E8100020C010002010B5054B80
:103FC0001B78012B03D1044800F0D8F910BD012063
:103FD0004042FBE7E8100020C010002010B5054B60
:103FE0001B78012B02D100F023F810BD01204042C4
:103FF000FBE7C046E810002010B5054B1B78012BED
:1040000002D100F065F810BD01204042FBE7C04638
:10401000E810002010B5054B1B78012B02D100F0F1
:104020006DF810BD01204042FBE7C046E8100020BB
:10403000F0B595B005AD07000E000822002128005C
:1040400018F0B7F803AC3222002107A818F0B1F835
:104050000822FF21200018F0ACF80A231E22237149
:10406000390007A8039618F09BF8C046A02021004D
:104070000822C000FFF7FBFE00240827A04203D05F
:104080000120404215B0F0BD3A000021280018F090
:1040900090F8631C0322210001936B4611205143C9
:1040A0001B7905962B7107AB591802ABC01818F095
:1040B00077F8C04605483A002900FFF7D8FE0028E7
:1040C000DED1019C0A2CDFD1DCE7C04601050000EF
:1040D00037B505000C000822FF21684618F069F882
:1040E000C0460095C0466B460822694602481C71CE
:1040F000FFF7BDFE3EBDC0460205000013B504003B
:104100000822FF21684618F054F808226946024840
:104110000094FFF7ACFE16BD03050000036810B560
:104120000A685C681B681219534382684868043245
:1041300050430830181810BD70B504681600FFF71A
:10414000EDFF65690100320004232000A84770BD1F
:1041500037B504680192FFF7E1FF256901000423E8
:1041600001AA2000A8473EBD13B543680192C918B3
:1041700003680469594301AA0423A04716BD00003F
:10418000FF2270B505000068120643680E00CC18C7
:1041900003685C43FFF7E8FF28682100C36898477D
:1041A0002A0001CA211D04230469A04731002868A0
:1041B000024AFFF7D9FF002070BDC04600FFFFFF95
:1041C0004B68C26801334B60934209DB00220068F0
:1041D0000B68806801334A600B60834200DB0A6031
:1041E000704710B504000160426083600868191DC3
:1041F0000838FCF747FDE060002010BD70B50400F2
:10420000002523689B689D420CDB00252368002065
:104210009B689D4213DB20616061A061E0612062C8
:10422000606270BD002014F0E3FB290000222068CA
:10423000FFF79AFF012014F0DBFB0135E1E714F0F2
:10424000D7FB29002000FFF79BFF012014F0D0FBD3
:104250000135DBE7F0B500250400036889B09F68ED
:10426000444B013F039502950495206801938368B0
:104270009D421FDB029B002B63D0039B5B421F40D0
:104280000023A761E361A3699F424BD0049B236194
:104290000023636125002369A2691035934253D13D
:1042A0006369E26993424FD1002020340CCD0CC4E5
:1042B00009B0F0BD436806AAEE180368734305937E
:1042C000436905991E000823B047069B002B38D090
:1042D000FF221206934201D0013305D10599200037
:1042E000FFF74EFF234B0693069B224A934202D0D0
:1042F000214A934225D1079A61688A4221D11D49FA
:104300001D4A8B422ED093420AD1019A1100194ABC
:10431000914202D00232FF3201E001220495039261
:104320000135A2E72500183506AA29002000FFF76D
:1043300003FF069B0133A9D029002000FFF740FFAF
:10434000A1E701204042B3E706AA29002000FFF7B9
:10435000F3FE094B069A9A42A6D029002000FFF7E7
:104360002FFF97E70199914200D16F1E012202921F
:10437000D6E7C04600FFFFFF0000FFFF03680269A9
:104380009968836910B50400981A4018FCF7EAFD93
:10439000E068E36948436169C018401A10BD000035
:1043A000F0B58369066885B001910400B168581CB6
:1043B000FCF7D8FD73680D00C91833687769594355
:1043C0003000042303AAB8472A4E039BB3421BD0F4
:1043D00023699D4208D1002321686A1C89686361B2
:1043E00022618A4200DB2361236A9D4208D10023B7
:1043F00021686A1C8968636222628A4200DB236248
:1044000029002000FFF7BCFE2068A36942684569C7
:104410009918036803AA59430423A847039B164A23
:10442000B34221D1A1692068FFF79EFE250018350F
:10443000104A29002000FFF78BFE29002000FFF71B
:104440006DFE2668011DA368019A37693000B847E0
:10445000094A29002000FFF77BFE20002900FFF712
:10446000AFFE002005B0F0BD9342DFD001204042F6
:10447000F8E7C04600FFFFFF0000FFFFF0B50400B3
:1044800085B001912500236AA269203593420BD1A2
:10449000636AE269934207D1012040421DE029008E
:1044A0002000FFF78DFEEDE703AA29002000FFF7AB
:1044B00043FE0B4B039A9A42F1D129002000FFF7EB
:1044C0002DFE2668011DA368019A77693000B84760
:1044D00020002900FFF774FE002005B0F0BDC046A3
:1044E0000000FFFF03001030203306C806C3002081
:1044F000704770B505000E000124B44201D9601E5A
:1045000070BD290028002031FFF75AFE0134F4E77E
:1045100070B50D0004000949094817F0DFFA14F0DE
:10452000ADF90100074817F0D9FA2A002100064822
:1045300017F0D4FA054817F0D1FA70BD6CC301002A
:10454000D9C30100E6C30100F0C30100FDC30100AF
:1045500073B56B46DD1D0023060028002B7014F098
:10456000DFFD041E06D12B78002B03D001220C4B5B
:104570001A7030700B490C4817F0B0FA14F07EF93D
:1045800001000A4817F0AAFA32782100084817F00B
:10459000A5FA084817F0A2FA601E8441E0B276BD81
:1045A0000411002050C30100D9C30100E6C301007B
:1045B000AAC30100FDC30100F8B51C4F1C4E390011
:1045C000300017F08BFA14F059F91A4D0100280049
:1045D00017F084FA184B19481978C9B217F07EFA07
:1045E000174C200017F07AFA3900300017F076FAED
:1045F00014F044F90100280017F070FA114D124828
:104600002978C9B217F06AFA200017F067FA002279
:104610000E4B1A7015F09CFC431E98410C4BC0B217
:10462000AD331870044B18702870F8BD5CC30100DE
:10463000D9C30100E6C301000D180020C9C3010061
:10464000FDC30100F91E0020D1C30100E9100020C4
:1046500008130020002070470020704710B515F0A7
:104660007DFA10BD10B515F08BFA10BD10B515F020
:10467000C9FC10BD70B5050015F01BFD0A2128000E
:10468000FCF770FC2800CCB20A21FCF785FBC0B215
:104690000A280BD8FCF7ECFA060B0E0A0A0A0A0ADB
:1046A0000A0A11002100094815F008FD70BD21001B
:1046B0000748F9E721000748F6E70749682014F0A2
:1046C000C1F906496A2014F0BDF9EFE7BFC3010044
:1046D000C1C30100C3C30100C5C30100C7C30100BA
:1046E00010B515F0E1FC10BD10B515F0F2FC10BDD1
:1046F00010B515F0F2FC10BD10B5040015F0D9FC92
:10470000632C10D80A212000FCF7BCFAC1B2682043
:1047100014F076F90A212000FCF73AFBC9B26A20AE
:1047200014F06EF910BD0349682014F08BF90121D3
:10473000F5E7C046C3C3010070B5050014F0C6FE1E
:104740002B78064A04001370002B01D014F054FE9D
:1047500029780020FFF7DCFE20B270BDE9100020B0
:1047600010B514F077FD040001000120FFF7D0FE22
:1047700020B210BD10B514F08FFD0400010002201E
:10478000FFF7C6FE002C0FD114F078F8084B094A49
:10479000A83318601368092B08DC591C1160064AFD
:1047A0005B00118D054AD15220B210BD1460FBE7A9
:1047B0000813002000110020FC1E0020061100201C
:1047C00010B514F0C1FD041E03D1054B1A6C054B46
:1047D0001A6021000320FFF79BFE20B210BDC046E7
:1047E000FC1E0020EC10002010B514F0BBFC431E92
:1047F0009841C0B210BD10B515F073FC002010BD7B
:10480000024B1B785A1E934103707047FA1E00201A
:1048100000220A4B10B50A490A481A7017F05EF9CF
:1048200014F02CF80100084817F058F9074817F061
:1048300055F9074817F052F910BDC046FA1E00207E
:104840007CC30100D9C30100E6C3010093C301008A
:10485000FDC3010010B515F073FB431E9841C0B2B3
:1048600010BD10B515F070FB431E9841C0B210BDCD
:1048700010B514F067FE10BD10B514F077FE10BD32
:1048800010B514F081FE10BD10B515F055F910BD2E
:1048900010B515F0F9F910BD10B515F009FA10BDF5
:1048A00010B515F019FA10BD10B515F0A9FA10BD24
:1048B00010B515F03DFA10BD10B515F045FA10BD54
:1048C00010B515F04DFA10BD10B515F05DFA10BD1C
:1048D00010B515F06DFA10BD10B515F073FA10BDD6
:1048E00010B515F079FA10BD10B515F07FFA10BDAE
:1048F00010B515F04FFB10BD10B515F067FB10BDDE
:1049000010B515F0C7FB10BD10B515F0BDFB10BDFF
:1049100010B514F009FE14F007FE124A124B917AFA
:10492000C9B21972D17AC9B25972517AC9B2D97160
:10493000D17BC9B25973917BC9B219735179C9B28C
:1049400019719179C9B259719178C9B29970D178B8
:10495000C9B2D970117BC9B29972527BD2B2DA72E4
:1049600010BDC04610200020F010002010B515F03A
:1049700071F910BD0020704770470120704710B5D5
:1049800015F0CEF9012010BD10B515F083FC012003
:1049900010BD10B515F082FC012010BD10B515F04A
:1049A000C3F9012010BD10B515F0B4FB10BD10B552
:1049B00015F0CAFB10BD10B515F0E2FB10BD10B527
:1049C000C04615F0FBFBC04610BD10B515F000FC4D
:1049D00010BD10B515F00AFC10BD10B515F00CFC9B
:1049E00010BD10B515F014FC10BD10B515F016FC77
:1049F00010BD10B515F006FC10BD10B515F014FC77
:104A000010BD10B515F016FC10BD0000F0B5384C07
:104A1000059EE57C002D05D10127E560E774A560C2
:104A2000A77416E0A77C0578012F30D1002D01D0A6
:104A30000025A5600D78002D01D00025E5602D4DE5
:104A4000A768AF4206D9E768AF4203D90225A5742B
:104A5000013D1D700378002B23D1A3680133A360AF
:104A60000B78002B1FD1E3680133E360637C002BDC
:104A70001BD10121617402216360217433701278AB
:104A8000002A2FD12368626001332360F0BD002D1E
:104A900002D10D78002DE0D000250127E560A5604A
:104AA000BEE70023DBE70023DFE7FA20257C11784F
:104AB00064234000012D09D1002901D0002121608B
:104AC00021684B438342DAD90023D4E7002900D17F
:104AD000616061684B438342D1D900232360013375
:104AE0002374CBE700232360636801336360CDE761
:104AF0001C110020E0A50100014B18607047C04662
:104B00003011002070B505000E001400002805D0FB
:104B10001378012B02D0FFF741FF3070257070BD74
:104B20000022054B5A701A70DA719A715A711A7113
:104B3000DA709A707047C04644110020F0B585B015
:104B400003900020624F0E7801917B79864203D05A
:104B5000F01A431E9841C0B200245E4B5E4D5A1CB1
:104B6000691CFFF7CFFFA64203D06C78631E9C41FF
:104B7000E4B20020039B1E78BB79864203D0F01A72
:104B8000431E9841C0B2534A2900FFF7BBFF002CD7
:104B900004D1002E4CD02B78002B49D0FD786E1C10
:104BA000F6B20A2E00D900263B795A1CD2B25C1FFD
:104BB000029262425441E4B2052B07D1454BDB79A6
:104BC000012B03D0FFF7DBFE434BD870414AD47171
:104BD00000240A2D0ED1404BDB78591E8B41DBB2ED
:104BE000DCB2002B06D09379012B03D0FFF7CCFE6B
:104BF000394B9870374B9C710024019B1B78A34262
:104C00000ED00A2D0CD1344B9B785A1E9341DCB246
:104C1000002B05D02F4B5B79012B01D0FFF7B9FE9C
:104C20002C4BFE705C71029B052B4DD900233B7110
:104C30003B785E1CF6B20A2E00D900261C000A3C06
:104C400062425441E4B20A2B05D1224B1B79012B5D
:104C500001D0FFF791FE1F4B1C717B785D1CEDB2FC
:104C6000012D00D900255C1E62425441E4B2012BA3
:104C700005D1184BDB78012B01D0FFF77EFE154BD9
:104C8000DC70BB785C1CE4B2142C00D900241A0040
:104C9000143A51425141CAB20292142B05D10D4B24
:104CA0009B78012B01D0FFF765FE6A46094B127A0B
:104CB0009A70019B1B787B71039B1B783E70BB71C4
:104CC0007D70BC7005B0F0BD6B461B7AAFE7C04687
:104CD000381100204411002034110020014B1860CD
:104CE0007047C0464011002010B504230C00044A50
:104CF000044905F001F80449FCF790FC206010BD60
:104D00000CC6010058C401005DF48445002030B594
:104D10000A4B0B490B4C0C4D186359639C64DD64C2
:104D2000002000210024094D9863D9631C655D654E
:104D3000186459649865D96530BDC0469811002043
:104D400000004940535BDA3A584C09400000594092
:104D5000F0B5E74CA5441993E64B179119001D9245
:104D60001A001C9079310878989D7832002801D07B
:104D700000F02AFE01230B70DB18137000200021C5
:104D8000DD4B9861D96118625962DC48DC491861D1
:104D900059610020DB499862D9622B68002B01D051
:104DA00000F03CFED34A136F01331367D64B1A68E9
:104DB000D64BD2685B689B009B58002B21D1CE4913
:104DC000CC4C0A694B6922606360529253938A69A2
:104DD000CB69A260E360549255930A6A4B6A2261E0
:104DE0006361569257938A6ACB6AA261E3615892D3
:104DF0005993179B1888FEF7E3FE206261622090AA
:104E000021912868FEF79AFEC14AC24BFEF7ACF822
:104E10009A9B040018780D00FEF7D2FE02000B00EA
:104E200020002900FDF76CFCB34B18605960999B7A
:104E300000201A000E320024195F023340189A42F3
:104E4000F9D100B2072104F0EDFDAB4B1887AE4B52
:104E50001A68AE4BD2685B689B009B58002B01D050
:104E600000F08AFDAC4804F0E5FCA24DAB4AAC4B27
:104E7000286B696BFEF778F802000B00629263936F
:104E800080231B06C9186A906B91A44AA44BA86B97
:104E9000E96BFEF769F802000B00649265938023CA
:104EA0001B06C9186C906D919C4A9D4B286C696CCF
:104EB000FEF75AF802000B006692679380231B06E8
:104EC000C9186E906F91954A954BA86CE96CFEF7E6
:104ED0004BF8AE6DEF6D0B000200229223930B0096
:104EE00002006892699380231B06C9182B6D6C6DB4
:104EF0000693079462AB709071910A9372AC04931D
:104F00000499069A079B08684968FDF7E9F8049B2D
:104F100032001860596004993B008868C968FDF741
:104F2000DFF8049B9860D96010330493A342E7D163
:104F300062A804F07FFC4A904B9166A804F07AFCCA
:104F40004C904D916AA804F075FC4E904F916EA85C
:104F500004F070FC509051916F4804F06BFC060017
:104F60000F0002000B004A984B9924962597FEF7F4
:104F70007BFA32003B00FDF7B3F800220690079160
:104F8000002330003900FDF7EFFF002204000D0080
:104F900006980799634BFDF7E7FF02000B0020001E
:104FA0002900FDF79DF8320004000D004C984D9942
:104FB0003B00FEF759FA32003B00FDF791F8002262
:104FC000584B0C900D91FDF7CFFF22002B00FDF701
:104FD00087F8320004000D004E984F993B00FEF711
:104FE00043FA32003B00FDF77BF800224D4B109056
:104FF0001191FDF7B9FF22002B00FDF771F8320087
:1050000004000D00509851993B00FEF72DFA320034
:105010003B00FDF765F80022424B12901391FDF71B
:10502000A3FF22002B00FDF75BF802000B000890A5
:10503000099106980799FEF717FA00223A4B0400E7
:105040000D00FDF791FF02000B00069007910C98F0
:105050000D9942924393089A099B4A944B95FEF707
:1050600003FA0022304B06000F00FDF77DFF02001F
:105070000B004C964D970C00050044924593089AFE
:10508000099B10981199FEF7EFF90022264B0600B4
:105090000F00FDF769FF02000B0010910C90469283
:1050A000479312981399089A099B4E964F97FEF7CB
:1050B000DBF900221C4B1A901B91FDF755FF069A55
:1050C000079B1E921F93E623640064084890499151
:1050D00000225B0528002100FBF780FF0022061E4E
:1050E00001D100F0A0FC114B2692279320E0C0468E
:1050F000B4FDFFFF981100205811002048AFBC9A62
:10510000F2D77A3E000024404C11002050110020BC
:10511000FCA9F1D24D62503FE8110020CD3B7F66E3
:105120009EA0F63F0000D03F0000E03F0000F03FAF
:10513000109B0C9E5F007F0832003B00280021007E
:10514000FBF738FF002801D100F07DFC32003B0066
:1051500028002100FDF7D4FA269A279B04000D00B1
:10516000FDF702FF22002B00FDF7FEFE0022CD4BD3
:10517000FCF7B6FF26902791499C489D640064087F
:105180002A00230030003900FBF714FF002801D16A
:1051900000F06FFC2A00230030003900FDF7B0FA60
:1051A000269A279B06000F0022962397FDF7DCFE28
:1051B00032003B00FDF7D8FE0022BA4BFCF790FF0F
:1051C000269027912698279916F0C8FE02000B001A
:1051D00028002100FDF7C8FE04000D000022002376
:1051E00026942795FBF7E0FE002800D01EE14298A8
:1051F000439922002B0005F087FB02000B000500FD
:10520000269227930C004298439900220023FBF733
:10521000EFFE002804D080231B06E418269527946F
:10522000279B269D5C001893D42300229B04280012
:105230006108FBF7BFFE002801D100F066FC469B29
:10524000449C0693479B459E0C93489A499B129217
:1052500013931E9A1F9B1492159300231093109B77
:1052600000220133109320008F4B3100FDF77CFEAC
:1052700000228D4B04000E0006980C99FDF774FE79
:10528000002206900C91884B12981399FDF76CFE42
:10529000002212901391844B28001899FDF764FEA8
:1052A00000220F00050018917F4B14981599FDF707
:1052B0005BFED4237F001490159100229B042800EC
:1052C0007908FBF777FE002802D0109B142BC6D17B
:1052D000149A159B1E921F9322003300449245930B
:1052E000069A0C9B750046924793129A139B48921C
:1052F0004993E62300226D085B05200029002292D5
:105300002393FBF76BFE0022002801D100F0C9FBBC
:10531000644B2692279322002B0022922393229EF5
:10532000239F0C9B32005C0064083B000698210020
:10533000FBF754FE002801D100F0C0FB069A2300C1
:1053400030003900FDF7DCF9269A279B06000F0094
:10535000FDF70AFE32003B00FDF706FE0022514B2E
:10536000FCF7BEFE2300069A2690279122922393F3
:10537000229E239F499B489C5D006D080693320046
:105380003B0020002900FBF729FE002801D100F096
:10539000A9FB22002B0030003900FDF7B1F9269A55
:1053A000279B06000F00FDF7DFFD32003B00FDF7F5
:1053B000DBFD00223B4BFCF793FE22002B002690E6
:1053C000279122922393269827991E9C1F9D16F0C1
:1053D000C5FD229A239BFDF7C7FD02000B002000AC
:1053E000290005F091FA02000B0005002692279390
:1053F0000C001E981F9900220023FBF7F9FD0028DE
:1054000004D080231B06E4182695279400242698B0
:105410002799D42300229B04FDF7A6FD109B01349D
:105420009C42F6D1269027911E901F91089A099BC5
:1054300024982599FEF718F80B0022A902911EA9BD
:10544000019126A9020000911E981F9905F0B4F958
:10545000164B62AC196D5A6D069107929E6DDF6D09
:10546000069A079B20686168FDF7FEFF3B002060FD
:105470006160A068E1683200FDF7F6FF049BA06060
:10548000E16010349C42EBD14A9B4B9C0493059401
:105490004C9B4D9C069307944E9B4F9C0C930D94F4
:1054A000002405E00000F03F0000907C98110020EF
:1054B000049805990A9B1A685B68FDF755FD002260
:1054C0000023FCF70DFE0A9B06001A695B690F00BA
:1054D00006980799FDF748FD02000B0030003900DF
:1054E000FCF7FEFD0A9B06001A6A5B6A0F000C9827
:1054F0000D99FDF739FD02000B0030003900FCF773
:10550000EFFD0A9B06001A6B5B6B0F001A981B9944
:10551000FDF72AFD02000B0030003900FCF7E0FD2A
:1055200032AB1B19186059602AAB1D190022E34BDE
:10553000FDF71AFD0A9B08340833286069600A9356
:10554000102CB5D1229823990022DD4B1E901F917B
:105550003092319305F0D8F902000B000500249237
:1055600025930C002298239900220023FBF740FD8D
:10557000002804D080231B06E41824952594D42306
:10558000259D249C6E0000229B0420007108FBF7DF
:1055900011FD002800D1BDE2309A319B04920593A1
:1055A0001E9A1F9B0692079300231F0004980599DB
:1055B0003B00013300221F00C24BFDF7D5FC002247
:1055C00004900591BF4B20002900FDF7CDFC0E0093
:1055D00004000022BB4B0D0006980799FDF7C4FCA0
:1055E00073009C46D42366460690079100229B04D4
:1055F00020007108FBF7DEFC002801D0142FD5D164
:105600002200069807992B0024922593049B059C61
:1056100030933194069B079C1E931F94049A059B1C
:1056200005F072F902000B000500249225930C008E
:105630001E981F9900220023FBF7DAFC002804D0F3
:1056400080231B06E418249525940024249825998A
:10565000D42300229B040134FDF786FCBC42F7D121
:10566000249025911E901F91089A099B20982199BA
:10567000FDF7FAFE2A9B2B9C209021911E981F99E2
:1056800032AA329333942C9B2D9C0493059434932B
:10569000359406F091FF1E981F99329B339C2AAADD
:1056A0002A932B94349B359C049305942C932D942E
:1056B00006F082FF1E9E1F9F834C3000A26BE36B9F
:1056C00039000692079322922393226463642A9AF4
:1056D0002B9BFDF749FC02000B00049005912E92D4
:1056E0002F932C9A2D9B30003900FDF73DFC266B43
:1056F000676B02000B0030923193002200230A9066
:105700000B91A263E36330003900FBF74DFC0028E6
:1057100001D000F023FEA06CE16C00220023FBF717
:1057200043FC002801D000F019FE049805993200CE
:105730003B00FCF7E5FF02000B000E003E923F939A
:10574000049002000B00089106980799FDF70CFCE5
:1057500002000B000A980B99FDF786FEA26CE36C21
:10576000FCF7CEFF02000B0040924193E623049F1A
:105770007600760806900A9100220C005B0538003E
:105780003100FBF72BFC0022051E00D1C7E14F4B77
:1057900028922993069D640064083A00330028008B
:1057A0002100FBF71BFC002800D1C7E1069A23006B
:1057B00038003100FCF7A4FF289A299B06000F004F
:1057C000FDF7D2FB32003B00FDF7CEFB00223F4B42
:1057D000FCF786FC289029912898299916F0BEFBA1
:1057E0002A002300FDF7C0FB04000D000022374B08
:1057F00028942995FBF7FCFB0C90002801D000F0C1
:10580000ADFD22002B0020002900FDF7ADFB0200BA
:105810000B0000202D49FDF727FE16F09FFB3CAB47
:1058200028AF019338AB0093069A0A9B029704F0C5
:10583000C3FF28982999002200233AAD36AC409244
:1058400041930297049A089B0195009404F0B4FFD9
:10585000002300223E923F930C9B3EAE049312968F
:1058600014951894049A129B9446140063440C9364
:105870001E685F6853001093109BE518124BED18DB
:105880002A6B6B6B0692079306980799149B1B195A
:105890001A685B6808920993189B1B191A685B6861
:1058A0000A920B93FDF760FB32003B001A901B91AC
:1058B00008980999FDF758FB0AE0C0460000D03F60
:1058C000000024400000907C981100200000F03F70
:1058D00002000B001A981B99FDF7C6FD32003B0031
:1058E000286369630A980B99FDF73EFB089A099BA8
:1058F00006000F0006980799FDF736FB083C0B00E1
:10590000020039003000FCF7EBFB230006000F001B
:105910000833B1D10C9B1E605F60049B0833049375
:10592000102B9FD1209C219DCA4E306C716CB26BA4
:10593000F36BB063F163326473642A9A2B9B20008B
:105940002900FDF711FB326D736DFCF7C9FB2C9A32
:105950002D9B306571652A902B9120002900FDF761
:1059600003FBB26DF36DFCF7BBFBBB4BB065F165A0
:10597000B06AF16A9860D960B74B9868D968FEF749
:10598000A9F99C9BB54918601D9B1F689B9B1868D3
:10599000FCF734F8AF4C5A902200773213781E2B64
:1059A00001D801331370220076321378002B00D017
:1059B0001DE101211170A84A491850632200743278
:1059C000117077342370E6E1147828680021012CE7
:1059D0000ED1884200D019679E4BA14A196F91429F
:1059E00001D8FFF7DAF9022278331A70FFF7C6F907
:1059F000002801D1FFF7D6F9196701230020002103
:105A00001370954B9861D96118625962954896490F
:105A10001861596100209549FFF7BDF900228D4BAF
:105A20001A67FFF7C3F9924B28002100FDF79CFA93
:105A300002000B00FDF798FAE62426902791350026
:105A40006405FFF775FB2A00230030003900FCF7DE
:105A500057FE02000B00FDF787FA02000B002698A4
:105A60002799FCF73DFB2E00269027912700FFF792
:105A700083FB32003B0028002100FCF741FE0200BE
:105A80000B0022902391FDF76FFA02000B0026987D
:105A90002799FCF725FB3500269027913C00FFF75E
:105AA00091FB734B20003100FDF75EFA02000B0002
:105AB000FDF75AFA26902791FFF731FC32003B00A0
:105AC00006980C99FCF71CFE02000B00FDF74CFA3F
:105AD00002000B0026982799FCF702FB26902791DD
:105AE000FFF746FC32003B0020000699FCF708FE59
:105AF00002000B00FDF738FA02000B0026982799E8
:105B0000FCF7EEFA269027915DE42A00189B1E927E
:105B10001F938BE422002B001E921F93A4E5544B8D
:105B200004980899FDF720FA02000B00FDF71CFA13
:105B3000E626289029912F0076052BE63A003300BF
:105B400006980A99FCF7DCFD02000B00FDF70CFA41
:105B500002000B0028982999FCF7C2FA3D00289012
:105B60002991340038E680231B06E41828952994EF
:105B700000F08EFE089A099B30000499FDF774FC32
:105B80003200049BFCF7BCFD32003E903F91089828
:105B90000999049BFDF768FC02000B0000203349C3
:105BA000FCF7AEFD5C9A5D9BFDF7DEF935005C907D
:105BB0005D91049C00F09CFE069B01330693022B32
:105BC00001D000F0C9FD5A995B9A224B19635A63C0
:105BD000002100229963DA635E995F9A049105922D
:105BE00019645A646099619A9964DA649AE62500A6
:105BF00074352E78012E45D0022E00D161E39C9B96
:105C00001C491868FBF71AFA002800D1C3E0199B59
:105C10001B785BB2002B01D00023A3660D4C164B02
:105C2000A26E9A4200D8B6E00023E3662300012268
:105C300074331A70179B1888FCF70CFA0C230F4A60
:105C40000F4903F0E1FF00232066636675340223E9
:105C5000B8E6C04698110020581100207D219534E7
:105C6000CF07000048AFBC9AF2D77A3E0000F03F61
:105C7000000020630000A041B80B0000ECC401004C
:105C800008C401000025199B5D57012D46D09C9B3F
:105C90002D491868FBF7E6F9002848D0002D01D0FF
:105CA0000023E366294C2A4BE26E9A423FD9179BA8
:105CB0001888FCF7CFF927490C23274A03F0A4FFE3
:105CC000266E051C311CFBF7C3F9002826D0311CB9
:105CD000281CFBF7B3FF2149051C606EFBF78EFE05
:105CE000291CFBF79BFC5A9D041C1D49281CFBF733
:105CF00085FE011C201CFBF797F900280ED01949DE
:105D0000281CFBF77BFE011C201CFBF7A1F90028D7
:105D100004D0201CFEF7C8FD134B58630B4B002228
:105D2000190075319A660A70743303320AE0074C21
:105D30001C9A2300753319781278012916D1002A8C
:105D400029D102321A7026E00000A04298110020EA
:105D5000B80B000008C40100ECC401000000C842F8
:105D60009A99993FCDCC4C3F58110020002A12D06F
:105D700001221A70E04B5AA93820185EFEF7B4FFD2
:105D8000DE49381CFBF73AFE5A99FBF747FC616E77
:105D9000FBF7B2FA60660022199B9A56D84B002A8C
:105DA00000D0B2E29A6E01329A66DA6E0132DA6699
:105DB0009A9BD14C1878FCF74DF9011C606BFBF7EE
:105DC0002DFCD04B20631A68CF4BD2685B689B00D8
:105DD0009B58002B00D03AE22EA9CC4803F080FD5E
:105DE000C74CCB4ACB4B206B616BFDF7BDF8020073
:105DF0000B006292639380231B06C9186A906B9113
:105E0000C34AC44BA06BE16BFDF7AEF802000B0078
:105E10006492659380231B06C9186C906D91BC4AEF
:105E2000BC4B206C616CFDF79FF802000B00669282
:105E3000679380231B06C9186E906F91B44AB54BC7
:105E4000A06CE16CFDF790F8266D676D0B00020009
:105E5000229223930B0002006892699380231B0611
:105E6000C9187090A36DE46D71910493059472AD9F
:105E700062AC2068616832003B00FCF731F9049A9B
:105E8000059B20606160A068E168FCF729F9A060CB
:105E9000E1601034A542ECD172A962A803F020FDA4
:105EA00076A966A803F01CFD7AA96AA803F018FD7C
:105EB0007EA96EA803F014FD2EA9944803F010FDEE
:105EC0002E982F9900220023FDF74EF803000C00B6
:105ED00032933394309B319C069307940490059140
:105EE0000698079900220023FDF73EF806000F00F0
:105EF0003496359774AC84AD2100083900220868C7
:105F00004968854BFDF730F802000B0004980599AD
:105F1000FCF7E6F8002204900591206861687E4B4A
:105F2000FDF722F802000B0030003900FCF7D8F82A
:105F3000103406000F00A542DED1049B059C020030
:105F4000329333940B000698079934963597FDF7F2
:105F50008BFA0690079172AC82AD049A059B20687B
:105F60006168FDF781FA320020606160A068E16835
:105F70003B00FDF779FAA060E1601034AC42ECD14F
:105F8000729873990022654BFCF7EEFF0022829015
:105F9000839176987799614BFCF7E6FF0022849015
:105FA00085917A987B995D4BFCF7DEFF0022869005
:105FB00087917E987F99594BFCF7D6FF00228890F5
:105FC000899174987599554BFCF7CEFF00228A9001
:105FD0008B9178987999514BFCF7C6FF00228C90F1
:105FE0008D917C987D994D4BFCF7BEFF4B4B8E906D
:105FF0008F91809881990022FCF7B6FF0026002738
:1060000042AC90909191220062A982A804F06CF9B0
:10601000329A339B2E982F99A660E760FDF724FAF9
:1060200020AD0B0024A90200029401910095429832
:10603000439904F0C1FB209A219B0698079904928A
:1060400005932269636908920993249A259B0A9211
:106050000B93049A059BFCF787FF0A9A0B9B0C9005
:106060000D9108980999FCF77FFF02000B000C982E
:106070000D99FDF7F9F902000B000C900D910498B1
:10608000059922922393089A099BFCF76DFF0A9ABF
:106090000B9B0490059106980799FCF765FF020099
:1060A0000B0004980599FCF71BF848AB206161616F
:1060B00002931EAB00930195A069E1690C9A0D9BB8
:1060C00004F07AFB429A439B049205932092219319
:1060D000226963690692079306980799229223938F
:1060E000A268E3680892099324922593A269E36960
:1060F0000A920B9314E0C046581100207D2195347C
:10610000981100204C11002050110020E8110020AF
:10611000CD3B7F669EA0F63F0000D03F0000E03FF1
:1061200000227F4B4C964D974A924B93509251933D
:1061300032003B004E964F97FCF716FF049A059BE2
:10614000FBF7CEFF3200429043910A980B993B0037
:10615000FCF70AFF089A099BFBF7C2FF0022704B6D
:10616000A060E160049805991E921F9332003B00E5
:10617000FCF7FAFE069A079BFBF7B2FF320020619C
:106180006161089809993B00FCF7EEFE0A9A0B9BA7
:10619000FBF7A6FFA061E1614AA952A804F0F4FC54
:1061A000429A439B62A9729273934A9A4B9B72A83C
:1061B00076927793A268E368749275934E9A4F9B98
:1061C00078927993226963697A927B934C9A4D9B7A
:1061D0007E927F93A269E3697C927D93509A519B52
:1061E0000492059380928193220004F07DF84299F5
:1061F000439A4C4B19635A63216962699963DA6364
:106200003299339A19655A65A168E26819645A642B
:10621000A169E2699964DA643499359A9965DA6515
:106220002A9B2B9C0E930F940E980F9900223E4BA5
:10623000FAF7D4FE002800D06AE00E980F993200D9
:106240003B00FAF7B7FE002801D00E960F97374CA7
:106250003749606BFBF7D2FBFAF758FF9D9B354A35
:1062600018603823E15E0D230293334B9C98019311
:10627000324B334D00930068324B03F0EBFE291C88
:10628000041CFAF7E5FE9E9B002807D12E4D201C2A
:10629000291CFAF7C9FE9E9B00283ED01D602B4B9F
:1062A0001A682B4BD2685B689B009B58002B04D16B
:1062B0000E990F9A1B4B9962DA6293239B009D44BF
:1062C000F0BD230077331B781D2B00D863E59C9B22
:1062D00020491868FAF7B2FE002812D00023E366BE
:1062E00001332B70179B1888FBF7B4FE0C23114A5F
:1062F000194903F089FC0023206663667534267013
:1063000049E50323A0662B7045E500229A664EE519
:106310000023054C0E930F9499E71C60BFE7C0461D
:106320000000F03F98110020000059405811002053
:1063300000BA5B4AECC40100E4C4010088C5010056
:106340000060864558C401000000C8444C1100207C
:10635000501100200000A04108C40100DF4C226B56
:10636000636B1000A66BE76B190004920593FCF7B2
:10637000FBFD00220023FBF7B3FE320006900791DD
:106380003B0030003900FCF7EFFD02000B000698DF
:106390000799FBF7A5FE02000B000C900D9172927D
:1063A00073932E9A2F9B1000190006920793FCF707
:1063B000DBFD02000B0082928393226C636C0892D7
:1063C0000993A36CE46C10901191049805990A93B9
:1063D0000B94089A099BFCF7C7FD00220023FBF7EA
:1063E0007FFE0A9A0B9B04000D0030003900FCF779
:1063F000BBFD02000B0020002900FBF771FE309E60
:10640000319F03000C00320076937794049005913D
:10641000069807993B00FCF7A7FD03000C00849346
:106420008594049B059C7493759403000C0006905E
:10643000079186938794089A099B10001900FCF72E
:1064400093FD00220023FBF74BFE0A9A0B9B0400EE
:106450000D0010001900FCF787FD02000B00200062
:106460002900FBF73DFE03000C000890099178938A
:10647000799432003B0030003900FCF775FD109A2A
:10648000119B06000F00889689970C980D99FCF7D0
:10649000EBFF069A079B04000D00049805995A9497
:1064A0005B95FCF7E1FF32005C905D915E905F913F
:1064B000089809993B00FCF7D7FF60906191200094
:1064C000290004F0A5FA002800D010E15A985B9941
:1064D00004F0BEFA002800D009E15C9B5D9C180026
:1064E00021000493059404F093FA002800D0FEE004
:1064F0005C9B5D9C180021000493059404F0A8FAAD
:10650000002800D0F3E05E9B5F9C180021000493FC
:10651000059404F07DFA002800D0E8E05E9B5F9CC3
:10652000180021000493059404F092FA002800D08A
:10653000DDE0609B619C180021000493059404F049
:1065400067FA002800D0D2E0609B619C180021000F
:106550000493059404F07CFA002800D0C7E072ABE5
:106560003AAA82A95AA804F0FBFB3A983B9915F085
:10657000F5FC00240023829083913C983D998493FC
:1065800085948693879415F0E9FC829E839F03008F
:106590000C0088938994729B739C06930794849B48
:1065A000859C0490059108930994769B779C300014
:1065B0000A930B94069A079B3900FCF7D5FC00223E
:1065C0000023FBF78DFD0A9A0B9B04000D00089831
:1065D0000999FCF7C9FC02000B0020002900FBF719
:1065E0007FFD02000B003D4C0C900D912263636314
:1065F000749A759B10921193789A799B300012923D
:106600001393109A119B3900FCF7AEFC0022002373
:10661000FBF766FD129A139B06000F000898099974
:10662000FCF7A2FC02000B0030003900FBF758FD1C
:10663000869E879F02000B00089009910698079993
:106640002264636432003B00FCF78EFC00220023CE
:10665000FBF746FD0A9A0B9B069007910498059953
:10666000FCF782FC02000B0006980799FBF738FD47
:1066700002000B0006900791A263E3631098119942
:1066800032003B00FCF770FC00220023FBF728FDE2
:10669000129A139B06000F0004980599FCF764FCFE
:1066A00002000B0030003900FBF71AFD06000F0056
:1066B000A664E76400240A4D2101A31C083112934B
:1066C0004919022B0ED10868496800220023FAF705
:1066D0006BFC002800D13EE104E0C0469811002088
:1066E000C81100200134012CE6D0FFF71BF9A54B9F
:1066F0001A685B683A923B933C923D937292739313
:106700007492759376927793789279932DE700241B
:1067100001235AAD36AF01932A0002332100300025
:106720000297009506F00CF88020000603238446AB
:10673000089903936144023B009302950B00019773
:10674000049A2100300006F03DF8289B299C5A93BA
:106750005B94069B01330693069B002B01D0FFF749
:106760002BFA002200233E923F935D9B5C9F5E00CC
:1067700076089C463A0033003800289229936146F7
:10678000002200235A9D5B9CFAF70EFC002800D0E3
:10679000AEE03A0033002800210004F0B5F8020012
:1067A0000B00289229935A9A5B9B08920993070041
:1067B0000E000898099900220023FAF719FC002816
:1067C00004D080231B06F61828972996299B289E1B
:1067D00004935B009C46D423674600229B04300050
:1067E0007908FAF7E7FB002801D1FFF7C3F95C9BB2
:1067F0002F000A935D9B08940C9300231093109B29
:106800000022013310930A985F4B0C99FCF7ACFB04
:1068100000220A900C915C4B30000499FCF7A4FB19
:1068200000220C0006000491574B38000899FCF731
:106830009BFBD42364000700089100229B043000D6
:106840006108FAF7B7FB002802D0109B142BD6D1B1
:106850003200049B3800289229930A9A0C9B5C9280
:106860005D930C9B0A9A59004B08089904F04CF868
:10687000002205000C00002338000899FAF7B8FB45
:10688000002801D0FFF76FF92A00230028922993EE
:10689000289D299C3A00089B28002100FCF7E4FD74
:1068A0002A002300FBF72CFF2A003E903F91230093
:1068B00038000899FCF7D8FD02000B00002033498E
:1068C000FBF71EFF02000B005C985D99FCF74CFB88
:1068D00000265C905D91D42328009B0421000022B7
:1068E000FCF742FB109B013605000C009E42F2D1E2
:1068F0002A002300289229930022244B5A925B936A
:106900003E9B002204933F9B049808930899002320
:10691000FAF74AFB002800D017E75C985D9900223F
:106920000023FAF741FB0126002800D1129E129C99
:10693000751CA54200DAEAE65AABE10059180022BC
:10694000086849680023FAF72FFB002801D00134BA
:10695000EFE70124DCE60C9B0D9C5A935B94069BAD
:10696000079C5C935D94089B099C5E935F94002355
:106970000024609661973693379438933994069043
:10698000EAE6C046001600200000907C0000F03FC0
:10699000F8B51E0017000D000400082004F00EF8E2
:1069A000034B1F605E60034B1D60034B1C60F8BD12
:1069B000501100204C110020181200200122024B1F
:1069C000DA711A727047C0461C12002010B5244CB0
:1069D00023685A1C01D001332360A379002B0CD10A
:1069E0000122A271921822710B706271200008308E
:1069F0002360FDF7ADFDE07110BD2379012B0CD1B3
:106A00000B700278002AF7D00222227100220A704D
:106A100063712260FDF7D0FDEEE700230B70637910
:106A2000012B0ED10378002B03D1022363710023C5
:106A3000DCE723681D2BDFD901236371002323606A
:106A4000E8E7E379002BF7D1237A002B03D0236802
:106A50001D2BD1D9E9E76371012323710B70CBE7BB
:106A60001C120020014B18607047C04628120020FD
:106A7000F0B5ABB0329C1AAFA4460C6800946446E3
:106A8000009D256009680E000021B14248DB00210D
:106A90008B4200D011886346009A09255A60002273
:106AA00012A81AAC009B9A4242DB6346009A02A8E5
:106AB0009A6000231A0000998B4243DB6B46002149
:106AC0001B7812AA994240D1CF1EB94200D20027AA
:106AD000030000241AAA1D1AAF423ADC6346009A4A
:106AE0000AA8DA6000231A00009CA34251DB0023AD
:106AF0000AAA994250D14A1E914200D20022002394
:106B00001D000AA91AAC93424BDB319B009A0AA8DC
:106B10001A606346D96800238B4259DB2BB0F0BD65
:106B200000254C00AB4200D0055B3D530131ACE782
:106B300053001B5B5B1A9BB29D429B415B4213540B
:106B40000132AFE7C2540133B5E78C5C44540131E4
:106B5000B8E700255D57012D14D101255D57012DA2
:106B600010D102255D570195012D0BD1558816884E
:106B7000B5420ADD9688B54207DD6D462D791C7059
:106B80005D709C7001330232A5E701255C709D7039
:106B9000F8E71A540133A7E702A8185C98540133A8
:106BA000A7E7585601280FD10126C8188657019625
:106BB000012E09D15F00E61976883F5BB74205D800
:106BC0006E4636795D54467001339CE74570FBE7AD
:106BD0001A56541EA241309CE25401339CE7000037
:106BE0000122024BDA700023036070472C12002050
:106BF000F0B585B01C000B9B0A9D1E880C9B12787B
:106C00001B782F8852B2002B0BD0002A08D13B4BA7
:106C10009C461300674509D9394AB2425B4105E0F9
:106C20000023013202D1354A9742F5D8109A1370E9
:106C3000344A93781E2B01D8013393705378002B7C
:106C400013D101245470032493700F9B14700432E9
:106C50001B7802920E9A01920D9A00922A00FFF779
:106C600007FFFDF751FE05B0F0BD1378012B18D0DA
:106C7000022B3CD09378012BF5D92378012BF2D14C
:106C8000109C2678D478A642EDD10B9C2E882488BF
:106C9000A41B222CE7DD0F9C23700133137023000B
:106CA0001AE02378002B04D100230F9A1370154AA1
:106CB000C9E7012BD7D19378132BD4D9109B1C781B
:106CC000D3789C42F0D10B9B2C881B881B1B092B73
:106CD000EADD022313700F9B04321B7802920E9A96
:106CE00001920D9A00922A00FFF7C2FEBBE7012332
:106CF000137000239370FDF703FEB4E7730E0000DA
:106D0000361000002C120020014B18607047C0465E
:106D1000401200200122024B1A745A749A74704770
:106D200044120020F0B585B002930A9B03921A78B2
:106D3000050001910C9E0D9F9A4B002A00D115E190
:106D400001221A75DA7A7E2A01D80132DA72954C5C
:106D5000A37A002B14D10133A3720333637238007A
:106D6000FDF7A6FD60743000FDF7A6FDA0740B983A
:106D7000FDF7AAFD20740E98FDF7A2FDE07411E066
:106D8000607A0138032827D8F9F772FF02021D2222
:106D9000019B1B78002B05D10123E373043363723D
:106DA0000023E3727F4CA37B7E2B01D80133A373B6
:106DB000637B002B00D077E0012262730322A37370
:106DC000227305B0F0BD0023E37305226272E8E789
:106DD0002369002BF9D0C2E72B680021181C00930F
:106DE000FAF71CF9002800D0C2E000210098FAF759
:106DF0002FF9002827D0012363722C683068FBF735
:106E000029F9211CFAF778FA9F21C905071CFAF71E
:106E10000BF9002813D0381CFAF778F93060029B80
:106E20001868FBF717F9011C201CFAF7F7FB0E9BFB
:106E3000011C1868FAF760FA0E9B1860B2E701238C
:106E40005B423360EBE700210098FAF7EDF8002889
:106E500000D18DE00223637280232C681B06386802
:106E6000E618FBF7F7F8211CFAF7E8FE9F21C905A1
:106E7000041CFAF7D9F8002812D0201CFAF746F9BA
:106E80003860029B1868FBF7E5F8011C301CFAF724
:106E9000C5FB0B9B011C1868FAF72EFA0B9BCCE77D
:106EA00001235B423B60ECE7227B012A32D0019B4D
:106EB0001B78022A31D0002B37D000212868FAF73E
:106EC000B3F8002831D00223237329682068FAF729
:106ED000B5FE8023206028681B063349C018FAF7E6
:106EE0009DFB9E21C905051CFAF79EF800281AD0C3
:106EF000281CFBF73FF8FBF75DF8039B1968FAF7CE
:106F00007DFD8321C905FAF779FD6168FAF7F4F987
:106F1000606056E70023237250E7002B00D050E753
:106F2000012222724AE72148E5E7A37B632B00D8C0
:106F300047E70823E356012B00D042E723731C499F
:106F40002068FAF76BFB2060FDF7D2FC00220221DB
:106F5000184803F0CBFD011C6068FAF75FFB606026
:106F6000FDF7CAFC0023236063602AE71A7528E74F
:106F70000C4BDA7A632A00D814E7DA7B002A00D1B6
:106F800010E703225A723868FDF7A2FC3068FDF75B
:106F9000A3FC0B9B1868FDF7A3FC0E9B1868FDF77C
:106FA000A3FCFFE64412002000007A44FFFFFF7FAD
:106FB00000BA5B4A00C40100014B18607047C0462C
:106FC0005C12002010B52E4B5A7C002A1FD10124E0
:106FD0005C7403249A605A601C740A700268312A37
:106FE00045DC1A6801321A600268642A41DD5A6879
:106FF00001325A60026864323DDA9A6801329A605E
:107000000268313239DBDA680132DA6010BD1C7C8B
:107010000268012C0ED0022C15D0643201DB002254
:107020009A609A68322A14D90022DA6002321A74FD
:10703000013AD2E7312A01DD00221A601A68322AA9
:10704000CCD90022C5E7313201DA0022DA60DA68F1
:10705000F5E70268642A01DC00225A605A68322A85
:10706000BCD900221A6001321A74FE32B5E7002240
:10707000B9E70022BDE70022C1E70022C5E7C0460C
:1070800060120020014B18607047C0467412002047
:107090000122024B9A71DA711A727047781200203D
:1070A000F8B5424C06002068079D471C01D001300E
:1070B0002060607900280AD10123052263712271C2
:1070C00020602870E371FDF7C5FAE0713EE0207999
:1070D0000138032859D8F9F7CBFD02183A55012099
:1070E00028701B78002B03D1069B1B78002B2DD01A
:1070F000032323710023236001332372128809685C
:107100003068FDF7AFFA207220E002212970A279E1
:10711000002A10D0642320684343254883420AD9BB
:107120000023217123600133A371FDF797FAFDF766
:1071300093FAA0710AE02368092B07D9002A05D128
:1071400004232371013B2B70FDF790FAF8BD237ADD
:10715000002B05D0642027687843164FB842C9D861
:10716000069A1278002A06D0002BEFD1089A1370E5
:107170000123237107E0002BE8D102222360227152
:107180002A70D0E703232B70E0E700222A70E3790E
:107190009342EDD0642321684B4305498B42D5D9F6
:1071A000052322602371043B8CE7C046781200203F
:1071B000E7030000B70B0000014B18607047C046A2
:1071C000841200200023F0B53548364CB3B0C15AC4
:1071D000E218023311820E2BF9D1334D2000290021
:1071E0002B002A00483144334032103000912F499F
:1071F00002F0AAF921002E482231FFF7E7FB2D4EBD
:107200002D4A3388106801211A00814237DBA281A0
:10721000012282423BDBE3811022A35E00211A009F
:107220006018408A071C00B2904200DD171C023132
:107230003AB20C29F4D1E2830022A118498A081C31
:1072400009B2994200DA181C023203B20C2AF4D1B6
:107250002100200023312230238401F0DFFE174B70
:10726000997F00292CD1012219619A775A77AC367F
:107270003278511E8A4121002D310A7033E04F00CF
:10728000F75B974200D2171CBAB20131BDE751003B
:10729000775A391C9F4200D9191C8BB20132B8E7CA
:1072A0002420002088120020C4130020B0130020E6
:1072B000B513002008130020C0130020B8120020CE
:1072C0005A7F012A00D06DE1221DD27F002A01D011
:1072D00000221A611A69312A05D902225A7722003E
:1072E00000212D3211700434E27F002A00D068E1C1
:1072F0001A690132D64ED74930001A61FFF762FE93
:1073000028003A3025902800393024902800383061
:107310002390280037302290280036302190280012
:1073200035302090280034301F90280033301E90D4
:10733000280032301D90280031301C902800303059
:107340001B9028002F301A9028002E30199028000A
:10735000C14C2D301890200024301690BD4831AF1C
:10736000159020002D301490BC4817971390BC48FE
:1073700023001290BB4822001190BB4821001090BE
:10738000BA480E330F90BA480C320E90B9482231E9
:107390000D90B9480C90B9480B90B9480A90B9487B
:1073A0000990B9480890B9480790B9480690B9487B
:1073B0000590B9480490B9480390B948029020005C
:1073C0002030019020001E300090300000F05EFF61
:1073D0000021286CF9F722FE0123002803D03B7816
:1073E0005A1E9341DBB2AF4D2A002C321370AE4BC4
:1073F0005A7E002A00D0E6E0012159764918197614
:1074000023002A331A7023002A331B78002B18D04C
:10741000221D0692220008320492A44A2B000392F5
:10742000A34A210002922200200010325E33019212
:107430000E312330059400969E4AFDF789FC63685F
:107440006B62A2689C4B20681A60FAF703FE954FA6
:107450009A4B39005C31186006913900924D5D31CC
:1074600005912900203104919549230002912100C2
:107470000C31019121003A00924E0E3122335E32DE
:107480000091039790493000FFF7B2FB8F4B2A6AB7
:107490001A603300AC331A780123002A05D1330077
:1074A000A5331B785A1E9341DBB2BD2202A95218A4
:1074B000137023002100380025330593844B2231BB
:1074C0000493844B5E300393834B844A0293844B32
:1074D0000193844B00935E4B00F072FB3300AC339E
:1074E00018780121002805D03300A23319784B1EEB
:1074F0009941C9B2BE2202ABD2182F9201230028B3
:1075000004D0A33633785E1EB341DBB2BF2602AA95
:10751000B61833702E7F002E65D12B229446A444DA
:10752000012762462F77AF761670EF7625002C354F
:107530002E705D4D002900D086E0AA68511CA9601C
:10754000002B00D082E0EB680133EB6001230028C0
:1075500005D05C4B9C331B78591E8B41DBB22F9AB4
:10756000250026002100137023002B3627312C35EF
:107570002633009130002900FDF748FA3378514A4C
:10758000002B07D12B78002B04D10834E37F002B8C
:1075900000D1F9E11300AC331B78002B00D1A3E03C
:1075A0000023F2E1AC363278002A00D19BE6221D9E
:1075B000D27F002A00D19BE600221A6101325A775D
:1075C00059E6002296E61A7E012A00D11BE7221D09
:1075D000D27F002A00D116E7E289012A00D812E7FB
:1075E00001221A760CE7AE7E012E11D1002906D0B9
:1075F0000027AF600237AF7627002B373E70EE7E54
:10760000012E13D1002B94D00027EF6002378CE7B6
:10761000002901D00026AE60AA680C2AEFD9012605
:10762000AE76260000272B363770E8E7002B01D016
:107630000026EE60EA680C2A00D87AE70126EE768A
:10764000250000262C3573E7002178E700237CE72E
:10765000EC1000202214002088120020FE100020D0
:10766000FD100020FC100020FB100020FA1000206C
:10767000F9100020F8100020F7100020F61000206C
:10768000F5100020F4100020F3100020F21000206C
:10769000F1100020F0100020A8130020A7130020F4
:1076A000BC1E0020C4130020B8120020E8120020E5
:1076B00048130020B81E0020B41E0020B01E002079
:1076C000BD13002008130020C01300203C1400202C
:1076D000BC130020BB130020BA130020B5130020F8
:1076E000B8130020B71300201100A6310978481EF6
:1076F0008141BE2002AC00190170002B08D111009D
:10770000AC310978002903D1B73213785A1E93415E
:10771000A04DBF242E0002AAA418773623702C9601
:107720002E0076362B962E0075362A962E0074364D
:1077300029962E00733628962E00723627962E0034
:10774000713626962E00703625962E006F362496BA
:107750002E006E3623962E006D3622962E006C3645
:1077600021962E006B3620962E006A361F962E002C
:1077700069361E962E0068361D962E0067361C96BA
:107780002E0066361B962E0065361A962E0064363D
:1077900019962E00633618962E00623617962E0024
:1077A000613616962E002B0060361596BE272E00E9
:1077B0001394794C2F339C46119402AB774C2036AE
:1077C000FF18149612971094754C2A000F94754C5C
:1077D0002900260025360E96BD26F6180D962600A1
:1077E00022360C962E005E360B962E003A360A96FE
:1077F0002E00393609962E00383608962E00373678
:1078000007962E00363606962E00353605962E0043
:10781000343604962E00333603962E003236029606
:107820002E00313601962E002800303663462E3267
:107830002D312C30009601F051FC2A002E0023003F
:1078400028320192584A24360E3300923100574AAA
:10785000574802F011F9290020003C31083000F0AF
:10786000B5FA2B00583304932B00543303932B00A9
:10787000503302934C4B4C3500930195230032005A
:107880004B494A48FFF74EFA4A4BAC331B78002B62
:1078900004D0E31DDA7F0123002A03D1464B9B7DF0
:1078A0005A1E93413B4D444E280031005E30173143
:1078B000424A3B7000F02AF9414B320002932B0000
:1078C0005F3301933D4B1432301D009331003B0078
:1078D000FFF7E6FB3B482B00129020000830119088
:1078E000280020301090384822000F90374821009F
:1078F0000E9028003A300D90280039300C90280066
:1079000038300B90280037300A9028003630099024
:107910002800353008902800343007902800333094
:10792000069028003230059028003130049028005D
:107930003030039028002F30029028002E30019024
:10794000BD202D35009502AD2C3323322531401951
:1079500000F0DCFA210020002C312B30FDF7EEF88E
:1079600023681B4A7360A3683360E3890534B382DC
:10797000E37FB375124B1B78F37593680133092BC2
:1079800005D8936033B0F0BD01231900B1E60023A0
:10799000F7E7C046C4130020A5130020EC10002018
:1079A000C01E002088120020B2120020B81E002045
:1079B000AB12002008130020B8120020B0120020E3
:1079C000B1120020BE130020B6130020B513002012
:1079D000DC120020022370B50026434C434D8EB0CC
:1079E0002B602000231DEB606E60AE60FFF73AF85D
:1079F0002000FFF7E1FB2000FFF786F92000FFF7EA
:107A000041FB2000FDF778F8200002F0F7F8200095
:107A100001F002FF200001F053FB200000F004FA07
:107A20002000FDF75BF92000FFF7C6FA200000F008
:107A3000BBF8200000F0D4FB200001F0D3FA2000B6
:107A400000F0BEF9200001F073FD29002000320093
:107A50000123FEF79DFF264B1A68264B1A60FEF79E
:107A6000ADFF01F0C5FA244804003A340A9404003A
:107A700039340994040038340894040037340794E6
:107A8000040036340694040035340594040034347C
:107A90000494040033340394040032340294030049
:107AA00002000100040030300090372031342F33C1
:107AB0002E322D316844019400F098FBFDF726F931
:107AC0000E482030FFF78CF800F074F801F0FEFA51
:107AD000FFF720F900F014F8FFF7DAFA00F00EFAD9
:107AE000FDF71EF80EB070BDDC120020EC12002075
:107AF000C81E0020E8120020C4130020B812002085
:107B00000122014B9A8070474014002070B5244C2C
:107B1000150023685A1C01D001332360E379002B40
:107B200005D10122E271A2712B70237214E0A379B6
:107B3000022B1BD0032B21D0012B23D1227A002A28
:107B40000FD000228256002A07D000260233A371EC
:107B50002660FCF75DFE2E7070BD0422A2712B70B2
:107B6000FAE720000830FCF74BFEF5E70422A35E9D
:107B7000002BF1D00123A3710023D5E72368632BE9
:107B8000F8D8E9E70B78002BE6D12B700233A3710C
:107B9000FCF731FE030400D50248A080DCE7C046B4
:107BA00040140020FF7F0000014B18607047C04662
:107BB0004C1400200222014B5A71704750140020CF
:107BC000F8B500260978069F0B9DB1420CD01278BB
:107BD000B24209D100228256B24205D1C8221B68A6
:107BE0005200C8339A427641734C744A23889342B8
:107BF00001D801332380A379002B05D10122A27182
:107C00000A32A270238036E0A07801380B2800D910
:107C1000C3E0F9F72DF8060C1117321356565A8B9C
:107C20008DA406230420A370FCF7E3FEF8BD63795E
:107C3000012B10D10733F5E7FCF7E3FE0B23A3700C
:107C40000023DFE72379012B05D102200933A3703C
:107C5000FCF7C7FEEAE7002B04D02C232288FF3371
:107C60009A42E3D90520FCF7C4FE03230020A37049
:107C7000FCF7AFFE00232B70D8E7E378012B07D188
:107C80000220FCF7BAFE0923A37000232380CDE76E
:107C9000002B04D02C232288FF339A4206D90520DA
:107CA000FCF7A7FE0220FCF7A8FEDEE73E78002ED8
:107CB000BCD10220FCF7A1FE0B232680A3702E70FE
:107CC000B4E73B78002BDED1B8E7079B1B78032B8A
:107CD00007D10F20FCF781FE0C230020A370208029
:107CE000A2E70A9B1B78012B08D10433A370002361
:107CF000E01C2380E370FCF75EFE97E7099B1B788E
:107D0000002B0AD101330220A370FCF758FEFCF7C8
:107D10005CFE0F20FCF769FE88E72C232288FF33E6
:107D20009A429FD83B78002B88D07FE7072379E7DA
:107D30003B78012B03D1002E01D02B70A3E72288C2
:107D4000132A00D872E7012B00D06FE7002E00D075
:107D50006CE702333000A370FCF73BFEAFE7079BF4
:107D60001B78012B0ED0022B00D076E700250B33B9
:107D70000320A3702580FCF722FE0F20FCF72DFEC8
:107D8000280051E70423A37000230F202380FCF771
:107D900024FE201DFCF70BFE48E7089B1B78012BF7
:107DA00000D05AE70133A3700023601D2380FCF745
:107DB000FAFD0F204CE7C04650140020FE0F0000D3
:107DC000014B18607047C0465814002070B5046815
:107DD0000D00201C1049F9F73BF9002807D10021BC
:107DE000201CF9F721F9002802D0002400E00A4CF9
:107DF000201CFBF71DFF02000B0000200749FBF7CA
:107E000033FB074A074BFBF7AFF802F033FEF9F7F5
:107E100095F9288070BDC0460000A0420000544083
:107E20005555555555550940014B18607047C0468A
:107E30005C14002010B5304C002902D00023A38030
:107E400010BD0178002901D00123F8E781790029CC
:107E500001D00223F3E74178002901D00323EEE7A4
:107E60000179002901D00423E9E74179002901D0F3
:107E70000523E4E7817A002901D00623DFE7817832
:107E8000002901D00723DAE7C178002901D00823AF
:107E9000D5E71278002A01D00A23D0E7C279002A58
:107EA00001D00B23CBE7027A002A01D00C23C6E7CE
:107EB000427B002A01D00D23C1E7027B002A01D0BA
:107EC0000E23BCE7427A002A01D00F23B7E7029ABB
:107ED0001278002A01D01023B1E71B78002B01D0C3
:107EE0001123ACE7039B1B78002B01D01423A6E7DA
:107EF00001235B42A3E7C046601400200122024B2D
:107F000052429A807047C04660140020F0B593B08A
:107F10000C9169461B780D920293097A0EAB197089
:107F20001899299A0978060003916946097B20204F
:107F300059701999097804916946097C99701A99C0
:107F4000097805916946097DD9701B9909780691D0
:107F50006946097E19711C99097807916946097F5C
:107F600059711D99097808916946091809780430F2
:107F700099711E99097809916946091809780430A0
:107F8000D9711F9909780A916946091809781972F7
:107F90002099097859728C4621990F7822999F72FD
:107FA0000D782399DD720C7824991C730878259933
:107FB000587309789973337802991E000B937342B2
:107FC0005E410123F6B2002935D10399002932D14F
:107FD000049900292FD1059900292CD1069900294F
:107FE00029D10799002926D10899002923D1099977
:107FF000002920D10A9900291DD1614600291AD1F2
:10800000002F18D1002D16D1002C14D1002812D128
:108010002699087800280ED12799087800280AD1D7
:1080200028990878002806D10B99002903D02A9BAB
:108030001B78591E8B41684C68482168814201D8E1
:1080400001312160A17A00290CD10123A372DB1830
:10805000A371E37121601068F9F758F8C0B2FCF71A
:108060004BFB34E00C99A7790D78012F0BD0022F30
:1080700000D16BE0002D00D097E002236572A37160
:10808000E3712560E7E7002D0AD003230025A371E3
:108090002572FCF72DFB022363722560642014E037
:1080A000207A0138032842D8F8F7E2FD022B202B72
:1080B000494C0423E05E002308280ADC05222360E3
:1080C0002272FCF711FB0423E05EFCF7D3FA13B035
:1080D000F0BD032222722360F7E7002BF7D10221C3
:1080E0000023A1712372E1712360B4E76423226845
:1080F0005343F422FF329342E9D90223237200232F
:1081000051E0642120684143F420FF308142E4D9EA
:10811000012323720023A3802A9B269A0193289B84
:10812000310000930EA8279BFFF784FECFE764235E
:1081300022685343F422FF329342C8D904232560B6
:108140002372FCF7D5FAFCF7CBFAC0E7002D07D075
:1081500003230025A371E571FCF7CAFA67729CE757
:10816000002B07D00127E571A771FCF7B9FA277238
:10817000A580D1E7E17901290CD10D990978002971
:10818000A5D0642120684143F420FF3081429ED96C
:10819000E771A9E7642221684A43F421FF318A424A
:1081A00095D90122E2712360CDE7F422637A64203D
:1081B000FF32012B08D123684343934200D886E75E
:1081C00002236372002386E723685843904200D855
:1081D0007DE70123637292E760140020FEFFFF0336
:1081E000014B18607047C0466C14002070B5002524
:1081F000234C099E6572A572E5722573657325701F
:108200006570A570E57025716571A571E5712572C0
:10821000A5730570607A3070A07A0A9E3070E07A9B
:108220000B9E3070207B0C9E3070607B0D9E3070FA
:10823000A07B0E9E307060780870A1781170E27893
:108240001A702379049A13706379059A1370A379CD
:10825000069A1370E379079A1370237A089A1370B9
:10826000084B01221900D8310A7007491D709D631F
:108270005A601A635A63D9625D721A7270BDC04641
:108280007014002080140020B8140020F0B597B0BE
:108290000793239B0E921B7811910893249B070050
:1082A0001B780993259B1B780A93269B1B780B93BD
:1082B000289B1B780093299B1B7801932A9B1B7892
:1082C00002932B9B1B7803932D9B1B7804932E9B6F
:1082D0001B7805931D9B0020185EA54B5A7A002A37
:1082E00001D000225A72DC6A00252368012B0AD0D3
:1082F000FE22012392052360A560E560256165618A
:10830000A261E5612371A36913AE0693A3680D937F
:10831000E36813932369149363691593E3690C93DA
:10832000F9F748FE011C10900D98F8F7E5FF0021C1
:108330000D900C98F8F772FE002800D100E1069825
:10834000F9F718FE0138800081590D98F8F7D4FF2D
:108350000F900698F9F70EFE109B0138800013AEBF
:10836000835184490698F8F759FE002800D0EAE0C6
:10837000FE2106988905F8F7BFFF061C00210C981E
:10838000F8F74CFE002800D1ECE0FA210F9889059F
:10839000F9F734FB06900D9BA661A360139B0021A7
:1083A000E360149B0C980D932361159B6361F8F7B0
:1083B0004FFE002800D1D8E0FE210C988905F9F77E
:1083C0003DFCE0616A4B1A00D6321178002901D1D8
:1083D00001311170C0331A8867498A4201D80132CD
:1083E0001A80634B1800C23002888A4201D80132D9
:1083F0000280C4331A888A4201D801321A805C4B49
:108400001C001900D5342278C631002A00D0B9E00A
:1084100001201E0020700870C936001830701E0040
:10842000A83632601E00D03630701E0090363260A2
:108430001E00CC3630701E00983632601E00CD36DD
:1084400030701E00B83632601E001C00D33630700B
:1084500008341E00E2671C001900CA363070CB34A5
:108460001E0020700324C8310870329D4349C7366E
:108470001A679A67DA671A660A714A718A728A708D
:10848000CA70CA720A724A7234702A701D00D435DA
:1084900028701D00B435CA712A601D00D2352870BD
:1084A0001D00B0352A601D00D135287018009C30A1
:1084B00002601800CE3004701800CF33A4304A7325
:1084C0000A734A7002601C700A70079B19882C4B53
:1084D000188A274B814201D900F036FC1A6E01320E
:1084E0001A66814201D200F033FC214A536E0133F7
:1084F00053660022319B9A561D4B013201D100F088
:108500002BFC9A6E01329A661D9A0020125E822020
:108510008000824201DD00F022FCD86E0130D86676
:108520000020134B1867A530FF30824201DD00F0B8
:1085300020FC5A6F01325A6700220D4B00F024FCD8
:1085400000230F9305E7B1687068F8F7D5FE7060F7
:10855000011C1398F8F7D0FEFE2600231390B605F1
:108560000D930BE70023069315E7E5612AE7C04664
:108570008014002000004040FE0F00007014002016
:10858000C41F0020119A08781278012800D0D6E084
:10859000002A09D0C54B02211A00C63211700022F0
:1085A000D6331A70FCF7B4F91D9B00220021595EE6
:1085B000BE4B1800C8300478012C00D0DDE08224C6
:1085C000A400A14200DCC5E0DA661D9B0022002168
:1085D000595EB64B1800C9300478012C00D0FCE07D
:1085E000A434FF34A14200DCE4E05A671E9B002162
:1085F00000229A5EAD4B1800D0300478012C00D0D8
:108600001EE1E124A400A24200DC05E1AC331960C4
:108610001C9B00220021595EA44B1800CC3004782A
:10862000012C00D04AE1143100DB29E18C331A60BF
:108630001C9B00220021595E9C4B1800CD30047811
:10864000012C00D070E11D2900DD57E194331A6040
:108650001E9B0021595E954B1A00D33210780022E0
:10866000012800D081E1963102DA1900BC310A609C
:108670001A00BC321268632A08D919000022B831E6
:108680000A600221D3331970894BDA720E9B894933
:108690001A88864B1800CA300478012C00D08EE16D
:1086A0004989914200D378E100220433DA67079BBD
:1086B00019887E4B1A00CB3210787E4A012800D0F0
:1086C0009AE1D2898A4202D9002288331A60029B39
:1086D000002B14D1774A754B14790A22180019001F
:1086E0006243883000680831904208D3029ACB3345
:1086F000CA6702221A706A466D4B127A5A726B4B25
:108700001A00C73211786B4A012900D194E102297D
:1087100000D1A5E10799128A0988914201D9002266
:108720001A66624B1A6E092A00D899E100229A66ED
:108730005A66C73301321A70FCF7A6F890E1002A96
:1087400002D101230B702FE7D6331B78002B00D109
:108750002AE71FE70A9A002A00D036E7DA6E632A72
:1087600000D832E70A9A28211A676A46022352186B
:10877000037012784E4B1A7127E74F48814200DC94
:108780001A670A9B012B09D0319B1B78012B00D95A
:108790001BE7464B1B6F132B00D816E70022012462
:1087A000424B0620DA66C8331C70FCF7DFF8404BFA
:1087B0001C710AE70B9A002A00D017E75A6F632A48
:1087C00000D813E70B9A2C219A676A4602235218A5
:1087D00003701278364B5A7108E7E120400081425D
:1087E00000DC9A670B9B012B0AD0319B1B785BB294
:1087F000013300D0FAE62D4B9B6FF92B00D8F5E63C
:1088000000220124294B07205A67C9331C70FCF74A
:10881000ADF8274B5C71E9E6039A002A00D0F7E631
:108820001A00AC321268632A00D8F1E6039AA83322
:108830001A6002236A460370127B1D4B9A72E7E6A8
:10884000FA208000824213DCA8331960039B012BBD
:1088500000D0DDE6154B00211A000124D033AC32E4
:108860000A201C701160FCF781F8114B9C72CFE656
:10887000039A012AEED0A8331B68132BEAD8C7E667
:10888000089A002A00D0D3E61A008C321268632AB4
:1088900000D8CDE6089A90331A6020216A46022358
:1088A000521803701278024B9A70C1E680140020AF
:1088B00070140020C41F00203A020000323101DB96
:1088C00090331A60089B012B0AD0319B1B78012B37
:1088D00000D9ADE6C64B90331B68132B00D8A7E632
:1088E000C34B00211A000124CC338C3208201C70A9
:1088F0001160FCF73BF8BF4B9C7099E6099A002A7F
:1089000000D0A5E61A0094321268632A00D89FE6C8
:10891000099A98331A6024216A4602235218037078
:108920001278B44BDA7093E6002901DB98331A60B1
:10893000099B012B0BD0319B1B785BB2013300D01C
:1089400086E6AB4B98331B68132B00D880E6A84B08
:1089500000211A000124CD33943209201C701160CB
:10896000FCF704F8A34BDC7072E6C83102DB190097
:10897000B8310A601A00B8321268132A00D885E6A6
:108980001A0000210124D333BC320B201C7011606B
:10899000FBF7ECFF974BDC7278E6019A002A00D0D7
:1089A00085E61A1DD26F632A00D880E6019ADA673D
:1089B00002236A46037012798E4B1A7277E6098990
:1089C000914212D90022DA67019B012B00D06EE69A
:1089D00001240021864B20001A1DCA331C70D16768
:1089E000FBF7C4FF834B1C7261E6019A012AEFD0AA
:1089F000DB6F1D2BECD85AE692898A4214D20022F2
:108A00000833DA67029B012B00D078E6784B00210F
:108A10001A000124CB33883202201C701160FBF74E
:108A2000A5FF744B5C726AE6029A012AEED0083305
:108A3000DB6F3B2BEAD862E63199097849B2013104
:108A400001D1002199660A2110784143986E88422D
:108A500000D2A9E00222C7331A700123329A1370A0
:108A6000634B1A00D4321178012900D0B1E0C4332D
:108A70001988614B58780A234343994208DB009BCD
:108A8000002B05D1023313706A465A4B1278DA7103
:108A9000574B594A1900D2310878012800D0B3E069
:108AA0000598002810D194780A2218006243C23039
:108AB0000088904208DB059AB4331A6002236A46A4
:108AC0000B70127D4B4B5A73494B4B4A1900D131F5
:108AD0000878012800D0B8E00498002810D1D47894
:108AE0000A2218006243C0300088904208DB049AD2
:108AF000B0331A6002236A460B70127C3D4B1A7326
:108B00003B4C2300CE331A78012A25D0022A00D00C
:108B1000BEE01F9A1278002A1ED101320E201A7070
:108B2000FBF724FFE56DA46D0022344B20002900E3
:108B3000F8F740FA002800D1A8E000220023200026
:108B40002900F8F755FA002804D020002900F8F78A
:108B5000F5FA80B2FBF7A4FE254C2300CF331A7838
:108B6000012A00D1CAE0022A00D1D0E024490698A7
:108B7000F8F76EFA002801D1A4342060209B1B78FE
:108B8000002B05D11A4BA4331B68092B00D89CE499
:108B9000FBF782FE164B00211A00A0321160022260
:108BA000CF331A70013AAEE00799128A09889142D0
:108BB00001D200225A660E4B124A596E914200D8D9
:108BC0004EE7002203211A66C7331970329B1A70D0
:108BD00046E70099012900D05AE769460978C4336D
:108BE0001170002203201A80FBF7C0FE4CE7C0463C
:108BF0008014002070140020C41F00200000F040EA
:108C00000000164457020000126A3968914214DBD2
:108C10000022B4331A60059B012B00D054E7CA4BE5
:108C200001241A00D23214700022C23304201A80A8
:108C3000FBF79CFEC54B5C7346E7059A012AEED014
:108C4000B4331B68642BEAD83EE7526A3968914214
:108C500014DC0022B0331A60049B012B00D04FE7D4
:108C6000B94B01241A00D13214700022C033052000
:108C70001A80FBF77BFEB54B1C7341E7049A012A6F
:108C8000EED0B0331B68642BEAD839E7B04861E70F
:108C90003B68002B04DA8022120693422CD05B4200
:108CA0000E9A079912880888101AAA4A934201DC82
:108CB000962803DC0022A44B9C331A601F9B1B7870
:108CC000002B0AD1A04B9C331B68C82B00D843E76C
:108CD000309B1B78002B00D13EE79B4C02222300E7
:108CE000CE331A70FAF72AFFA065E165FBF7D0FDD5
:108CF0000122964B5A702FE7974BD1E70021A03401
:108D0000216002311970914B1A70FFF7DEFB209A37
:108D10001278002A0BD1D7342278002A07D10125F6
:108D20000F201D70FBF722FE2570FFF7CEFB8B494D
:108D30000698F8F779F9002801D0FFF7C6FB824BB7
:108D4000A0331860FFF7C1FB00221A66FFF7CDFBC6
:108D500000225A66FFF7CDFB0022FFF7D4FB00206C
:108D6000D8667F48824201DCFFF7DAFB186F0130DA
:108D700018670020744B5867C330FF30824201DC13
:108D8000FFF7DAFB9A6F01329A67764C0E9B2089C7
:108D90001A886D4B904233D8D86F0130D8676089FC
:108DA00090422FD31C1DE06F0130E0676D4CA0890D
:108DB00088422BD31D000835E86F0130E867E08951
:108DC000884228D81C0088342068013020601C9814
:108DD0000024005F0400143422DB8C331C6801344F
:108DE0001C60594B00251C00903425601D2822DD95
:108DF0009433186801301860534B0020983324E0F6
:108E00000020CBE70024181DC467CFE71800002519
:108E10000830C567D3E71800002488300460D6E71F
:108E20001C0000258C34256004003234D9DA9033DC
:108E30001C6801341C60444B00251C0094342560E0
:108E4000A842D9DA98331868013018603B683E4C64
:108E5000002B04DA80200006834232D05B423D487A
:108E600083422EDC521A962A2BDD22009C32136894
:108E70000133136039490698F8F7D6F8002825D051
:108E80002200A03213680133136037490698F8F7BF
:108E9000DFF800281ED02200A432136801331360CB
:108EA0001E9B00229B5EFA229200934216DD210057
:108EB000A8310A6801320A6022000021AC32116038
:108EC00019E0230000229C331A60D3E72300A0336B
:108ED0001860DAE72300A4331860E1E722000021DC
:108EE000A8321160E12292009342E5DC2100AC310E
:108EF0000A6801320A601B493A68486A824218DDF2
:108F00002000B03002680132026038680A6A90427C
:108F100014DA2100B4310A6801320A601A00C8323A
:108F200024DA2200B832136801331360BC34002302
:108F300025E022000020B0321060E6E72200002188
:108F4000B4321160EAE7C04680140020701400209B
:108F5000FFFF000087130000FFFFFF7F0080094430
:108F60003A020000C41F0020000016442200002125
:108F7000B83211609633D9DBBC34236801332360E7
:108F8000174B33991A780A705A7A3C990A709A7A70
:108F90003D990A70DA7A3E990A701A7B3F990A70F5
:108FA0005A7B40990A709A7B41990A705A78349991
:108FB0000A709A7835990A70DA7836990A701A79AF
:108FC00037990A705A7938990A709A7939990A70DA
:108FD000DA793A990A701B7A3B9A137017B0F0BD90
:108FE00070140020014B18607047C04660150020C7
:108FF0000122024B52421A807047C046641500207D
:1090000001210023044A49429370D37013711180E7
:10901000537103707047C0466415002070B5037823
:109020000E00264C002B47D0A379002B04D108005A
:10903000FFF7E6FF0123A371E578002D0ED1012390
:10904000E370FBF7D1FB0223A370033B257135705E
:109050002380201DFBF770FB208070BDFBF7C4FB55
:10906000A378012B17D16579002DECD0FBF778FBA5
:109070000543681E8541EDB26571FBF77BFB054337
:10908000681E8541EDB26571FBF79AFB0543681ECA
:1090900085416571E1E70022A35E002BD9D12279D9
:1090A000002AD6D001223270A2706371FBF758FB00
:1090B000451EA841C5B2DFE7A371CEE764150020C5
:1090C000014B18607047C0466C1500200122024B0E
:1090D000DA745A747047C04674150020F0B5002445
:1090E00087B00593179B009104921C57279B07009C
:1090F0001C70109B1C9E1A78229823990123002A29
:1091000007D10D9A1278002A03D1059B1B785A1EAD
:109110009341012C00D10023189A147862426241D5
:109120000270199A1478624262410A701A9A14788D
:10913000249A14701E9A1478259A147005780020C9
:109140000A780192249A12780292834225D10F9BC9
:109150001B78834221D1129B1B7883421DD1139B24
:109160001B78834219D1149B1B78834215D1159B20
:109170001B78834211D13B7883420ED1009B1B7830
:1091800083420AD1854208D1019B2800002B04D1DB
:109190000020824201D160426041389BC1B2BD4A89
:1091A0001970937C01248B4204D1D47CE41A631E91
:1091B0009C41E4B2B84B5B780393013B5A425A415D
:1091C000944204D0039B032B01D0FBF755FB0021F5
:1091D000B14B279A5C705156119B00221B780131CC
:1091E00003D0013B5A425A41D2B21F9B1978269BA9
:1091F000197000239A4233D10F98007898422FD1EA
:109200000C98007898422BD1049B18781300002802
:1092100026D1129B18781300002821D1139B1878AF
:10922000130000281CD1149B18781300002817D1B4
:10923000159B18781300002812D1387800280FD118
:10924000009B1878130000280AD100239D4207D103
:10925000019A9A4204D1029A9A4201D14B424B415F
:10926000379A8C4C137023685A1C01D00133236049
:10927000637D002B00D085E00122627506326360B9
:109280002275864A13701D9B1A78824B012A00D0E2
:1092900044E15A6801325A601D9B1A787D4B002ABE
:1092A00000D03DE19A6801329A6032687C49794B7E
:1092B0008A4200DA36E1DA680132DA60774B01245B
:1092C0001878744B1A7C824204D15C7C241A631E89
:1092D0009C41E4B2704B1A78531E5D425D41AC4232
:1092E00006D0032A04D0431E9841C0B2FBF7C8FA47
:1092F000694B289A1C703B781370119B319A1B782C
:109300001370129B329A1B781370139B339A1B783D
:109310001370149B349A1B781370159B359A1B7825
:109320001370169B369A1B781370009B299A1B7832
:109330001370049B2A9A1B781370059B2B9A1B7839
:1093400013700C9B2C9A1B7813700D9B2D9A1B7815
:1093500013700E9B2E9A1B7813700F9B2F9A1B78FD
:109360001370109B309A1B781370389B1A78494BF6
:109370009A74389A1278DA74484A12781A745A74BD
:1093800007B0F0BD207D0138052800D990E0414CA0
:10939000F7F76EFC0336404F627064232268534334
:1093A000404A934206D81B9B3F4A1B883C339BB2E2
:1093B00093420FD900240322364B20001A751C60FB
:1093C000364B1C70FBF754FA0123209A1370219B33
:1093D0001C7058E733681A00314B9A4201DA0023B7
:1093E000E36064222B4BDB685343304A934200D83E
:1093F00049E70622274B1A75284B053A1A7042E7AF
:109400002368042B00D83EE700230721214A53603C
:10941000117536E72C232268FF339A4200D832E7D1
:10942000E1221B9B92001B8864339BB29342EBD9D1
:1094300029E7379B1B78002BE6D01D9B1A78154B2C
:10944000002A01D000229A609B681D2B00D81AE7E1
:109450000123219A1370D7E72368042B00D812E761
:10946000FBF7FFF90028A5D000230122E360227555
:10947000236008E70423002501222375074B2800F9
:109480001A70A560FBF7F4F9209B1D70219B1D70DD
:10949000F9E6C046741500209015002070150020D4
:1094A00071FEFFFFC30900005B030000CF0700004F
:1094B000379B1B78002B1DD03368002B14D1E12281
:1094C0001B9B92001B8864339BB2934200D971E7C7
:1094D000FBF7C0F9002800D06CE7052320600130BD
:1094E0002375FBF7C5F9CEE6279B1B785BB20133EA
:1094F00000D17EE71D9B1A780B4B012A01D0002278
:109500005A605A683B2A00D8BDE600210222196041
:109510001A75064B01311970219B6FE70022BAE6DC
:109520000022C1E60022C8E6741500207015002054
:109530000322034B1860034B5A701A707047C046E1
:109540008C15002090150020F0B5040089B0086843
:10955000170001910293F8F77DFDAB4B051C186ACB
:10956000F8F778FD011C281CF8F768FB0021F7F7D5
:109570006FFD0023984200D1FDE0E25A04A95A523F
:1095800002330E2BF9D10B00002400269E5F0096BB
:109590000134630004AA985EF8F70CFD039000986C
:1095A000F8F708FD039912F02DFBF8F7E3FC0090A3
:1095B000062CEDD1944C281C6168F8F73FFB9349C9
:1095C000F8F71CFA0E9B051C186004AB0220185E0D
:1095D000F8F7F0FCA168F8F731FB8D49F8F70EFABF
:1095E000291CF8F71BF803903000F8F7E3FC21681A
:1095F000F8F724FB8649F8F701FA291CF8F70EF86A
:10960000039912F0FFFA04AB061C0420185EF8F769
:10961000D1FCE168F8F712FB7D49F8F7EFF9291C56
:10962000F7F7FCFF011C301C12F0ECFA04AB061C2F
:109630000620185EF8F7BEFC2169F8F7FFFA7449B6
:10964000F8F7DCF9291CF7F7E9FF011C301C12F0D0
:10965000D9FA04AB061C0820185EF8F7ABFC616968
:10966000F8F7ECFA6A49F8F7C9F9291CF7F7D6FFB9
:10967000011C301C12F0C6FA04AB061C0A20185E4E
:10968000F8F798FCA169F8F7D9FA6149F8F7B6F943
:10969000291CF7F7C3FF011C301C12F0B3FA04AB0E
:1096A000061C0C20185EF8F785FCE169F8F7C6FA8D
:1096B0005749F8F7A3F9291CF7F7B0FF011C301C34
:1096C00012F0A0FA2100029B313118600B78051CC2
:1096D000002B56D1A36263622300012230331A703B
:1096E00000230A703B60009B952B00DC86E0636AD8
:1096F0000133FE2163628905281CF7F7B3FC0028BB
:1097000000D17DE0A36A0133A362009B632B00DDDF
:1097100078E0E36A0133E36204AB0020185EF8F7F7
:1097200049FC019B20601868F8F794FC04AB60606A
:109730000220185EF8F73EFC04ABA0600420185E1F
:10974000F8F738FC04ABE0600620185EF8F732FC4E
:1097500004AB20610820185EF8F72CFC04AB6061B4
:109760000A20185EF8F726FC04ABA0610C20185EF6
:10977000F8F720FCE061019B1A68234B1A6209B0DC
:10978000F0BD230030331B78012B2ED100233B602A
:10979000009B952B22DC0023FE2163628905F7F7ED
:1097A00061FC00282AD10023A3626423626A19495C
:1097B0005A438A4297D9A26A53438B4200D892E710
:1097C0000023E3622300022230331A70FBF764F8AF
:1097D0000C20FBF7CBF8FE239B0583E7FE218905D0
:1097E000F7F740FC0028E0D1DDE7FE239B053B6056
:1097F000009B632B02DD0023E36274E7002378E71C
:10980000A06282E7002386E7941500206F12833A56
:10981000CDCCCC3DB80B0000014B18607047C04662
:10982000C8150020002801DBC8407047C043C8406D
:10983000C043FAE7F0B5224D85B03823EA5E0D2328
:109840000393204B040002931F4B01931F4B009383
:10985000416800681E4B00F0D9FA00221D4B06003B
:109860000F00F7F7BBFB002826D100221A4B30006F
:109870003900F7F79FFB002801D00026164F382348
:10988000EA5E0D232068616803930E4B0293134B2D
:1098900001930E4B00930E4B00F0B8FA2A686B68E8
:1098A000F9F762FB32003B00F8F71AFCA268E368A4
:1098B000F8F716FC05B0F0BD0026064FDFE7C046FE
:1098C00058110020E4C4010088C5010058C40100FB
:1098D000ECC4010000CCB04000408F4006C5010040
:1098E000F0B5454E8BB03823F25E0D230393434B06
:1098F00004000293424B0D000193424B00934168D8
:109900000068414B00F082FA0022404B069007911C
:1099100030687168F9F728FBFAF7DCF93C49071C55
:10992000306BF8F76BF8011C381CF7F777FEFAF785
:109930007FF9226863680026F8F7D2FB334F3200C4
:109940003B0004900591F7F749FB002845D02E60B5
:109950006F6020686168802212069446A368264ED4
:109960000893E368634409933823F25E0D2303935D
:10997000224B0293274B0193224B0093224B00F082
:1099800045FA00220490059130687168224BF9F77E
:10999000EBFA069A079BF8F7B3FE204A06000F0081
:1099A000049805991E4BF9F7DFFA069A079BF9F719
:1099B000DBFA02000B0008980999F8F7A1FE0200F3
:1099C0000B0030003900F8F78BFBA268E368F8F76A
:1099D00087FBA860E9600BB0F0BD002604980599EC
:1099E000002732003B00F7F7E5FA0028AFD1049AD0
:1099F000059B2A606B60ACE758110020E4C40100AD
:109A000020C6010058C40100ECC401000000594008
:109A10000000614562C4010000408F40FCA9F1D202
:109A20004D62503FF7B506000D1E03D100281DDA28
:109A30000F48FEBDC217831853400193CB17CF18B0
:109A40005F40C317C01839005840F7F71BF9F60FED
:109A50000400ED0FAE4207D039000198F7F798F9EE
:109A60004B1E99416418644220B2E2E70148E0E7E6
:109A70000080FFFFFF7F0000F8B51500069A8446BE
:109A800012780800079F002A0DD0534C534EA2793C
:109A9000002A09D10123A37123713368504A9342EC
:109AA00000DC94E03A60F8BD624621791278012921
:109AB00012D1002AF1D00022188822600C23494AD2
:109AC000494900F05CF90100B02000F0B7FB022327
:109AD000306023716371E0E76379012B3FD1002A85
:109AE000DBD125682B1E04DA80231B069D4203D0A0
:109AF0006B423E4A934218DDFA2128008900F7F7AD
:109B00004BF93368002B12DA80221206D11A8842F0
:109B100013DA3260FA239B005843002D10DB344BDC
:109B2000EB18984214DA334B23600223D2E7002B60
:109B300003D0304AD11A8842EBDCC3183360E9E71E
:109B400080231B06EB18984202DD80231B06EBE7FF
:109B5000FA2128008900F7F705FA2160E5E7002AD5
:109B60009BD0012383216371C9050068F7F746FF85
:109B70002968F7F743FF2049F7F750FD9E21C905F3
:109B8000051CF7F751FA002813D0CF21281C09062D
:109B9000F7F768FA00280ED0281CF8F7EBF92368CD
:109BA000002B0BDA80221206D11A88420CDA2260CE
:109BB00073E71048F3E780200006F0E7002B03D09E
:109BC0000C4AD11A8842F2DCC018206065E7002BED
:109BD00000DA00233B6066E7D0150020CC1500209A
:109BE000A0208F0024C4010008C40100E703000086
:109BF00001000080FFFFFF7F00007A44014B1860E6
:109C00007047C046D8150020F7B50E008F21C90552
:109C1000071C01921D00F7F707FA002842D0002127
:109C2000381CF7F71FFA00283ED0381CF7F76EFAF9
:109C300083B200933088F8F70DFA011C381CF7F74F
:109C4000F3F9041E3DD16B00985BF8F703FA011C91
:109C5000381CF7F7E9F900281ED02A006B08111B01
:109C6000012923D86300F35A18000093F8F7F2F99A
:109C7000011C381CF7F7E2FF6300F618071C009B75
:109C80007088C01A80B2F8F7E5F9011C381CF7F7A4
:109C9000C5FC061CAC4217D1019B6D00E85AF8F7D1
:109CA000D9F9FEBD134BC4E70090C3E75900895BA7
:109CB0000098814201D81C001300E1181A004B08DB
:109CC000CDE700240026E5E7019B6400185BF8F768
:109CD000C1F9019B051C1C196088F8F7BBF9291C08
:109CE000F7F7ACFF311CF7F789FE291CF7F704FBE7
:109CF000D7E7C046FFFF0000F7B50D0017000021B1
:109D00006A5E824238DA5A00525F824230DD0024B5
:109D10005A08191B012921D86600AB5BAD19C01A7E
:109D200080B20093F8F796F9009B01906888C01AFA
:109D300080B2F8F78FF9011C0198F7F76FFC051C4A
:109D4000A4003E593C19311C6068F7F777FF291CC5
:109D5000F7F754FE311CF7F7CFFAFEBD5100495F0B
:109D6000814201DC14001A00A11813004A08D0E750
:109D7000FE255C1EAD05E3E700240025E0E7F7B50E
:109D800017000A880D0082423CD25A00525A824281
:109D900034D900245A08191B012925D86600AB5B69
:109DA000AD19C01A80B20093F8F754F9009B0190E6
:109DB0006888C01A80B2F8F74DF9011C0198F7F7CE
:109DC0002DFC051CA4003E593C19311C6068F7F7B6
:109DD00035FF291CF7F712FEF8F7CCF80400301C09
:109DE000F8F7C8F82018FEBD5100495B814201D840
:109DF00014001A00A11813004A08CCE7FE255C1EC7
:109E0000AD05DFE700240025DCE70000F0B589B0F0
:109E10000492029300228D4B06000F00F7F7CAF858
:109E2000002800D1BAE00022002330003900F7F703
:109E3000DFF8041E04D030003900F7F77FF984B250
:109E4000029B1888F9F7BCFE02000B0030003900B5
:109E5000F7F7B0F8051E00D0AEE0109B029A1B6821
:109E600000935B00985AF9F7ABFE02000B0030003C
:109E70003900F7F79FF8002800D19FE0009B009A77
:109E80005B0800950099511A012900D988E0009BD0
:109E90005D00029B5C5B2000F9F792FE02000B0064
:109EA00030003900F9F7E0FA029B06005D19688876
:109EB0000F00001B80B2F9F783FE02000B00300098
:109EC0003900F8F71DFC029003910E9B00229B5E67
:109ED000049A934200DB82E0109B0E9A5D686B004F
:109EE0009B5E049A934200DC7AE06B082A0000250E
:109EF000511B012900D966E00E9B6E009C5B049B00
:109F0000181B80B2F9F75CFE0E9B049005919E1918
:109F10007088001B80B2F9F753FE02000B00049812
:109F20000599F8F7EDFB04900591119C009B6C439B
:109F3000E3180693109B1B680793069B079A5C0027
:109F4000009B934251D10F9B185BF9F739FE109B90
:109F500006005B680F009D421CD0119A069B944638
:109F600063445C00079A009B934256D10F9B185B99
:109F7000F9F726FE32003B00F9F776FA049A059BC2
:109F8000F8F7F2FF02000B0030003900F8F7A8F8EC
:109F900006000F003000390009B0F0BD2C4C4FE72F
:109FA00002985900095AA14201D800931300009A5F
:109FB000D1181A004B0865E7002300930023002402
:109FC0000293039481E70E985900095E0498814238
:109FD00001DC1D001300E9181A004B0888E7002572
:109FE00000230024049305949FE70F9B185BF9F767
:109FF000E7FD06000F000F9B1C196088F9F7E0FDD4
:10A0000032003B00F9F730FA029A039BF8F7ACFFF5
:10A0100032003B00F8F764F899E70F9B185BF9F7FB
:10A02000CFFD0F9B009001911C196088F9F7C8FDC6
:10A03000009A019BF9F718FA029A039BF8F794FF2C
:10A04000009A019BF8F74CF894E7C0460000F040F6
:10A05000FFFF0000F0B585B002918F21C905051CF6
:10A0600000920193F6F7E0FF002800D19AE000216A
:10A07000281CF6F7F7FF071E03D0281CF7F746F851
:10A0800087B2009B1888F7F7E5FF011C281CF6F73C
:10A09000CBFF061E00D092E00B9B009A1C68630069
:10A0A000985AF7F7D7FF011C281CF6F7BDFF0028C8
:10A0B00000D185E0630822003400111B012900D97A
:10A0C00072E0009B6700DE5B3000F7F7C3FF011C06
:10A0D000281CF7F7B3FD009B051CDF197888801B4F
:10A0E00080B2F7F7B7FF011C281CF7F797FA00902A
:10A0F000019B00229B5E029A934200DB6FE00B9B68
:10A10000019A5F687B009B5E029A934200DC67E0E5
:10A110007B083A000027D11B012954D8019B7E00FF
:10A120009D5B029B581B80B2F7F794FF019B029046
:10A130009E197088401B80B2F7F78CFF011C0298B3
:10A14000F7F76CFA01900C9B7B431B1902930B9B56
:10A150001B680393029B5D00039B9C4243D10A9BB7
:10A16000585BF7F777FF0B9B051C5B689F4216D087
:10A170000C9A029B944663445F00039B9C4246D129
:10A180000A9BD85BF7F766FF291CF7F757FD019983
:10A19000F7F734FC011C281CF7F7AEF8051C281C47
:10A1A00005B0F0BD244F6CE700985900095AB94238
:10A1B00001D81C001300E1181A004B087DE70024A9
:10A1C0000023009394E701985900095E02988142A8
:10A1D00001DC1F001300F9181A004B089BE7002749
:10A1E00000230193AFE70A9B585BF7F733FF0A9B05
:10A1F000061C5D196888F7F72DFF311CF7F71EFD67
:10A200000099F7F7FBFB311CF7F776F8ABE70A9BF1
:10A21000D85BF7F71FFF0A9B061CDC196088F7F76D
:10A2200019FF311CF7F70AFD0099F7F7E7FB311C1E
:10A23000F7F762F8A8E7C046FFFF000007B501ABDB
:10A240006A4600F015F8009B002B03DC04D1019B4B
:10A25000002B06DA054805E0013304D1019B002BF1
:10A2600001DA01980EBD80200006FBE7FFFFFF7FAB
:10A27000F7B59C46C317C6185E40CB17CD185D4096
:10A28000330C0093B6B22B0C009C0193ADB2734318
:10A290006C4375431E0476192704BF19AE42AD41C5
:10A2A000B742B641240C76426D421B0CAD191B1906
:10A2B000019E009C74431B195D1900280DD00029D4
:10A2C0000BD0C317181ACB17591AC00FC90F8842E1
:10A2D00003D07F42002F04D0ED43634615601F601A
:10A2E000F7BD6D42F9E70000F0B5ADB00A911192EB
:10A2F000010040221CA811F053FF002200231CA9DA
:10A30000079114A910910121149215931892199391
:10A31000169217931A921B930C920D930991079B17
:10A32000099A1E685B681CA90B9305235343109A76
:10A33000033B08930C9B0D9C136054600423099A03
:10A340009B1A1800089A129302F0F4FA00220023D4
:10A3500004000D00F6F728FE002800D08AE1079BD4
:10A360001A685B68049205930498059922002B00F3
:10A3700000F0CAFA079B04901C685D680F00002279
:10A38000002320002900F6F733FE002802D08023A6
:10A390001B06FF18D423049900220E917900490866
:10A3A0000F919B040E980F99F6F704FE002800D138
:10A3B0002FE1099B9B00139300230E930E9B079C98
:10A3C0000133089D0E93139B083400229D4200DC4C
:10A3D0000AE1CA4B04983900F8F7C6FD00220C00C8
:10A3E0000490C64B30000F000B99F8F7BDFDD42345
:10A3F000640006000B9100229B0404986108F6F7A4
:10A40000D9FD002802D00E9B142BD7D1089A1CA985
:10A41000129802F08FFA02000B0030000B9900F046
:10A4200073FA002204900F00002330000B99F6F716
:10A43000DFFD002802D080231B06FF1832000B9B93
:10A4400004983900F9F710F8049A3B00F8F758F926
:10A45000109B049A186059603B0030000B99F9F783
:10A4600003F802000B000020A549F8F749F90400A1
:10A470000D00079E089B139A0836934200DCBCE04F
:10A480000024D42304989B0439000022F8F76CFDC3
:10A490000E9B013404900F009C42F2D13B00049AC1
:10A4A00007990A604B60099B012B14D10022944B41
:10A4B0001C921D93149B00220893159B08980B93E4
:10A4C0000B990023F6F770FD002800D113E13B0043
:10A4D000049A1C921D93099B01330993079B28330F
:10A4E0000793109B08331093099B032B00D016E7AA
:10A4F0001C9B1D9C119A24AF136054600C9B0D9CF7
:10A500009360D46018931994249B259C1361546123
:10A51000269B279C049305949361D4610C9B0D9C0E
:10A520001A931B94012307930526079B0133089375
:10A530005E43079B002B10D10023714C0022BB60AF
:10A54000FC60149B0993159B09980B930B990023AE
:10A55000F6F72AFD002800D1F9E0F51E3E00089B21
:10A5600010369B000493079BDC0014AB1C19049B62
:10A570009D4200DCF0E02268636800206049F8F743
:10A5800073FF079BB860F960012B03D10C9B0D9CF6
:10A590003B607C60079B283F5A1E0792C4D21C9BDD
:10A5A0001D9C0A9A136054601E9B1F9C9360D4608C
:10A5B000209B219C13615461229B239C9361D46155
:10A5C000249B259C13625462269B279C9362D46231
:10A5D000289B299C136354632A9B2B9C049305940A
:10A5E0009363D4632DB0F0BD20686168434BF8F7E6
:10A5F000BBFC013520606160E5E62B0030687168C6
:10A600002200F8F7B1FC089B3060716001330893B9
:10A6100030E722002B0004983900F8F725FF049A50
:10A620003B00F8F76DF8109B049A186059603B00E6
:10A6300020002900F8F718FF0B0002003049002025
:10A64000F8F75EF805000E00099B079C9B000B9332
:10A65000089B0B9A0834934200DD1FE7206861686D
:10A6600033002A00F8F780FC089B2060616001330A
:10A670000893EDE704960B9F10E7013C002C00D1F6
:10A6800025E7E1001CAB0839591800220868496821
:10A690000023F6F789FC0028EFD105001CAEE90085
:10A6A00071180022086A496A0023F6F77DFC002829
:10A6B0005ED00135A542F2D1002518AB02930123EB
:10A6C00032000193290020000096043301F0DCFFE2
:10A6D0008020052300068446039318AB01930123D1
:10A6E0000B99009361440B000296089A2900200000
:10A6F00002F0C0F8EBE60424C3E7C0460000907CFB
:10A700000000F03F049B013B0493002B00D124E7A1
:10A71000049B0022D9003039611800230868496879
:10A72000F6F742FC0028EDD13400049BF518AC424A
:10A7300020DAE1001CAB0839591800220868496882
:10A740000023F6F731FC002833D00134EFE704236F
:10A750003C0004933034DBE78020616800060B186E
:10A76000226830687168F8F7FFFB013503C6FEE622
:10A770000125A2E7002518AB341F02931CAB009300
:10A780001CAA330029000498019401F07DFF802069
:10A79000000684460B991CAB6144029318AB0193ED
:10A7A00003960B000094099A2900049802F062F8BD
:10A7B000D3E60125DFE7C046F0B5150087B0019369
:10A7C000002207000E00002328000199F6F7ECFB99
:10A7D000002200280FD03C4B0C9900240A604B60EB
:10A7E00000230D9A136054603A0033000E990A60FA
:10A7F0004B6007B0F0BD002338003100F6F7D4FB02
:10A8000000280CD0002200230C990A604B60002223
:10A810002D4B0D990A604B602A00019BE6E7019BD6
:10A820002A00590073009C4664464B0838006108B2
:10A83000F7F756FC0290039102000B00380031003C
:10A84000F7F75EFF029A039B06000F0004912800B1
:10A850000199F7F755FF7F007F0805914900020035
:10A860004B0801903900300000F04EF804000D0054
:10A8700002000B0030003900F7F742FF0C9B32005A
:10A88000186059603B0030000499F7F739FF020067
:10A890000B0006000F0001980599F8F765FB2200F0
:10A8A0002B00F7F72DFF0D9B2200186059600298CE
:10A8B00003992B00F8F758FB3B003200F8F754FBE4
:10A8C0000E9B1860596094E70000F03F002001499A
:10A8D0007047C0460000F07FFF20C00570470000B1
:10A8E000002001497047C0460000F0FF0048704753
:10A8F000000080FF002001497047C0460000F8FFBB
:10A90000004870470000C0FFF7B50193019B4E005F
:10A910005F0076087F0800913B00310015000400BD
:10A92000F6F748FB2A00002815D0019B009920006B
:10A93000F7F7E6FE02000B00F8F716FB00221B4BB0
:10A94000F7F7CEFB11F00AFB02000B0028003900DC
:10A95000F8F70AFB24E03B0020003100F6F73EFB4D
:10A96000002814D0009B220001992800F7F7C8FEA8
:10A9700002000B00F8F7F8FA00220C4BF7F7B0FBD7
:10A9800011F0ECFA02000B0020003100E0E7280093
:10A99000390000F05DF8002804D0054B18685968AC
:10A9A00003B0F0BD034A044BEEE7C0460000F03FA1
:10A9B00000160020CD3B7F669EA0F63F10B5FFF746
:10A9C00099FF0D4B18605960FFF79AFF0B4B186009
:10A9D000FFF77CFF0A4B18605960FFF77DFF094BBA
:10A9E0001860FFF77DFF084B18605960FFF77EFF86
:10A9F000064B186010BDC046001600200816002047
:10AA0000E0150020E8150020F0150020F8150020C2
:10AA100070B50B000D000C4902000400086849687D
:10AA2000F6F7C2FA03000120002B0BD10749061CE0
:10AA30002200086849682B00F6F7B6FA002800D112
:10AA4000061CF0B270BDC046E0150020F0150020D5
:10AA5000074A10B5140000230C40944206D10903A4
:10AA60000133002902D10300581E8341D8B210BD22
:10AA70000000F07F70B54E000C000022184B7108EA
:10AA80000500F6F797FA002811D00022154B280090
:10AA90002100F6F7ADFA002200280BD0114B280058
:10AAA0002100F7F71DFB11F0E1F805000C0028006C
:10AAB000210070BD0C4B28002100F6F78FFA002210
:10AAC000002805D0002328002100F8F74DFAECE714
:10AAD000044B28002100F8F7C7FC11F011F8E4E757
:10AAE000000030430000E03F0000E0BFF0B585B05B
:10AAF0000292244A07008B189B001B580091002BE0
:10AB000019DB00240025029B6E01F618009B9D4274
:10AB10001BDAAB00F858F7F79DFAF9F789F832001D
:10AB200011F08EF9F9F7D6F8011C201CF6F7E4FBBA
:10AB30000135041CE7E7012300240025029A6E0179
:10AB4000B2180392009A954202DB201C05B0F0BDBA
:10AB5000AA00BE580135F6439B1918000193F7F778
:10AB600079FAF9F765F8039A11F06AF9F9F7B2F88A
:10AB7000011C201CF7F762F8019B041CB3429B41A7
:10AB80005B42DBE7FFFFFF3FF0B5A5B00500019199
:10AB900041680068FFF73CFF002800D0CEE028683D
:10ABA0006968FFF755FF002800D0C7E0A868E9688A
:10ABB000FFF72EFF002800D0C0E0A868E968FFF783
:10ABC00047FF002800D0B9E028696969FFF720FF36
:10ABD000002800D0B2E028696969FFF739FF002832
:10ABE00000D0ABE0A869E969FFF712FF002800D0A8
:10ABF000A4E0A869E969FFF72BFF002800D09DE0D9
:10AC00001CAB10AA14A9280000F06EFF109811992F
:10AC100011F0A4F9002400251490159112981399AD
:10AC2000169417951894199511F098F91C9A1D9B74
:10AC3000149E159F04920593209A219B02900391E4
:10AC400004980599069207931E9A1F9B08920993F0
:10AC5000229A239B0A920B93169A179B0C920D93A0
:10AC600032003B00F8F780F922002B00F7F738FAA2
:10AC70000C9A0D9B0E900F9106980799F8F774F9AE
:10AC800002000B000E980F99F7F72AFA019B320089
:10AC900018605960089809993B00F8F765F9220097
:10ACA0002B00F7F71DFA0C9A0D9B06000F000A986F
:10ACB0000B99F8F759F902000B0030003900F7F74B
:10ACC0000FFA189E199F019B9860D960049A059B02
:10ACD00030003900F8F748F922002B00F7F700FAA6
:10ACE000069A079B0490059102980399F8F73CF99E
:10ACF00002000B0004980599F7F7F2F9019B18611F
:10AD00005961089A099B30003900F8F72DF92200A3
:10AD10002B00F7F7E5F90A9A0B9B06000F00029843
:10AD20000399F8F721F902000B0030003900F7F71A
:10AD3000D7F9019B9861D96125B0F0BD074B1A681E
:10AD40005B6810921193129213931C921D931E92A2
:10AD50001F93209221932292239357E700160020FD
:10AD6000F0B5B3B016920E930400026843680191E7
:10AD70002A922B938268C3682C922D9302694369AF
:10AD80002E922F938269C3693092319301F04CFE69
:10AD900000260027029032003B0002980D00F6F7D3
:10ADA0001DF904960597002800D168E122686368C0
:10ADB000069207930698079932003B00F6F7FAF8D7
:10ADC000002800D149E1029B229380231B06ED1845
:10ADD0002395239B229D02935E00D42300229B0493
:10ADE00028007108F6F704F92A00029B002800D118
:10ADF00038E10020C049F7F783FC02000B00060091
:10AE00000F0006980799F8F7AFF832002A902B91B7
:10AE1000A068E1683B00F8F7A7F82C902D912A98DC
:10AE20002B990022B44BF7F75BF980221206944667
:10AE3000029B2A902B912AA9634408002295239310
:10AE400001F00AFC2A9A2B9BF7F75AFC80231B0679
:10AE5000CD182AAA290001F0D8FB309B319C2298FA
:10AE60002399019A249325942E9B2F9C2693279413
:10AE7000049B059C289329942A9B2B9C1360546067
:10AE8000049B059C136154612C9B2D9C9360D460A2
:10AE9000029303940024984D00239461D56100220D
:10AEA000F6F782F80199002800D0EDE0080001F0E3
:10AEB000D3FB2A9A2B9BF7F723FC80231B06CF1882
:10AEC000019A390001F0A1FB802212069446019BF1
:10AED000019ADB68200002936344D3602900536821
:10AEE0001268F8F7C1FA019B18605960049A059B33
:10AEF0000E99269F0A614B61049A059B8A60CB607C
:10AF0000279B8C61CD61069300230C604D600293FA
:10AF10003A00069B20922193029B0022DC0022AB88
:10AF20001C19636826680893300000230899F6F717
:10AF30003BF8002800D1AEE0029B002B37D1209DCA
:10AF4000219E0022002328003100F6F72DF800286A
:10AF50002DD1740064082A00230028001A921B9344
:10AF6000210033002A00F7F7CBFB2A00230006005C
:10AF70000F002092219302000B0024982599F7F7E7
:10AF8000F3FF249025910E993200086949693B002E
:10AF9000F7F7EAFF0E9B3200186159610E993B00EA
:10AFA0008869C969F7F7E0FF0E9B9861D961219B19
:10AFB000209F0693029B01330293022BA8D13A00F3
:10AFC000069B229826922793069B3A005900239BC2
:10AFD0005C0006934B08610810F0CAFE02000B00EB
:10AFE0000020002110F0C4FE259B04005E000D002F
:10AFF0000693002200232498710810F0B9FE020085
:10B000000B002000290010F0B3FE18901991029B4C
:10B010000A9300230F930A9B269D013B0293279BD3
:10B020001A9F5C00229B1B9E1093239B640806932F
:10B030005B005B081293249B1493259B5B005B08C9
:10B040001593029B0C93002308930C9B0693002BF3
:10B0500054D1089B002B6BD0C3E02B00029A2292A4
:10B060002393B6E606980799F7F74AFB2A002A9039
:10B070002B91A068E168029BF7F742FBCDE6049BA9
:10B08000059C22932394E8E6049A059B0C604D608E
:10B090008A60CB602AE7089B32005D006D082B00B8
:10B0A00008991A921B93300032002B00F7F728FB07
:10B0B0002B00320022606360029B08900991002BF4
:10B0C00007D102000B0038000699F7F719FB209012
:10B0D0002191029B5D001C01019B6E1C1C19033514
:10B0E000AE4200D128E720686168089A099BF7F70B
:10B0F0003BFF013603C4F3E70000F03F149A159BB1
:10B1000010981299F6F7ECFF00226A4BF7F72CFF24
:10B1100002000B0028002100F5F756FF00283ED062
:10B1200023002A001A921B93049B059C26932794C4
:10B13000029B069A934200D0BEE0029B0022DC00F4
:10B1400022AB1C1926686568002330002900F5F73A
:10B1500031FF00280FD080231B06ED18029B0E98AC
:10B160005A001B01511C26606560C31803329142CE
:10B1700001D000F077FC029B002B01D100F07BFC9A
:10B18000029B002B00D042E7169A229B239C13605F
:10B190005460249B259C9360D46033B0F0BDD423CD
:10B1A00000229B0428002100F5F70EFF0028B7D1EC
:10B1B000012308930F9B2F002600142B10DD0C9009
:10B1C0000022189819993B4BF7F7CEFE02000B00AE
:10B1D00028002100F5F7F8FE002800D135E79FE7A9
:10B1E00006903A0033001A921B93A1E7069BBB42DC
:10B1F00000D182E00A9BBB4258DC00242600069B5B
:10B200000133BB4207DA20003100149A159BF6F790
:10B2100067FF04000E007B1E109322AADB00D318E8
:10B220001A685D680C92234B002220003100F7F76A
:10B230009BFE6D006D0802000B000C982900F5F7CD
:10B24000C3FE00280CD101231293D42300229B04B7
:10B250000C9829000897F5F7B7FE002800D14FE1B8
:10B26000220033001A921B932B000C9A089720920D
:10B270002193109B22AADB00D3180499059A196028
:10B280005A600A9B089A934201D000F010FC269B5A
:10B29000279C1A931B94049B059C26932794029B3E
:10B2A0001C010E9B1D1908341C19ABE1149C159E42
:10B2B000A5E7C0460000B03C269B0A9F1493279B3D
:10B2C0001A9C5B005B081593209B1B9E0C9300232C
:10B2D000219D08971293069BBB4287DD129B002B92
:10B2E00007D0220033001A921B932B000C9A209255
:10B2F0002193069B089A9342C3D1029B22AADB00AA
:10B30000D318C0CB229B7C000293239B029A590046
:10B31000089330004B08610810F02AFD269B0C931F
:10B32000279B0C9A5C001093630810F021FD069B8C
:10B33000DC0022AB1B191A685B6812925D00129A3E
:10B3400014936B0810F014FD26AB1C192368159399
:10B350006368159A5C001793630810F009FD0400F8
:10B360000D0002000B003000390020942195F7F702
:10B37000C7F906000F0022002B00029808991A96C0
:10B380001B97F7F7BDF92200089009912B000C9844
:10B390001099F7F7B5F92200029003912B0012984B
:10B3A0001499F7F7ADF9089A099B1C901D9130008C
:10B3B0003900F6F795FE320004000D00089809994F
:10B3C0003B00F8F751F802000B0020002900F7F7C6
:10B3D000CBFD029A039B04000D0010001900F7F743
:10B3E000C3FD02000B0020002900F6F779FE0022C1
:10B3F000DC4BF7F7B9FD029A039B04000D00300007
:10B4000039001E941F95F7F7AFFD02000B00F7F708
:10B41000ABFD002206000F00002320002900F5F7F5
:10B42000C3FD002808D00022002330003900F5F7C2
:10B43000BBFD002800D08FE122002B002000290056
:10B44000F7F792FD32003B00F6F74AFE10F086FD5A
:10B450001E9A1F9B0292039305000C000298039909
:10B4600000220023F5F7A6FD002802D080231B064A
:10B47000E418029A039B28002100F6F731FE02002F
:10B480000B0030003900F7F73BF9029003911C9E46
:10B490001D9F1A9C1B9D300022002B003900F6F7DF
:10B4A0001FFE2200089009912B0030003900F7F7A9
:10B4B000DBFF02000B0008980999F7F755FD029A87
:10B4C000039BF6F70DFE209A219B1A901B9115986D
:10B4D0001799F7F715F93B003200F7F745FD209073
:10B4E0002191069B01330893089B012B00DC3BE173
:10B4F0001A9B1B9C269327940F9B01330F9388E084
:10B50000109FE8E61CAB20AA1AA922A801F06EFB46
:10B510000E9B1A685B6810921193209A219B0A92E5
:10B520000B931C9A1D9B0C920D930C980D992A68F5
:10B530006B68F7F719FD0A9A0B9B06000F0010982D
:10B540001199F7F711FD02000B0030003900F6F7F2
:10B55000C7FD2A686B68129013910A980B99F7F748
:10B5600003FD0C9A0D9B06000F0010981199F7F738
:10B57000FBFC02000B0030003900F7F775FF129A50
:10B58000139B286069600E990A604B6022686368AB
:10B59000109211938A68CB681098119912921393A4
:10B5A0000C9A0D9BF7F7E0FC0A9A0B9B06000F0024
:10B5B00012981399F7F7D8FC02000B0030003900FD
:10B5C000F6F78EFD0A9A0B9B06000F001098119952
:10B5D0001E961F97F7F7C8FC129A139B0A900B91BF
:10B5E0000C980D99F7F7C0FC0B0002000A980B9914
:10B5F000F7F73AFF0E9B206061609E60DF60029B60
:10B60000013B0293029B069A934200DD7AE7089B76
:10B610000A930F9B4A2B00DCFDE4B5E5069A22ABAA
:10B6200098181AA91CAB20AA01F0E0FA069A802704
:10B63000944626AB634415931A685B681292139381
:10B640001C9B3F0608931D9B08981093109E129A0E
:10B65000139BF119F7F788FC209A219B1A901B91F4
:10B660001298139902920393F7F77EFC159B1860CA
:10B6700059602268636802980399F7F775FC2A6895
:10B680006B6806000F0008981099F7F76DFC020030
:10B690000B0030003900F6F723FD06000F0002987A
:10B6A00003991E961F972A686B68F7F75DFC22685E
:10B6B00063681290139108981099F7F755FC0200EF
:10B6C0000B0012981399F7F7CFFE28606960266087
:10B6D0006760149B1A685B68089209930898099937
:10B6E000029A039BA668E7681E961F97F7F73CFC33
:10B6F0001C9A1D9B1090119130003900F7F734FC13
:10B7000002000B0010981199F7F7AEFE149B186019
:10B710005960029A039B30003900F7F725FC1C9A08
:10B720001D9B06000F0008980999F7F71DFC0B00F8
:10B73000020039003000F6F7D3FC0C9BA060E160FA
:10B7400001330C93069B1034083306930C9A0A9B22
:10B75000934200DB62E75CE700230024029303943A
:10B7600095E6C0460000E03F1EAB1CAA20A91AA81F
:10B7700001F03CFA229B239C269E279F0C930D945C
:10B780001C9B1D9C0C980D99029303941E9B1F9C5F
:10B7900006930794029A039BF7F7E6FB069A079B2A
:10B7A00004000D0030003900F7F7DEFB02000B004B
:10B7B00020002900F6F794FC03000C0032001A93D5
:10B7C0001B9412901391029803993B00F7F7CCFB5E
:10B7D000069A079B04000D000C980D99F7F7C4FB1F
:10B7E00002000B0020002900F7F73EFE03000C00CA
:10B7F0000C900D910698079926932794249C259DDB
:10B8000022002B00F7F7B0FB22002B0020902191A3
:10B8100002980399F7F7A8FB0E9B249025911E68C8
:10B820005F68029803995C691B69109311941A0070
:10B830002300F7F799FB320004000D0006980799E2
:10B840003B00F7F791FB02000B0020002900F7F7FF
:10B850000BFE0E9B320018615961029803993B0060
:10B86000F7F782FB109A119B04000D0006980799C8
:10B87000F7F77AFB02000B0020002900F6F730FCF6
:10B880000E9B9E68DF6818605960DC699B690298AE
:10B890000399109311941A002300F7F765FB320007
:10B8A00004000D00069807993B00F7F75DFB0200C6
:10B8B0000B0020002900F7F7D7FD0E9B320098619E
:10B8C000D961029803993B00F7F74EFB109A119B40
:10B8D00004000D0006980799F7F746FB02000B00DD
:10B8E00020002900F6F7FCFB0E9B1CAA9860D9608B
:10B8F000129B139C20A92293239422A81EAB01F033
:10B9000075F91C9B1D9C0C980D9902930394249B24
:10B91000259C06930794029A039BF7F725FB1E9D2F
:10B920001F9C06000F00069807992A002300F7F7CE
:10B930001BFB02000B00300039008026F6F7D0FB1D
:10B940000C9A0D9B36061A901B91A1192800F7F747
:10B950000BFB069A079B06000F0002980399F7F766
:10B9600003FB02000B0030003900F6F7B9FB289EFC
:10B97000299F2490259132003B0028002100F7F7F1
:10B98000F3FA32003B002090219102980399F7F7D7
:10B99000EBFA019B289029911E685F680298039931
:10B9A0001A695B6906920793F7F7DEFA32000C908A
:10B9B0000D913B0028002100F7F7D6FA02000B009A
:10B9C0000C980D99F7F750FD019B320018615961F1
:10B9D000029803993B00F7F7C7FA069A079B0600FF
:10B9E0000F0028002100F7F7BFFA02000B0030001B
:10B9F0003900F6F775FB019B9E68DF681860596097
:10BA00009A69DB690298039906920793F7F7ACFAF3
:10BA100032000C900D913B0028002100F7F7A4FAAA
:10BA200002000B000C980D99F7F71EFD019B3200E8
:10BA30009861D961029803993B00F7F795FA069A45
:10BA4000079B06000F0028002100F7F78DFA0B0076
:10BA5000020039003000F6F743FB019B9860D96083
:10BA6000089B3FE58024586824060019586001317E
:10BA70000833FFF77CFB229C239D249E259F2000FA
:10BA800032003B002900F5F795FA002801D1FFF7B5
:10BA900077FB0E981A941B9522962397249425954C
:10BAA00001F082F9019801F07FF9FFF769FB089B2B
:10BAB00026A9013BDA008A18106851681A901B9178
:10BAC0000498059910605160089A1B0101320C928C
:10BAD000019AD5180833D3181493089B1C01089BAE
:10BAE0001419DB0031E6C046F0B5B5B016920793E5
:10BAF00004000268436806912C922D938268C36803
:10BB00002E922F9302694369309231938269C369FF
:10BB10003292339300F088FF002600270490320011
:10BB20003B0004980D00F5F759FA0896099700288C
:10BB300000D15EE1226863680A920B930A980B9920
:10BB400032003B00F5F736FA002800D13FE1049BB4
:10BB5000249380231B06ED182595259B249D049393
:10BB60005E00D42300229B0428007108F5F740FAF8
:10BB70002A00049B002800D12EE10020BB49F6F7E3
:10BB8000BFFD02000B0006000F000A980B99F7F7A3
:10BB9000EBF932002C902D91A068E1683B00F7F79B
:10BBA000E3F92E902F912C982D990022AF4BF6F7A8
:10BBB00097FA802212069446049B2C902D912CA972
:10BBC000634408002495259300F046FD2C9A2D9B94
:10BBD000F6F796FD80231B06CD182CAA290000F04D
:10BBE00014FD329B339C24982599069A269327941A
:10BBF000309B319C28932994089B099C2A932B9471
:10BC00002C9B2D9C13605460089B099C136154610C
:10BC10002E9B2F9C9360D460049305940024934D35
:10BC200000239461D5610022F5F7BEF9069900283A
:10BC300000D0E3E0080000F00FFD2C9A2D9BF6F7F2
:10BC40005FFD80231B06CF18069A390000F0DDFC4B
:10BC5000802212069446069B069ADB682000049315
:10BC60006344D360290053681268F7F7FDFB069B15
:10BC700018605960089A099B0799289F0A614B61CF
:10BC8000089A099B8A60CB60299B8C61CD610A93DD
:10BC900000230C604D6004933A000A9B2292239388
:10BCA000049B0022DC0024AB1C19636826680C93FB
:10BCB000300000230C99F5F777F9002800D1A4E0B3
:10BCC000049B002B37D1229D239E002200232800B5
:10BCD0003100F5F769F900282DD1740064082A00B5
:10BCE000230028001C921D93210033002A00F6F740
:10BCF00007FD2A00230006000F0022922393020072
:10BD00000B0026982799F7F72FF926902791079986
:10BD10003200086949693B00F7F726F9079B3200B2
:10BD20001861596107993B008869C969F7F71CF9DF
:10BD3000079B9861D961239B229F0A93049B01333F
:10BD40000493022BA8D13A000A9B249828922993A5
:10BD50000A9B3A005900259B5C0004934B0861083C
:10BD600010F006F802000B000020002110F000F88F
:10BD7000279B04005E000D000493002200232698F8
:10BD800071080FF0F5FF0B000200290020000FF0F2
:10BD9000EFFF01231A901B91049300231093299B1A
:10BDA000289D5C00249B64081193259B1C9F0A938B
:10BDB0005B005B081293269B1D9E1493279B5B00E0
:10BDC0005B081593049B0E9300230C93CBE12B008F
:10BDD000049A24922593C0E60A980B99F6F790FCF2
:10BDE0002A002C902D91A068E168049BF6F788FC4E
:10BDF000D7E6089B099C24932594F2E6089A099BB0
:10BE00000C604D608A60CB6034E70C9B32005D00B3
:10BE10006D082B000C991C921D93300032002B00F2
:10BE2000F6F76EFC2B00320022606360049B0C90DE
:10BE30000D91002B07D102000B0038000A99F6F78C
:10BE40005FFC22902391049B5D001C01069B6E1CED
:10BE50001C190335AE4200D132E7206861680C9AA4
:10BE60000D9BF7F781F8013603C4F3E70000F03FBC
:10BE7000149A159B11981299F6F732F90022C24BC9
:10BE8000F7F772F802000B0028002100F5F79CF884
:10BE9000002800D146E123002A001C921D93089B34
:10BEA000099C289329940A9B049A934200D13DE36C
:10BEB000130001331193289B119F1793299B3E0078
:10BEC0005B005B081893229B1C9D0C93239B1D9C7D
:10BED0000E93D3001293002315930A9BBB4200DC00
:10BEE00056E1159B002B07D02A0023001C921D93BE
:10BEF0000C9A0E9B229223930A9BB34200D08BE1B3
:10BF0000049B24AA013B1193DB00D21811685268EC
:10BF10000C910E9228AAD3181A685B681292149397
:10BF2000049B24AADB00D318C0CB0E9B7C005900D5
:10BF30000C9A4B08300061080FF01AFF149B129AFC
:10BF40005C0063080FF014FF0A9BDC0024AB1B1994
:10BF50001A685B6815925D00159A17936B080FF0CD
:10BF600007FF28AB1C19236818936368189A5C00B4
:10BF7000199363080FF0FCFE04000D0002000B0093
:10BF80003000390022942395F6F7BAFB06000F0023
:10BF900022002B000C980E991C961D97F6F7B0FB0B
:10BFA00022000E900F912B0012981499F6F7A8FB1F
:10BFB00022002B000C900D9115981799F6F7A0FB15
:10BFC0000E9A0F9B2090219130003900F6F788F8E7
:10BFD000320004000D000E980F993B00F7F744FA69
:10BFE00002000B0020002900F6F7BEFF0C9A0D9B03
:10BFF00004000D0010001900F6F7B6FF02000B0058
:10C0000020002900F6F76CF80022604BF6F7ACFF31
:10C010000C9A0D9B04000D00300039001E941F95F2
:10C02000F6F7A2FF02000B00F6F79EFF00220600C3
:10C030000F00002320002900F4F7B6FF002808D0E5
:10C040000022002330003900F4F7AEFF002800D0B2
:10C0500069E122002B0020002900F6F785FF32005D
:10C060003B00F6F73DF80FF079FF1E9A1F9B0C92EC
:10C070000D9305000C000C980D9900220023F4F795
:10C0800099FF002802D080231B06E4180C9A0D9B10
:10C0900028002100F6F724F802000B0030003900D8
:10C0A000F6F72EFB0C900D91209E219F1C9C1D9D50
:10C0B000300022002B003900F6F712F822000E9013
:10C0C0000F912B0030003900F7F7CEF902000B007A
:10C0D0000E980F99F6F748FF0C9A0D9BF6F700F8AB
:10C0E000229A239B1C901D9118981999F6F708FB2A
:10C0F0003B003200F6F738FF229023910A9B013370
:10C100000E930E9B049A934200DC11E1119B28AA26
:10C11000DB00D3181C991D9A19605A60109B0133DB
:10C120001093BAE0D42300229B0428002100F4F7E6
:10C130004BFF002800D0AEE601230C93109B2F008C
:10C140002600142B1DDD0E9000221A981B990E4B11
:10C15000F6F70AFF02000B0028002100F4F734FF75
:10C16000002800D097E60E9B0A93002B00D07FE6B4
:10C170000C9B002B00D196E63A0033001C921D93D5
:10C1800091E60A90F4E7C0460000B03C0000E03FB2
:10C190000A9BBB4200D1B3E6049BBB4252DB129A1E
:10C1A00028AB9B185C681D68640064080A9B013317
:10C1B000BB4207DA28002100179A189BF5F790FF79
:10C1C00005000C007B1E129A149324AB9B181A686E
:10C1D0005B680C925B005B080E930022D24B280038
:10C1E0002100F6F7C1FE02000B000C980E99F4F73F
:10C1F000EBFE002829D02A0023003E001C921D934C
:10C200000C9A0E9B22922393149B24AADB00D31832
:10C210000899099A19605A60119BB34200D06DE1E8
:10C22000049B28AA013BDB00D31819685A681C91AB
:10C230001D920899099A19605A60049B5D000135A6
:10C240001C0027E000252C00B0E7129B0022083BD1
:10C25000129301231593D4230C989B040E993E004E
:10C26000F4F7B2FE0028C6D1149F36E620AB22AA0E
:10C270001CA924A800F0BAFC209A219B012102925B
:10C280000393229A239B0798009201932A0000F0BF
:10C2900031FC013C0A9B9C42E8DC109B4A2B00DCF1
:10C2A0007DE57EE1802624ABD81922AA20AB1CA90B
:10C2B00000F09CFC28ABDC19226863680C920D939B
:10C2C0001E921F93209B36061293219B1298149363
:10C2D000149D0C9A0D9BA919F6F746FE229A239BF2
:10C2E0001C901D910C980D9915001E00F6F73CFE50
:10C2F000129A149B206061600292039334002B0019
:10C30000159A009301940E99069800F0F3FB0A9B8E
:10C31000083701330A930E9B02330E930A9B119A3E
:10C320009342BFDDB9E7002300240C930D94BBE6D4
:10C330001EAB20AA22A91CA800F058FC249B259C17
:10C34000289E299F12931394209B219C1298139945
:10C350000A930B941E9B1F9C0C930D940A9A0B9BA3
:10C36000F6F702FE0C9A0D9B04000D003000390018
:10C37000F6F7FAFD02000B0020002900F5F7B0FEE9
:10C3800032003B001C901D910A980B99F6F7ECFDCA
:10C390000C9A0D9B04000D0012981399F6F7E4FD1A
:10C3A00002000B0020002900F7F75EF8269C279D6D
:10C3B00006000F000C980D9922002B002896299753
:10C3C000F6F7D2FD22002B00229023910A980B99B8
:10C3D000F6F7CAFD0C9B0D9C2690279102930394BF
:10C3E0000A9B0B9C0322009301940121079800F003
:10C3F00081FB1C9B1D9C20AA2493259422A91EAB83
:10C4000024A800F0F3FB209B219C0A930B94269B0D
:10C41000279C30000C930D940A9A0B9B3900F6F779
:10C42000A3FD1F9C1E9D2300129013910C980D9943
:10C430002A00F6F799FD02000B0012981399F5F700
:10C440004FFE3200802636061C901D913B00A1193C
:10C450002800F6F789FD0C9A0D9B06000F000A983C
:10C460000B99F6F781FD02000B0030003900F5F75B
:10C4700037FE2A9E2B9F2690279132003B002100F9
:10C480002800F6F771FD3200229023910A980B994B
:10C490003B00F6F769FD2A0023002A902B910292B7
:10C4A00003930A9B0B9C032200930194012106989D
:10C4B00000F020FB0E9B22E6802458682406001919
:10C4C0005860013108334BE00A9A0B9B1C921D9374
:10C4D0000C990D9A2300083B19605A600A9A0B9B2D
:10C4E0002900226063600798320000F039FC2900BF
:10C4F0003200069800F034FC350039E0731EDA0093
:10C5000028A95B008A1801337500106851681593DB
:10C510001C901D91089809996B1C10605160721C49
:10C520000A920E93F700F9E60000B03C049B00224B
:10C53000DC0024AB1C192668656800233000290044
:10C54000F4F738FD00280DD080231B06ED18049B5E
:10C5500007985A001B01511C26606560C3180332FE
:10C560009142A9D1049F24ABFC007D001C19013528
:10C57000002F10DC226863680A920B930A980B99CB
:10C58000A268E36801370C920D930834AE1CF4F7EF
:10C5900011FD002898D1049B5A1E049201D3FFF785
:10C5A000FCFB169A249B259C13605460269B279CB9
:10C5B0009360D46035B0F0BDD3B51668576800906D
:10C5C000019114000023002230003900F4F7ECFC44
:10C5D000002807D1009A019B30003900F6F790F847
:10C5E00020606160A668E7680022002330003900FF
:10C5F000F4F7DAFC002807D1009A019B30003900DB
:10C60000F6F77EF8A060E160D3BDD0B5002314003A
:10C61000002206000F00F4F7C7FC00281BD1226897
:10C62000636830003900F6F79FFC02000B002069B8
:10C630006169F5F755FDA268E3682061616130002A
:10C640003900F6F791FC02000B00A069E169F5F7EB
:10C6500047FDA061E161D0BDF8B50A694B690D00E5
:10C66000040041680068F6F77FFCAA69EB690600E0
:10C670000F00A068E168F6F777FC02000B003000BD
:10C680003900F5F72DFDF8BDF0B589B0029007929D
:10C690001E00002811D000290FD000200022002306
:10C6A00088420CDB3400013989008B1903930F9BFE
:10C6B000DB000493039B9C4208DD09B0F0BD109D94
:10C6C000C4002C19226063600130E9E7029B00225C
:10C6D0001B190593E3000693002327000025009211
:10C6E0000193059B08359F4210DBA01B0221FDF73B
:10C6F00099F8109BC5005D1928686968009A019B2C
:10C70000F5F7EEFC043428606960D3E7049B079AD0
:10C71000E9180E9B10395918069B08684968EB18F0
:10C72000103BD3181A685B68F6F71EFC02000B007A
:10C7300000980199F5F7D4FC013700900191D0E7FA
:10C74000F0B585B003921C0000291FD000260027F9
:10C7500000250C9B1E605F60231800930B9BDB0081
:10C760000293E3000193009B08359C4210DB0121FA
:10C770000020FDF757F80C9BC4001C192068616865
:10C7800032003B00F5F7ACFC2060616005B0F0BD05
:10C79000029B039A59190A9B10395918019B086882
:10C7A00049685B19103BD3181A685B68F6F7DCFB25
:10C7B00002000B0030003900F5F792FC013406004E
:10C7C0000F00D0E7F0B589B00092019307900E00FA
:10C7D0000098019900220023F4F7E6FB00280ED10F
:10C7E000119BF6B27600DC00F31805930E9B0F9DAB
:10C7F000DB0064420493119B059A934201D109B076
:10C80000F0BD2E686F680022002330003900F4F775
:10C81000CBFB002805D0119B083502331193103C47
:10C82000E9E73200009801993B00F6F79DFB079A73
:10C83000119B94466344069308235B421E1B02909F
:10C840000391109B119F9E19069B9F42E3DA029869
:10C850000399049A33199B181A685B68F6F784FBEE
:10C8600002000B0030687168F5F73AFC013703C627
:10C87000EAE70000F0B58BB00092019307900891B1
:10C880000022009801990023F4F78EFB00280FD1B5
:10C89000274A05009446139BDB005B420693109BDE
:10C8A000DB000493139B63440993089B9D4201DBC7
:10C8B0000BB0F0BD119AEB00D3181E685F68002220
:10C8C000002330003900F4F76FFB002804D0139BDD
:10C8D000013504331393E8E73200009801993B00D7
:10C8E000F6F742FB079A139B944663440593099B12
:10C8F000AC001C19129BE4001C1902900391069BCA
:10C900006F01139EDF1B059B9E42E0DA029803999C
:10C91000049AE3199B181A685B68F6F725FB020076
:10C920000B0020686168F5F7DBFB013603C4EAE71A
:10C93000FFFFFF1FF0B587B00292002800DC6BE01C
:10C940001300374A9B18012807D1DB00C918086873
:10C9500049684900490807B0F0BDDB00CD18002444
:10C960000023E6260027029A009301948018421EB5
:10C9700005927605029B059A93420ADD009801997B
:10C980000FF0ECFA02000B0038003100F6F7ECFA79
:10C99000E1E76B68380004932B6831000393049B34
:10C9A000039A5C0064082300F4F704FB00281ED0FF
:10C9B000039A230038003100F5F7A2FE06000F00AD
:10C9C00002000B0000980199F6F7CEFA32003B0006
:10C9D000F6F7CAFA0022134BF5F782FB009001919B
:10C9E000029B083501330293039F2600C2E73A00F9
:10C9F000330003980499F5F783FE02000B00F6F765
:10CA0000B3FA02000B0000980199F5F769FB3400B6
:10CA1000009001910397E3E7002001009BE7C046E7
:10CA2000FFFFFF1F0000F03FF0B5436885B00193A2
:10CA30005F00E62304687F08002205005B052000F4
:10CA40003900F4F7CBFA0022061E3AD1274B20001A
:10CA50000199F6F789FA02000B00F6F785FAE62746
:10CA60003400029003917F05EE68AD6873005B08A7
:10CA700001932A00019B20003900F4F79BFA00285B
:10CA800023D02A00019B39002000F5F739FE06006B
:10CA90000F0002000B0002980399F6F765FA3200C6
:10CAA0003B00F6F761FA0022114BF5F719FB0FF086
:10CAB00055FA02000B0028000199F6F755FA05B067
:10CAC000F0BD0B4B02920393CEE722003B002800FF
:10CAD0003100F5F715FE02000B00F6F745FA029A51
:10CAE000039BF5F7FDFA25000197E0E700002063BE
:10CAF0000000F03FF0B53C4B8BB0D218D30002934E
:10CB0000029A009084182268636804920593364B59
:10CB1000C918CB000793079A8518109A119B04989F
:10CB20000599F6F721FA2E686F68129A139B089000
:10CB3000099130003900F6F717FA02000B00089847
:10CB40000999F6F791FC109A119B20606160300002
:10CB50003900F6F709FA129A139B06000F000498A1
:10CB60000599F6F701FA02000B0030003900F5F7DD
:10CB7000B7FA2860696010981199029D009B079C84
:10CB800008355D1908341C192A686B6800920193F6
:10CB900026686768F6F7E8F9320002900391129868
:10CBA00013993B00F6F7E0F902000B000298039995
:10CBB000F6F75AFC320028606960109811993B0022
:10CBC000F6F7D2F9009A019B06000F00129813990C
:10CBD000F6F7CAF902000B0030003900F5F780FAC9
:10CBE000206061600BB0F0BDFFFFFF1FF0B58DB09E
:10CBF00009930B684568019303684C6806936B00C2
:10CC00005B08079363005B08089300900F00160011
:10CC1000089B019A06980799F4F7E0F9002822D0BA
:10CC2000069B0B950A93019A089B06980799F5F7BE
:10CC300057FA0022002302900391F4F7B5F9002877
:10CC400015D000230024099A136054600022434B3E
:10CC50000024326073600023009A136054603B60CC
:10CC60007C600DB0F0BD019B0B940A93DBE7029A48
:10CC7000039B06982900F5F743FD029A039B049055
:10CC8000059101982100F5F73BFD049A059B0400EE
:10CC90000D0010001900F6F767F9220004900591C5
:10CCA0002B0020002900F6F75FF902000B00049822
:10CCB0000599F5F715FA0FF051F902000B000298EB
:10CCC0000399F6F751F900220C0004900291002319
:10CCD0000A980B99F4F76EF9002803D080231B06FD
:10CCE000E31802930099049A08684968029BF5F7D3
:10CCF00007FD3060716038687968049A029BF5F727
:10CD0000FFFC04000D00099B019A1C605D60069801
:10CD1000089B0799F4F762F9002807D03C607D6012
:10CD2000049A029B00990A604B609AE73468756820
:10CD30000022002320002900F4F736F9002808D14A
:10CD400022002B0000200549F5F7DAFC38607960F5
:10CD5000E6E70022014B3A607B60E1E70000F03F2C
:10CD600073B5104BC918C90046183368746800932E
:10CD700001940C4B0831D218D20083181C685D68EE
:10CD800034607560009C019D1C605D600832411834
:10CD900080180C684D68026843680A604B60046044
:10CDA000456073BDFFFFFF1F30B50268436804692B
:10CDB0004569046045608469C569026143618268B0
:10CDC000C3688460C5608261C36130BD10B5012253
:10CDD0000821064803F014FF64200BF041FD03F026
:10CDE0009DFF431E9841404210BDC04600F10F40D8
:10CDF00020B50500080092B2190080B2002D09D0BC
:10CE000003F01EFF4042C0B2002802D00122034BB3
:10CE10001A7020BD03F03EFFF4E7C0460D18002055
:10CE2000F8B5060008009BB291B280B2204DB70061
:10CE3000069A002E08D003F00FFF4442E4B2002C03
:10CE40001BD10024EC5130E003F030FF4442E4B247
:10CE5000002CF6D02B68174A01332B60136802218F
:10CE6000013313601448012203F0CAFE0A2003F0C4
:10CE7000BBFE3200022110480FE0EB590133EB51A9
:10CE8000012E0CD1320005210C4803F0B9FE0A2016
:10CE900003F0AAFE00220521084803F0B1FEEB5979
:10CEA000042B02D90122064B1A702000F8BDC0469F
:10CEB0000C1600201016002040F00F40C0F00F406C
:10CEC0000D180020030010B588B20121002B04D0FA
:10CED00003F0ACFE4042C0B210BD03F0D1FEF9E752
:10CEE00010B503F08DFE10BD10B503F07DFE10BD32
:10CEF00010B503F07DFE10BD70470000382343439A
:10CF00000A4870B5C0180C0002F0F6F923000500BD
:10CF100002208343902B03D1FFF7E6FF280070BD6A
:10CF20000A20042CF8D00120F6E7C046681600203D
:10CF300010B5FFF7C7FF10BD10B5040006200F297C
:10CF400010D8382363430848C3189B88013B8B42A1
:10CF500000D10F2138235C430A314900C9B20019BE
:10CF600002F043F910BDC0466816002037B56B4685
:10CF70009C1D002323803833434306480D002200C4
:10CF8000C018342102F031F90A23228853432B6060
:10CF90003EBDC0466816002037B56B469C1D002379
:10CFA00023803833434306480D002200C018362141
:10CFB00002F01BF90A23228853432B603EBDC04672
:10CFC0006816002037B56B469C1D00230D0023809A
:10CFD000382103004B4305482200C01802F005F930
:10CFE0000A23228853432B603EBDC04668160020AA
:10CFF000382310B5434303480A00C018162102F035
:10D000001FF910BD6816002037B503000D0006207B
:10D01000092A16D81000F3F72BFE25051517191B42
:10D020001D1F21236A216A463820941D0022434394
:10D030000D482280C018C9B2220002F0EBF8238804
:10D040002B803EBD6C21EEE76E21ECE77021EAE714
:10D050007221E8E77421E6E77621E4E77821E2E748
:10D060007A21E0E76821DEE768160020F7B56B4615
:10D070009D1D00232B803833434304003D48290085
:10D08000C01802F03CF8002872D12A880125160049
:10D09000394963005C5C2E40AC4334435608022798
:10D0A0002E40AE405C545C5CBC43344396082E403A
:10D0B000BE405C545C5CFF19BC4334435C545C5C14
:10D0C000D6082E400437F600BC4334435C545C5C05
:10D0D00016092E4008373601BC4334435C545C5C6F
:10D0E00056092E4010377601BC4334435C545C5CD7
:10D0F00096092E402037B601BC433443D6092E4052
:10D10000F601B4467F2667465C545C5C34403C4381
:10D1100003275C54CB185978140AB9433C400C439C
:10D120005C705978940A7F192C40A400B9432143BC
:10D1300059705978D40A2C400437B943E4000C43A1
:10D140005C705978140B2C4008372401B9432143F3
:10D1500059705978540B2C4010376401B94321435E
:10D160005970D20B15405A78ED01164035435D7069
:10D17000FEBDC0466816002038160020F7B56B4685
:10D180003822DE1D00234243040023480D0080188E
:10D190000A003100337001F06FFF002808D1002D24
:10D1A00003D0012D05D0062002E032781B4B1A5522
:10D1B000FEBD042731781A4B8E081A5D2E40B6004A
:10D1C000BA4332431A551A5DCE082E40FF19F600B5
:10D1D000BA4332431A551A5D0E092E4008373601FC
:10D1E000BA4332431A551A5D4E092E401037760164
:10D1F000BA4332438E09C9092E4029407F251A556A
:10D200001A5D2037B601BA4332431A551A5DC90177
:10D210002A4011431955CBE7681600205F160020FD
:10D2200060160020F7B56B46DE1D002333703833DF
:10D230004343040026480D00C0180A0001233100B2
:10D2400001F01AFF002808D1002D03D0012D05D0D0
:10D25000062002E032781F4B1A55FEBD31780227B6
:10D260000E001D4B2E401A5DAA4332431A551A5D1B
:10D270004E082E407600BA4332438E082E40BE4000
:10D280001A551A5DFF19BA4332430E092E40BE40AB
:10D290001A551A5D0C37BA4332431A551A5D4E09B6
:10D2A0002E4010377601BA4332438E09C9092E4009
:10D2B00029407F251A551A5D2037B601BA433243FB
:10D2C0001A551A5DC9012A4011431955C5E7C046D0
:10D2D00068160020611600206216002073B56B46A8
:10D2E000DC1D002323703833434305000B480E0038
:10D2F000C0180A000223210001F0BEFE002808D158
:10D30000002E03D0012E05D0062002E02278044B27
:10D310005A5576BD2278034BFAE7C04668160020BE
:10D320006316002064160020F7B56B46DD1D002350
:10D330002B7038334343040020482900C01801F003
:10D3400040FF002838D12A78012116001C4B0E40DE
:10D350001D5D02278D43354356080E408E401D55F6
:10D360001D5DBD43354396080E40BE401D551D5DF5
:10D37000FF19BD4335431D551D5DD6080E400437CA
:10D38000F600BD4335431D551D5D16090E40083797
:10D390003601BD4335431D551D5D56090E401037FE
:10D3A0007601BD4335431D551D5D92090A403F314D
:10D3B00092018D432A431A55FEBDC04668160020CF
:10D3C0005C160020F8B5050006A806780620002D9A
:10D3D00057D10338012954D8102B52D80330082ACA
:10D3E0004FD1284CA3802300A270274A2570657076
:10D3F000E170083383CA83C383CA83C383CA83C3E8
:10D4000012681A60230030331E700798F6F710FC7C
:10D4100002000B001D481E49F5F772F9F6F75AFC99
:10D4200060632800FFF722FE90212800FFF766FDC9
:10D43000002826D1200000F03FFD002821D1200047
:10D4400000F060FF00281CD1200001F0ABF800289C
:10D4500017D1200001F020F9002812D1200001F09E
:10D46000CBF900280DD10B49200001F0B1FA0028BA
:10D4700007D1200001F096FD002802D19221FFF78C
:10D480003DFDF8BD68160020A4C6010063EE5A42B7
:10D490003EE81D4014160020F7B504000F00C046FA
:10D4A0006B469E1D00233380383343434D480A00AA
:10D4B000C018310001F039FE051E00D084E0012FB4
:10D4C00000D183E0002F04D0022F00D186E0062592
:10D4D0007AE0338801211E00434A6000845C0E40DC
:10D4E0008C4334435E0802270E408E408454845C93
:10D4F000BC4334439E080E40BE408454845CFF19F4
:10D50000BC4334438454845CDE080E400437F60088
:10D51000BC4334438454845C1E090E4008373601F2
:10D52000BC4334438454845C5E090E40103776015A
:10D53000BC4334438454845C9E0920370E40B601BA
:10D54000BC4334438454845CDE09BC460E403F3700
:10D55000F6013C40344384545C0A02260C408C4063
:10D5600010184278B24322439C0A0C40B4404270E7
:10D570004278B619B243224342704278DC0A0C402A
:10D580000436E400B2432243427042781C0B0C4044
:10D590000836B24324011443447042781036B24333
:10D5A00066465C0B0C4064012243427042789C0B3F
:10D5B0000C40A401B24322434270DB0B1940437874
:10D5C000C9011F40394341702800FEBD074B600070
:10D5D0001818022231000EF0E3FDF5E76000044C5C
:10D5E0002018F6E7681600203616002034160020B2
:10D5F000321600201FB5012393406A46D38003AA48
:10D6000013803823434304480A00C018039901F0EB
:10D61000B7FD05B000BDC0466816002030B589B022
:10D6200005002022002168460EF0C3FD38236B431D
:10D630000A486A46C018752120236C4601F061FE35
:10D64000002808D1064B6D015B1926CC26C326CCD9
:10D6500026C306CC06C309B030BDC04668160020FC
:10D660003C160020382310B5434304480022C0185C
:10D670008321022301F04EFE10BDC0466816002033
:10D68000002370B515001A00DCB2A54208D8382373
:10D69000434306488321C018022301F03BFE70BDBE
:10D6A000CC5C9C40224392B20133EDE76816002027
:10D6B00010B502AC24788900640022430A43DB00E1
:10D6C0001A4338234343044852B292B2C0189721F8
:10D6D000012301F01FFE10BD68160020002373B562
:10D6E00001AD2B803833434304000C482A00C01896
:10D6F0005721022301F005FE061E0CD16B466A7805
:10D70000991D07482B78120264009B180019022209
:10D710000B800EF045FDC046300076BD6816002037
:10D720005D160020F0B5040087B00E00FFF7FCFD89
:10D730002000FFF7D3FF4B4B6200D35CDD06ED0FFB
:10D74000012D00D074E0002E0DD193212000FFF7B1
:10D75000D5FB002802D12000FFF7E6FD2000FFF7EF
:10D76000E3FD07B0F0BD0020FFF7DEFD002207005B
:10D7700007213D48FFF7B4FB2000FFF7D5FD002847
:10D780004ED13A4E335D9C46335D325D305D325D45
:10D79000315D5B0849090391315D2B408909049192
:10D7A000315D5B00C907C90F0591614629400B43F4
:10D7B0000421C0080B43284049188B43C00018437C
:10D7C000102312092A409843120102432020290005
:10D7D000039B82432B405B011A43049B00182B40A0
:10D7E0009B0182431A43D2B2335D9208305D91436C
:10D7F0009B0700070A000599C00FDB0F6B406940CB
:10D80000454000952000FFF753FF002808D1200075
:10D81000FFF78AFD002803D1335D5B0700D5C046C2
:10D82000C046002F9AD12000FFF77EFDC04695E745
:10D830000E4D2A5D5207D20F964200D18EE75B074C
:10D84000DB0FB34200D189E720212000FFF756FB10
:10D850002B5D1B0700D581E722212000FFF74EFB3F
:10D860007CE7C0465D16002000F00F405C160020EB
:10D87000F0B5040085B00E00FFF756FD2000FFF75D
:10D880002DFF3B4B6200D35CDD06ED0F012D59D11E
:10D890009421002E68D02000FFF746FD002847D1D4
:10D8A000344E335D375D335D315D9B089C46305DA2
:10D8B000325D335D7F089B09039363462F402B4005
:10D8C000C9087F002F4329409B003B43CF0008211C
:10D8D0008B43190039431027000928400001B94340
:10D8E0000143202052092A40520181431143402222
:10D8F0002F00039B91432B409B01325D1943335D05
:10D90000305D52079B070007C00FD20FDB0F6B4043
:10D910006A408F434540390000952000FFF7C8FE5C
:10D92000002805D12000FFF7FFFC002800D1335D5F
:10D93000002208211048FFF7D3FA2000FFF7F4FC7B
:10D9400005B0F0BD0B4D2A5DD207D20F9642F4D040
:10D950009B07DB0FB342F0D01F212000FFF7CEFA68
:10D960002B5D1B07E9D422212000FFF7C7FAE4E76B
:10D970005D1600205C16002080F00F40F7B51021E6
:10D980000400FFF7BBFA002803D110212000FFF7A5
:10D99000B5FAFFF7ADFA38270E4E01903B0063430E
:10D9A000F31899782000FFF78DFA0500012806D0BA
:10D9B000FFF79EFA019BC01A074B9842EED9FFF77A
:10D9C00097FAC046002D02D1C0460120FEBDC046D8
:10D9D0000020FBE768160020E703000010B5041ED6
:10D9E0000CD1012202210A48FFF77AFA6420FFF7DE
:10D9F0007BFA220002210648FFF772FA38226243BE
:10DA0000044B20009B189978FFF75CFAC04610BDC4
:10DA100040F00F406816002010B5041E0CD1012202
:10DA200003210A48FFF75CFA6420FFF75DFA220041
:10DA300003210648FFF754FA6420FFF755FA08213E
:10DA40002000FFF73FFAC04610BDC04680F00F40EF
:10DA500000234118884202D1D843C0B270470278EF
:10DA600001309B18DBB2F5E70200002330B5054D0D
:10DA7000141AA14201DC180030BD14780132634051
:10DA8000EB5CF5E7CCC60100F0B50E00150097B0D1
:10DA900000931CAB06AC1B780390402200212000B1
:10DAA00001930EF086FB05A873000370009B032111
:10DAB0001B784570257083706370FFF7D5FF0125D3
:10DAC0002700A070019B9D420CD35A000132D2B2B4
:10DAD000230031000398FFF78BF9002800D0C046DF
:10DAE00017B0F0BD009B6A005B5D0292BA185370DC
:10DAF00004AA0121D01CD370FFF7B6FF029B0135A9
:10DB00000233D855DEE7F0B5A9B005932EAB1B78EC
:10DB100007000C0016000021402218AD08A803934E
:10DB20000EF047FB4022002128000EF042FB0023AC
:10DB300004AAD372039B00955B00DBB23200210084
:10DB40003800FFF76DF9002822D107A8467001269A
:10DB500064000470344384702C780421C470FFF78F
:10DB600083FF04AB6F781C740B2304AA3F1A9B1825
:10DB7000781E87411C000495039B9E420AD3002314
:10DB80000399DAB291421AD8781E87417842C0B21E
:10DB900029B0F0BD1021049B7500EB5C04AA52185B
:10DBA00093550F3920002370FFF75EFF049B013669
:10DBB0005D196B78181A431E98413F18DCE7102155
:10DBC00004AA5218D25C0599CA540133D8E7F0B5BB
:10DBD0008BB00591049341780400160002200029BF
:10DBE00035D1A778237808AC07AD0622200003932F
:10DBF000297069700EF0DDFA6B461B7D01202370E1
:10DC0000059BA6701B0A6370FFF76EF9049B022B3D
:10DC10001FD0042B32D003263000012B17D10096E1
:10DC200023003E2239000398FFF72EFF00280ED173
:10DC300031002000FFF70CFF052328706B70033BB9
:10DC4000009360222B0039000398FFF71DFF0BB0F3
:10DC5000F0BD360AE6700426230000963E22390005
:10DC60000398FFF711FF0028F1D131002000FFF7E2
:10DC7000EFFE062328706B70049BE1E7330AE37024
:10DC8000330C23710623360E66713E220093390051
:10DC900023000398FFF7F8FE0028D8D106212000C2
:10DCA000FFF7D6FE082328706B70063BC8E730B537
:10DCB0004278030085B00220002A0BD11C789D78A1
:10DCC00003AB1970090A59703E32009029002000F8
:10DCD000FFF7DAFE05B030BDF0B58DB0049312AB9E
:10DCE000170004CB05001B7805910793431E98414C
:10DCF000C0B20692FFF700F96B780224002B47D1DF
:10DD000009AA13800AAEAA780B93337073706B461E
:10DD10001B7D02922A780BAD2B70059B03921B0A88
:10DD20006B70049B012B36D0002B03D0A3424DD047
:10DD300003242DE000942B003E2202990398FFF764
:10DD4000A3FE2600041E23D1FFF7D2F80700049695
:10DD5000049B09AD00933E222B0002990398FFF724
:10DD6000D2FE06000400FFF7C3F8C01B05280FD839
:10DD70002A78FF2A02D16B78FF2BE9D00BAB1978F8
:10DD8000914203D15A786B789A4235D0C04601242B
:10DD900020000DB0F0BDAF7003272B0000973E228E
:10DDA00002990398FFF770FE041EF1D13900280094
:10DDB000FFF74EFE052330707370033B0093602223
:10DDC000330002990398FFF75FFE1FE0AF703F0A30
:10DDD000EF7004272B0000973E2202990398FFF76B
:10DDE00053FE041ED4D139002800FFF731FE06236C
:10DDF00030707370049BE1E7002EC9D1079B40226D
:10DE000000930299069B0398FFF77DFE0400BFE78D
:10DE1000F0B587B01F000CAB140004CB05001B78D5
:10DE20000E000293431E9841C0B20392FFF764F8BC
:10DE30006B780220002B11D105ABA9781C70240A45
:10DE400028785C70002F03D0012F09D0032005E053
:10DE5000029B32000093039BFFF755FE07B0F0BD15
:10DE6000029A00923200FFF70FFEF7E770B51D1C13
:10DE700014000E00F4F79EF8291CF3F7CFFB0DF009
:10DE8000BBFF051C2000F4F795F8011C281CF3F7D4
:10DE9000DFF800280DD13000F4F78CF8011C281CA5
:10DEA000F3F7C2F83400002803D1281CF4F762F815
:10DEB0000400200070BD0000F0B5060097B00CAF64
:10DEC0001222002138000EF074F9330030331C7830
:10DED000012C00D13CE1002C05D0022C00D183E1C3
:10DEE0000220C04632E111AD2100122228000EF0BE
:10DEF00060F901220E211020AB7813438B430239C5
:10DF00000B43034330380343AB70EB7823301A43A1
:10DF10000B23EB71073BEA701A0002432A721A00C6
:10DF20000243AA721A000243EA721A00014369739B
:10DF3000022102432A73AA7B82430A431A43AA732B
:10DF40002A782D308243203810436A782870134392
:10DF50006B7064233A0028009C466B748AC88AC29E
:10DF6000076863461760808827009080AA7801922E
:10DF7000EA780292EA790492039402242A7A0A93B4
:10DF80000592AA7A0692EA7A07922A7B08926A7B1D
:10DF90000992AA7B0B9201200A23002C00D070E189
:10DFA000F5F70EFEC64AC74BF4F7DEFFF3F7C6F8E7
:10DFB0003300313318700CAB1B8811AD11942B80DA
:10DFC000119A0223C0493000FFF701FE002800D05B
:10DFD000BCE06B461B7911942B70119A0123BB494D
:10DFE0003000FFF7F4FD002800D0AFE06B461B7A4D
:10DFF00011942B70119A0123B5493000FFF7E7FD0A
:10E00000002800D0A2E001232200B2493000119480
:10E01000FFF7DDFD002800D098E06B461B7BAE4982
:10E020002B70119A01233000FFF7D1FD002800D09A
:10E030008CE011942F700123119AA8493000FFF74A
:10E04000C6FD002800D081E06B461B7C11942B702C
:10E05000119A0123A2493000FFF7B9FD002875D1BC
:10E060006B461B7D11942B70119A01239D49300042
:10E07000FFF7ADFD002869D1012322009A49300045
:10E080001194FFF7A4FD002860D16B461B7E11ADF3
:10E090002B70119A012395493000FFF798FD002855
:10E0A00054D16B4693211B7F11902B70119A012341
:10E0B00009023000FFF78BFD002847D120226B4674
:10E0C0009B181B7811902B70119A012388493000FE
:10E0D000FFF77DFD002839D124226B469B181B7861
:10E0E00011902B70119A012382493000FFF76FFDC8
:10E0F000041E2BD12C226B469B181B7811902B7081
:10E10000119A01237C493000FFF761FD00281DD1E1
:10E11000B3880330102B19D800D0B5E022000E3B95
:10E1200076493000FFF753FD00280FD128216A46B9
:10E130005218127811AB11901A70119A012370497C
:10E140003000FFF744FD002800D1CAE617B0F0BD4B
:10E1500011AD1222002128000EF02BF80E23220010
:10E160009A4313001422524213431832AB70110029
:10E170000323194329721100EC7002241943A97278
:10E18000200011001840194313002343AB731023E0
:10E19000E97228212B700B3B6A7008439C463A00B9
:10E1A00029006C71AC716B742873687389C989C25A
:10E1B00063460868106089889180AA78AF790192D7
:10E1C000EA7802926A7903922A7A0592AA7A0A93E5
:10E1D00000230692EA7A049307922A7B08926A7BCC
:10E1E0000992AA7B0B92D6E611AD122200212800DB
:10E1F0000DF0DFFF0C2101220800202310435B42B9
:10E200000343AB7004231800EA7002321043E87134
:10E2100008201043287218001043A87218001043F9
:10E22000E872180010430A436A731A002243AA7363
:10E2300010226B7001332A709C463A0029006C71E1
:10E24000AC716B74287389C989C263460868106011
:10E2500089889180AA78AF790192EA7802926A79E6
:10E260000392EA7904922A7A0A930592AA7A06928C
:10E27000EA7A07922A7B08926A7B0992AA7B0B9220
:10E2800089E65843013C88E6072B00D85EE7102258
:10E29000DBB2591ED31A2200C9B2DBB29C4204DBA6
:10E2A0008A40D243022392B23AE725000120002D92
:10E2B00003D1121892B20134F0E74000013DF6E7B5
:10E2C0009A9999999999B93F349200003692000031
:10E2D0003792000038920000FA920000FB92000092
:10E2E000FC920000FD920000FE920000FF920000F0
:10E2F00001930000029300000393000004930000C8
:10E3000007930000F0B5040089B00D220021684693
:10E310000DF04FFF230030331D78012D3ED0002D2E
:10E3200004D0022D00D1F9E00220F4E004AE29006F
:10E330000D2230000DF03DFF04220821102020277F
:10E340000125B37813430B43034388393B430B4305
:10E35000B370F3782B436D192B4313430343AC463F
:10E360003B433E352B430B43F3707379383D1D43DC
:10E3700005430D4375710125B3792B431843337A57
:10E3800008431A433A430A4332726246737AB071C1
:10E3900013431F43394371721B232CE004AE0D223B
:10E3A000002130000DF005FF04239C466246102139
:10E3B0002020DB1813430B43843A03431343B37009
:10E3C000022367462B433B430B4303433C373B430A
:10E3D0001343F37008230B431343737163460343E2
:10E3E0001F43022329431843114317430243B171CA
:10E3F00037727272193330226B441A7045325A7078
:10E400003100683A68460DF0CBFE6B461A8804ADC1
:10E410002A80022358492000FFF7D9FB002800D0AA
:10E420007AE06B469B7828802B702A880123534919
:10E430002000FFF7CCFB00286ED16B46DB782880EC
:10E440002B702A8801234E492000FFF7C0FB0028CB
:10E4500062D16B461B7928802B702A880123494999
:10E460002000FFF7B4FB002856D16B465B7928806B
:10E470002B702A88012344492000FFF7A8FB0028BD
:10E480004AD16B469B7928802B702A8801233F490B
:10E490002000FFF79CFB00283ED16B46DB792880EB
:10E4A0002B702A8801233A492000FFF790FB0028AF
:10E4B00032D16B461B7A28802B702A88012335497C
:10E4C0002000FFF784FB002826D16B465B7A28806A
:10E4D0002B702A88012330492000FFF778FB0028A1
:10E4E0001AD16B469B7A28802B702A8801232B49EE
:10E4F0002000FFF76CFB00280ED10B21022269449B
:10E5000028000DF04DFE2A88022325492000FFF740
:10E510005EFB002800D1C04609B0F0BD04AE0D225C
:10E52000002130000DF045FE04239C466246102178
:10E530002020DB1813430B43843A03431343B37087
:10E54000012367462B433B430B433C3703433B4389
:10E550001343F37008230B431343737101231943CF
:10E56000634603431F430543114317432A43B171D5
:10E570003772727210E7C0465F920000619200002D
:10E5800062920000639200006592000066920000B3
:10E5900067920000699200006A9200006B9200008E
:10E5A000739200000300F0B530331B7885B004008F
:10E5B000012B05D0002B5ED0022B5CD0022057E04F
:10E5C00008222E49891802A80DF0EAFD02AA577800
:10E5D0005688928802AB1B78009202AA9579D2796C
:10E5E000274901920022029202AA1370029A012383
:10E5F0002000FFF7ECFA00283BD102AB02901F701D
:10E60000029A01231F492000FFF7E1FA002830D1C8
:10E6100002AB02901E80029A02231B492000FFF7E2
:10E62000D6FA002825D16A46128802AB02901A80D9
:10E63000029A022315492000FFF7C9FA002818D1D1
:10E6400002AB02901D70029A012311492000FFF7CE
:10E65000BEFA00280DD16A46127902AB02901A70F8
:10E66000029A01230B492000FFF7B1FA002800D1DC
:10E67000C04605B0F0BD08220049A4E7D2C10100A0
:10E6800008930000099300000A9300000C93000017
:10E690000E9300000F9300000300F0B530331B7899
:10E6A00085B00400012B18D0002B04D0022B00D120
:10E6B00084E002207FE0102180220B43524203A815
:10E6C000134303704A230B431A434270038802AA80
:10E6D00013800123019101210FE080225242102179
:10E6E000150003A80D430570422501910D4300213B
:10E6F0002A434270028802A802800022102580204E
:10E70000039202AA167840422E4306431670022650
:10E7100008275278C9003243BA430A43AA431B016F
:10E72000134340221343184302AB58701B8803ADB8
:10E730002B80039A33002A492000073FFFF747FA4E
:10E74000002839D1FA235B0003902B80039A330011
:10E7500024492000FFF73BFA00282DD1FA235B0063
:10E7600003902B80039A33001F492000FFF72FFAF4
:10E77000002821D1052303902B70039A3B001B49ED
:10E780002000FFF724FA002816D16B461B7903906E
:10E790002B70039A3B0016492000FFF718FA002857
:10E7A0000AD1636B626B0393124904232000FFF7C5
:10E7B0000EFA002800D1C04605B0F0BD80225242BA
:10E7C0001020150003A905430D7048252B43134362
:10E7D0004B700B8802AA1380019000237BE7C04690
:10E7E0006D9200001093000012930000149300003B
:10E7F00043930000A89100000300F0B530331B786C
:10E800008DB00400012B00D1C4E0002B04D0022BFA
:10E8100000D1BFE00220BAE00E226049103108A802
:10E820000DF0BEFC08AA57789678D578127908AB17
:10E830001B78049208AA52795949039208AAD288EF
:10E840002000029208AA127A019208AA527A009233
:10E8500008AA5289059208AA127B079208AA527B3D
:10E8600006920022089208AA1370089A0123FFF763
:10E87000AEF9002800D08BE008AB08901F70089A12
:10E88000012348492000FFF7A2F9002800D07FE0CB
:10E8900008AB08901E70089A012343492000FFF737
:10E8A00096F9002874D108AB08901D70089A0123CE
:10E8B0003E492000FFF78BF9002869D16A46127C97
:10E8C00008AB08901A70089A012339492000FFF715
:10E8D0007EF900285CD16A46127B08AB08901A705A
:10E8E000089A012333492000FFF771F900284FD11E
:10E8F0006A46128908AB08901A80089A02232E49AA
:10E900002000FFF764F9002842D16A46127908AB6B
:10E9100008901A70089A012328492000FFF757F938
:10E92000002835D16A46127808AB08901A70089A08
:10E93000012323492000FFF74AF9002828D16A461D
:10E94000928A08AB08901A80089A02231D49200079
:10E95000FFF73DF900281BD16A460023127F089378
:10E9600008AB1A70089A012317492000FFF72FF906
:10E9700000280DD16A46127E08AB08901A70089ADA
:10E98000012312492000FFF722F9002800D1C046D8
:10E990000DB0F0BD01490E221E3140E7D2C1010089
:10E9A0003593000036930000379300003893000041
:10E9B000399300003A9300003B9300003D93000020
:10E9C0003E9300003F9300004193000042930000FB
:10E9D000F0B50B7F8DB004000D00002B1CD1AF23D0
:10E9E0001B010B80E54B34224B80E54B8B80E54BC4
:10E9F000CB8037230B8119334B81123B8B81CA812A
:10EA00000D320A824B82433B8B820333CB82083B1D
:10EA10000B8303334B83C0462888DB4B50221421E1
:10EA200080B2FFF723FA07006888D74B50221421E1
:10EA300080B2FFF71BFA0090A888D34B6E221421F6
:10EA400080B2FFF713FA0600E888CF4B6E2214213C
:10EA500080B2FFF70BFA0190288980B2F5F76EF8C3
:10EA60000022CA4BF4F780FAF5F734F880233E22EF
:10EA7000DB050221FFF7FAF90290688980B2F5F709
:10EA80005DF80022C14BF4F76FFAF5F723F8802305
:10EA90006422DB050221FFF7E9F9FE232821039018
:10EAA000A8899B057822494200B2FFF7DFF9FE23CF
:10EAB00028210490E8899B057822494200B2FFF79B
:10EAC000D5F9FE2328210590288A9B057822494202
:10EAD00000B2FFF7CBF9FE2328210690688A9B0538
:10EAE0007822494200B2FFF7C1F9FE23282107909E
:10EAF000A88A9B057822494200B2FFF7B7F9FE23A6
:10EB000028210890E88A9B057822494200B2FFF745
:10EB1000ADF9FE2328210990288B9B0578224942D4
:10EB200000B2FFF7A3F9FE2328210A90688B9B050A
:10EB30007822494200B2FFF799F9FF253A000B907D
:10EB40002A40012392492000FFF741F8002800D015
:10EB500002E204238F4A90492000FFF738F800288A
:10EB600000D0F9E1009B8D49DF1BFAB201232000A0
:10EB7000FFF72DF8002800D0EEE1320001232A40F3
:10EB800087492000FFF723F8002800D0E4E10423A0
:10EB9000804A84492000FFF71AF8002800D0DBE102
:10EBA000019B8149F61AF2B201232000FFF70FF80A
:10EBB000002800D0D0E1029A01232A407B4920009E
:10EBC000FFF705F8002800D0C6E104237722784932
:10EBD0002000FEF7FCFF002800D0BDE10200022368
:10EBE00074492000FEF7F3FF002800D0B4E1039A37
:10EBF00001232A4070492000FEF7E9FF002800D0D9
:10EC0000AAE1042377226D492000FEF7E0FF0028E7
:10EC100000D0A1E10423172269492000FEF7D7FFA5
:10EC2000002800D098E10423772266492000FEF7EF
:10EC3000CEFF002800D08FE101230422624920008A
:10EC4000FEF7C5FF002800D086E1012305225F49B9
:10EC50002000FEF7BCFF002800D07DE101235C49C5
:10EC60001A002000FEF7B3FF002800D074E1022351
:10EC7000584A59492000FEF7AAFF002800D06BE14E
:10EC80000123022255492000FEF7A1FF002800D0F1
:10EC900062E10200022352492000FEF798FF00289B
:10ECA00000D059E16B4610224E499A5620000123AC
:10ECB000FEF78DFF002800D04EE1012319224A49BA
:10ECC0002000FEF784FF002800D045E16B461422A7
:10ECD00046499A5620000123FEF779FF002800D00C
:10ECE0003AE16B46182242499A5620000123FEF76A
:10ECF0006EFF002800D02FE1012302223D492000B1
:10ED0000FEF765FF002800D026E16B461C223A4939
:10ED10009A5620000123FEF75AFF002800D01BE17D
:10ED20000123732235492000FEF751FF002800D04F
:10ED300012E10123052232492000FEF748FF002896
:10ED400000D009E101236E222E492000FEF73FFF8B
:10ED5000002800D000E1012355222B492000FEF7B6
:10ED600036FF002800D0F7E00123022227492000C7
:10ED7000FEF72DFF002800D0EEE049E0220B000056
:10ED80009A1000008110000066664A420000E03FD1
:10ED900075920000FE070000769200007B92000052
:10EDA00078920000799200007C920000809200002E
:10EDB00081920000889200008292000083920000FD
:10EDC00084920000859200008692000087920000E5
:10EDD00094920000D8DCFFFF8A9200008C92000021
:10EDE0008D9200009A9200009B9200009C9200007D
:10EDF0009D9200009E9200009F920000A092000051
:10EE0000A1920000A2920000A3920000A492000030
:10EE10000123502251492000FEF7D9FE002800D0DE
:10EE20009AE020226B469B1800224D499A562000FA
:10EE30000123FEF7CCFE002800D08DE00123022242
:10EE400048492000FEF7C3FE002800D084E02422B9
:10EE50006B469B18002244499A5620000123FEF776
:10EE6000B6FE002878D128226B469B1800223F4925
:10EE70009A5620000123FEF7AAFE00286CD1012338
:10EE800002223B492000FEF7A2FE002864D12C227A
:10EE90006B469B18002237499A5620000123FEF743
:10EEA00096FE002858D114220123524232492000F4
:10EEB000FEF78DFE00284FD1012302222F492000AA
:10EEC000FEF785FE002847D10F22012352422C492C
:10EED0002000FEF77CFE00283ED1012302222949B2
:10EEE0002000FEF774FE002836D102233C2226497A
:10EEF0002000FEF76CFE00282ED1020001232349DA
:10EF00002000FEF764FE002826D1022301222049BA
:10EF10002000FEF75CFE00281ED1022301221D49BD
:10EF20002000FEF754FE002816D10223FA221A49C7
:10EF30002000FEF74CFE00280ED1E1220223D20071
:10EF400016492000FEF743FE002805D1022314498C
:10EF50001A002000FEF73BFE0DB0F0BDA5920000A8
:10EF6000A6920000A7920000A8920000A9920000BB
:10EF7000AA920000AB920000AC920000AD9200009B
:10EF8000AE920000AF920000B2920000B492000076
:10EF9000B5920000B6920000BA920000BC92000048
:10EFA000BE920000030010B52C331B780400022031
:10EFB000002B4ED11E23E25E264903002000FEF7FF
:10EFC00006FE002845D11C23E25E234902232000CF
:10EFD000FEF7FDFD00283CD11A23E25E1F49022303
:10EFE0002000FEF7F4FD002833D11823E25E1C490F
:10EFF00002232000FEF7EBFD00282AD11623E25E53
:10F00000184902232000FEF7E2FD002821D1262323
:10F01000E25E154902232000FEF7D9FD002818D131
:10F020002423E25E114902232000FEF7D0FD0028D0
:10F030000FD12223E25E0E4902232000FEF7C7FD16
:10F04000002806D12023E25E0A4902232000FEF7B1
:10F05000BEFD10BDEA910000EC910000EE910000B1
:10F06000F0910000F2910000F4910000F691000090
:10F07000F8910000FA9100007FB50F2400266C443F
:10F080000D002670012B1BD0B34203D0022B26D0DB
:10F09000062013E0002A06D0012AF9D1019200943B
:10F0A0001A00032104E001230221019313000094BC
:10F0B000FEF7AEFE002801D123782B7004B070BD9E
:10F0C000002A07D0012AE3D10192009433003200D4
:10F0D0000521EDE70193009413000421E8E7002ADD
:10F0E00007D0012AD4D101920094330032000721C5
:10F0F000DEE701230094019306211300D8E70022E4
:10F10000022330B585B003AC22800D00019300943A
:10F1100013001221FEF77CFE002804D162782378C8
:10F1200012029B182B8005B030BD30B50D000021B8
:10F1300085B003AC2180012A15D08A4203D0022A6F
:10F1400018D002200DE002236221019313000094E5
:10F15000FEF75EFE002804D16278237812029B1825
:10F160002B8005B030BD02230A00019300940B00F0
:10F170006421EDE701920B000A0000946621E7E7A5
:10F1800030B514001625002287B003AB198005A9FD
:10F190006D440A80944203D0022C0CD0062008E073
:10F1A0001A8802232A8001930091013B6221FEF715
:10F1B0002FFE07B030BD1A8801232A8001940091E8
:10F1C000F4E730B50F240022012385B06C4422708F
:10F1D0000D000193009413007F21FEF719FE002813
:10F1E00001D123782B7005B030BD30B50223150056
:10F1F000002285B003AC2280019300941300FEF737
:10F2000007FE002804D16278237812029B182B8015
:10F2100005B030BD30B502231500002285B003AC27
:10F220002280019300941300FEF7F2FD002804D120
:10F230006278237812029B182B8005B030BD000045
:10F24000F0B500242B4F87B002AB039106001500E8
:10F250002100202238009C810CF0ABFF039B162B71
:10F2600019D03A2B34D00620142B2DD1202300970F
:10F2700001932200230075213000FEF72DFD0028A8
:10F2800022D17A7D3B7D12029B1832001BB22B608B
:10F290003132127812E020230097019322002300DC
:10F2A00075213000FEF718FD00280DD1FA7DBB7DD9
:10F2B00012029B181BB22B603136327853432B60FD
:10F2C00031330020622B01D907B0F0BD2860FBE785
:10F2D0000223019305AB0093220023000399300021
:10F2E000FEF796FD0028EFD102AB5A7B1B7B120282
:10F2F000DFE7C046A016002010B589B2FEF7D7FCA4
:10F3000010BD07B501930023009289B21A00FEF7E1
:10F31000E3FC0EBD30B50F24002585B06C4425708C
:10F32000012B03D0022B01D0062004E089B2019307
:10F330000094FEF7D1FC05B030BD0000F7B5060023
:10F3400014001F00002805D1174B994206D901204F
:10F350004042FEBD012801D1144BF6E7A31E072B46
:10F36000F5D800236A46124D1370537093701371D1
:10F3700028000B002100D67008F0E0FA0028E6D142
:10F380003B0022003100280008F072FB0028DED18B
:10F3900014226243074B2100D218280008F042FBD8
:10F3A000431E9841D4E7C046FF070000FFFFFF1F40
:10F3B00020C80100E4160020430700D5C04603071B
:10F3C00000D5C046430600D5C046030600D5C0465A
:10F3D000C30500D5C046830500D5C046430500D50A
:10F3E000C046C30400D5C046830400D5C0464304CC
:10F3F00000D5C046030400D5C046C30300D5C046AF
:10F40000830300D5C046430300D5C046030300D59F
:10F41000C046830200D5C046704700000122054B5C
:10F4200010B51A7003F054FEC046FFF7C5FFC04682
:10F4300010BDC046CC160020F0B5150085B00029DF
:10F4400006D0012942D00020FFF7B6FF05B0F0BD7D
:10F45000284E294A31681368CB1A012B00D0C046C8
:10F46000142411606C43254A02941368244C013320
:10F470001360029B29001F193A00224808F0D2FAB3
:10F480007968214B03900022994204D91F4A8A428D
:10F4900092415242013214235D43029865190830AB
:10F4A00024182B7C0020009401F0B0FA2B7A6A7AA1
:10F4B0001B0612049B18AA7A12029B18EA7A9B1860
:10F4C0003360039B002BBED0C046BCE7104A1368D4
:10F4D0000133136009F0D2F900220E4B1B68C01AE9
:10F4E0000D4B18600D4B5A550D4B1A689042AAD916
:10F4F0001860A8E7E0160020D4160020DC160020D3
:10F50000E416002020C80100FF070000FFFFFF1FD6
:10F51000D8160020C8160020C4160020AC17002002
:10F52000D016002073B5364E3368002B02D0012070
:10F53000404276BD334D3449280008F03DF9041EA1
:10F54000F5D102003149280008F0C6FA6B680125A0
:10F5500001936B46220018792D4903F0C7FD022163
:10F560000B20356005F0B2FF02210A2005F0AEFF46
:10F57000012309225B4216212000FFF7DFFE00284D
:10F5800001D0C046D3E70423C0215B420822C90052
:10F59000FFF7D4FE0028F4D1012307225B42542157
:10F5A000FFF7CCFE0028C2D1012306225B42542182
:10F5B000FFF7C4FE0028BAD1012305225B4215499A
:10F5C000FFF7BCFE0028B2D1012304225B4211499F
:10F5D000FFF7B4FE0028AAD1D3210F4B0322090460
:10F5E0002800FFF7ABFE0028A1D1D3210A4B02224D
:10F5F00009042800FFF7A2FE002898D1C04698E72A
:10F60000C016002020C80100ECC7010039F400003A
:10F610001DF4000056030000FFFFD0FF70B50A4D37
:10F620002B68012B02D00120404270BD074808F032
:10F6300035F9041EF7D10100022205480CF0B9FD8E
:10F640002C602000F1E7C046C016002020C8010051
:10F65000AC170020F0B514000D008BB005AE019082
:10F660001422002130000CF0A4FD019B220029008F
:10F6700007A8736034740CF093FD03230093394B97
:10F680001D78002D3AD05A78002A3CD1013215005D
:10F69000012101989954344B002183429B4103AAD4
:10F6A0005B42117051709170117130482900D37014
:10F6B00008F00CF9320029002C4808F079F909F01B
:10F6C000DDF82B4F38602900284808F0E7F9041EC0
:10F6D00016D1284928480CF001FA09F0CFF80100AA
:10F6E00026480CF0FBF9210025480CF0F7F92548D5
:10F6F0000CF0F4F9C04620000BB0F0BD2A00C7E7BB
:10F70000012828D1C046009B013BDBB20093002BAF
:10F71000B5D11D4C2378012B07D101F0DBFA00286D
:10F7200001D101F0D3FA00232370C04611491248D9
:10F730000CF0D4F909F0A2F8010010480CF0CEF951
:10F740000121124849420CF0C9F90E480CF0C6F9E3
:10F7500001204042D0E709F091F83B68C01A012827
:10F76000B1D9CFE7AC170020FF07000020C8010087
:10F77000C8160020CCC70100D9C30100E6C30100B0
:10F78000E0C70100FDC30100CC160020E6C7010060
:10F79000074B10B51C68002C07D1012205491F201A
:10F7A0001A6007F097FE200010BD01204042FBE7E1
:10F7B000B0170020E801002010B5D2B207F0A7FE74
:10F7C00010BD10B50C0007F0ADFE0123E04018405D
:10F7D00010BD01238B4010B5190007F0A1FE10BD2C
:10F7E000284B70B55A68284D8A4227D11B7883422E
:10F7F00024D101220321254807F07CFE01220321A8
:10F80000234807F07BFE002203212148FFF7D4FFA5
:10F8100000242B789C4205D3032211001B4807F0DB
:10F8200069FE70BD01220321194807F070FE002215
:10F830000321174807F06BFE0134EAE70122022199
:10F84000144807F057FE01220221134807F056FE24
:10F85000002202211048FFF7AFFF00242B789C42C2
:10F8600003D3052202210B48D9E7012202210A48CD
:10F8700007F04DFE00220221074807F048FE013440
:10F88000ECE7C046FC170020D800002000900440A0
:10F8900000F00F4000C00440C0F00F4037B5002416
:10F8A0000A4D2B68A3420CD1062201AB08491A70FD
:10F8B000084801325A704B6108F04CF9A04202D05E
:10F8C000013C20003EBD01232B60FAE7B417002065
:10F8D000C8010020E001002070B5084D00242B680D
:10F8E000012B05D1064808F0F5F9A04202D12C60A1
:10F8F000200070BD01246442FAE7C046B41700201E
:10F90000E001002070B50024084D2B68A34207D108
:10F910000749084808F01EF9A04203D101232B60D3
:10F92000200070BD01246442FAE7C046B8170020E9
:10F93000B0010020FC17002070B5084D00242B6892
:10F94000012B05D1064808F0C5F9A04202D12C6070
:10F95000200070BD01246442FAE7C046B8170020B9
:10F96000FC1700200F4BF7B55F68C4B20D008F4243
:10F970000DD11E78A6420AD1FFF7DEFF002803D181
:10F9800039003000FFF72CFFFFF7BCFFFEBDFFF78B
:10F99000A3FF002803D129002000FFF721FFFFF774
:10F9A0007DFFF3E7FC170020F0B5160087B0009349
:10F9B0000CAB1B88029003910022310002A8019336
:10F9C000032408F0B9F90123019A009902A808F06C
:10F9D0003DF90023154D0593288008F04FFF2B8833
:10F9E0000700002B04D0288800280ED107B0F0BDF6
:10F9F00005A902A808F0BEF928800228F3D108F072
:10FA00003DFFC01B6328F3D9EDE703990298013C41
:10FA1000FFF7A8FFE4B20022310002A808F08CF939
:10FA2000002CD0D101204042E0E7C046BC170020A6
:10FA3000F0B51725002487B06D440290039117009C
:10FA40001E0008F01BFF2C70B44202D3012040427C
:10FA50000BE00123013400933A002B000298039934
:10FA6000E4B2FFF7A1FF0028EED107B0F0BD00001F
:10FA7000F0B58DB0039312AB1B880192049314ABC5
:10FA80001B88069007910022019906A80593032779
:10FA900008F052F90AAC06AD23002A0003CA03C3DA
:10FAA0006B460A219B8949190B80049A0023200088
:10FAB00008F0CCF8224B18800023099308F0DEFEF2
:10FAC000060009A9200008F055F91D4B18800228EE
:10FAD00019D00123059A1399200008F0D9F8184B82
:10FAE00018800023099308F0C9FE029009A920009C
:10FAF00008F040F9124E308002280AD030880028E1
:10FB00000ED10DB0F0BD08F0B9FE801B6328D8D926
:10FB1000DFE708F0B3FE029BC01A6328E6D9EDE7E1
:10FB200069682868013FFFF71DFFFFB200220199B5
:10FB3000280008F001F9002FADD101204042E0E794
:10FB4000BC17002010B5054C2378002B05D10449C3
:10FB5000044808F02BF90123237010BDBE170020C4
:10FB6000E8040020F004002010B5054C2378012B98
:10FB700004D1044808F01CFA0023237010BDC046CD
:10FB8000BE170020F004002070B500250E4E33682B
:10FB9000AB4214D101211A2005F098FC0B490C4806
:10FBA00008F04AFA012304002A000321094806F05C
:10FBB000B5FA0443A4B2AC4203D101233360280058
:10FBC00070BD01256D42FAE7C0170020FC0400203B
:10FBD0000418002000C00240F0B5042485B0019054
:10FBE00002910392144E039B029A0199300008F08F
:10FBF0006BFA124D288008F041FE2B880700002B7D
:10FC000012D1300008F080FA288008F037FEC01BBF
:10FC1000632806D8300008F077FA28800028F4D14D
:10FC2000C0462888002805D0013CE4B2002CD9D178
:10FC30000120404205B0F0BD04180020C417002088
:10FC400010B50B4C2368002B0CD103210C2005F0C0
:10FC50003DFC0849084808F081FB002802D1012337
:10FC6000236010BD0023012023604042F9E7C04615
:10FC7000C81700201805002028C8010010B500F0A2
:10FC800005FA10BD37B5002300220D4D00920193F7
:10FC900000216A46280008F083FC041E0CD1009A5B
:10FCA000019B08480021F1F7E7F90521020028002F
:10FCB00008F028FC20003EBD01204042FBE7C04682
:10FCC00028C8010000E1F505074B10B51A680120AE
:10FCD000002A07D10132054905481A6008F018FDCD
:10FCE000431E9841404210BDCC17002030C801008F
:10FCF00050C8010010B5084C2368002B02D0012029
:10FD0000404210BD0549064808F054FD0028F6D1D0
:10FD100001232360F5E7C046D017002058C8010032
:10FD200064C8010010B5024808F073FD002010BD42
:10FD300064C80100024B98688006C00F7047C04637
:10FD400000F00740C046704710B501F09FF810BDA5
:10FD500010B5002000F022F90338431E9841C0B2CC
:10FD600010BD10B5002000F079F810BD37B50024A3
:10FD7000084B0D0001AAC11820000423019400F0D3
:10FD8000B5F8041E04D1042201A928000CF008FAD9
:10FD900020003EBD00C0FFFF73B50026074B01AC3D
:10FDA0000D002200C11801233000267000F09EF8DB
:10FDB000B04201D123782B7076BDC04600C0FFFF52
:10FDC0007FB5002604000191150003960120042A46
:10FDD0000AD801A903A80CF0E3F9044B03AAE1181F
:10FDE00030002B0000F09EF804B070BD00C0FFFF93
:10FDF00030B5002485B00500019113000394012063
:10FE0000042A08D803AA01A89C4206DB0649002060
:10FE1000691800F087F805B030BD191B0139415C45
:10FE200011550134F0E7C04600C0FFFF73B5012251
:10FE300006000D00FFF7C4FF03000120002B0BD1CB
:10FE400001AC210030002370FFF7A6FF002803D18A
:10FE50002378AB4200D0013076BD0000034B185C24
:10FE60000138431E9841C0B27047C046F4170020C5
:10FE7000F0B5134F0501C1B02021E85908F071FE1B
:10FE8000002406007B19DB689C4216D280220021E8
:10FE9000520068460CF08DF980222002520069461B
:10FEA00008F08EFE064376B2002E03D0C046012035
:10FEB00041B0F0BD0134E4B2E4E70020F8E7C04609
:10FEC000D417002010B5084C0001241863680220E4
:10FED0008B4208D8A368994205D85218013393423F
:10FEE00092415042400010BDD417002070B51C0054
:10FEF0000B4B0D001B5C1600012B03D0012070BDC5
:10FF0000C046FCE72200FFF7DDFF0028F8D1A2B2CF
:10FF10003100280008F0CEFE431E9841C0B2EEE743
:10FF2000F4170020F0B5C3B00192802204000D0048
:10FF30005200002102A81F000CF03BF9164B0120D3
:10FF40001B5D012B25D13A0029002000FFF7BAFFE5
:10FF500000281DD1FF242E008022A643520002A9B2
:10FF6000300008F0A7FE2C4002ABE0183A000199DF
:10FF70000CF016F98121300008F0F3FD802202A96F
:10FF80005200300008F01CFE431E9841C0B200E051
:10FF9000C04643B0F0BDC046F4170020F7B50028B6
:10FFA00001D00420FEBD354C354B0122A360102347
:10FFB000E3606B46694620606060188008F07AFE56
:10FFC00001226B4605009918A06808F073FE0543EE
:10FFD0006DB2002DE5D16B461B78AA2B0ED16B4676
:10FFE0005B78552B0AD10122264B1A7023689A1888
:10FFF0006260254A03209B18A360D3E70020FFF727
:020000021000EC
:1000000037FF071ECDD1AA23012601AA1370553B45
:1000100053701A4C1B4B21681E703300FFF782FF90
:100020006A46050033000532A1683800FFF77AFF01
:10003000144B0543EDB21F70002DB2D16B46320058
:10004000694620681D705D7008F034FE6B4605003F
:1000500032009919A06808F02DFE05436DB2002DFD
:100060009FD16B461B78AA2B9BD16B465B78552B97
:1000700097D1044B1E7023689A19B9E7D417002052
:10008000FF0F0000F4170020FE0F0000F0B5EE494E
:100090008BB0EE480BF022FD08F0F0FB0100EC48BD
:1000A0000BF01CFDEB480BF019FDEB480BF016FDB7
:1000B00008F0E4FBE94D01222B00AC331A700190EB
:1000C00000F01CFEE64CE74E230061331A78E64B45
:1000D0001A702200663212785A7022006232127848
:1000E0009A70220064321278DA7022006532127837
:1000F0001A712200633212785A7122007732127814
:100100009A71220076321278DA7100235A00915BDC
:100110000133A952102BF9D12A00D44BAF321978F0
:1001200011702A005978B03211702A009978B132D2
:1001300011702A00D978B23211702A001979B332BD
:1001400011705A792B00B4331A70C94B1B785A1EA0
:1001500093412A00A5321370C64B1A782B00B63390
:100160001A7000F045FDC44F3B68984201D800F07A
:10017000D2FBC24B1B78002B09D000F039FD3B6845
:10018000C01ABF4B984202D90023BC4A137000F03A
:100190002FFDBC4F3B68984200D8C1E3BA4B1B7897
:1001A000002B09D000F024FD3B68C01AB44B9842E4
:1001B00002D90023B44A1370AE4B1B78002B09D12F
:1001C000AE4B1A782B00A2331A70AF4B1A782B0063
:1001D000A3331A702B00AD4AAE331278AC491A70B3
:1001E0003300A2331A782B009D331A703300A333E7
:1001F0001A782B009E331A70A64A01231078002823
:1002000001D10B78DBB2AD352B700B78A2490878A1
:1002100003430B701178A14A13780B43591E8B418D
:10022000DBB21370F6F7CEFF0AF0CAF80023E15CE8
:10023000F218443201331170102BF8D15E223300D2
:10024000A256A4331A705F223300A256A5331A7047
:100250003200934B5E329989606A11803200D989ED
:10026000603211802022995E3200623211801E229B
:100270009A5E330064331A80F1F77CFE3300B06677
:10028000A28F5C331A80874B351D1B687367864BC2
:100290001B68F367A36A3367706FF16FF1F7AEFB0A
:1002A0008249F1F7BBF93300226D9033E8671A6099
:1002B0003300626D94331A603300A26D98331A6074
:1002C0003300E26C9C331A6023002C331B785A1ED7
:1002D00093413200DBB2A632137023002D331B781A
:1002E0005A1E93413200DBB2A732137023002E3323
:1002F0001B785A1E93413200DBB2A83213702300E0
:100300002F331B785A1E93413200DBB2A93213708F
:10031000230030331B785A1E93413200DBB2AB32DC
:100320001370230031331B785A1E93413200DBB225
:10033000AC321370230032331A783300AE331A70A4
:10034000230033331B785A1E93413200DBB2AF32A5
:100350001370230034331B785A1E93413200DBB2F2
:10036000B0321370230035331B785A1E934132008C
:10037000DBB2B1321370230036331B785A1E93411F
:100380003200DBB2B2321370230037331B785A1EAF
:1003900093413200DBB2B3321370230038331B7841
:1003A0005A1E93413200DBB2B4321370230039334A
:1003B0001B785A1E93413200DBB2B5321370631CB6
:1003C000DA7F3300B6331A703200314BB7321B7804
:1003D0006034DBB213702F4B1B785A1E93413200EE
:1003E000DBB2B832137033002278B9331A70304A56
:1003F0001B7811780B43137008F040FA2D4D2E4CEA
:100400002B68C01A23002E331A78FA239B0053431B
:10041000984205D90122294B1A6008F02FFA28606A
:10042000274B284D1A78012A54D100221A70F3F76D
:10043000C5FD254B18600F4B1B78012B4AD02B783C
:10044000012B47D042E0C0466CC80100D9C301006F
:10045000E6C301008BC80100FDC3010008130020A2
:10046000C4130020FC1E002024180020AC20002013
:10047000911E00204E18002008FCFF1F04FCFF1FE7
:100480003F9C000000FCFF1F05FCFF1F0F18002011
:10049000F91E00200D180020B9200020BA200020ED
:1004A00088120020B41E0020B01E00200000C842A8
:1004B000BB20002034180020C41F0020301800206A
:1004C0004D1800204F180020781800202E34217875
:1004D000F3F792FDC0462B78E64F012B23D1002481
:1004E000E54B1E22210002A81C700BF062FEE34BBC
:1004F0001B680093E24B009A1B689A4202D82100C5
:10050000A24201D1C04601213300A4331B78002B45
:1005100000D10AE2C0463868F3F77CFD00230122CF
:100520002B70D54B1A70D74B00211C78D24DE4B2FA
:10053000012C00D041E21E2202A829700BF039FEE6
:100540000094D14DCB4B2A681B68934236D8CF4BD1
:100550001C78CF4B1B78012B09D1CE4B1868F3F7D1
:1005600001FD431C00D1009C0023C94A1370C44AFA
:100570002B681268934201D8002B01D1C046009C21
:100580003300A4331B78002B00D1DFE1C046009C70
:10059000C046B84BBC4D18682B68984200D200E2A8
:1005A000F3F738FD0023B74A3B601370BA4A2B605B
:1005B0001360F3F7F3FC0122AF4B1A70AE4B1B78BC
:1005C000012B00D031E1B54B1E68012E00D02CE18B
:1005D0000021B34C1E22200019600BF0EAFDE1213E
:1005E000B04D0901286FF0F74DFBF1F733FD2B00FB
:1005F0006C33071C188880B2F1F7DCFC011C381C36
:10060000F1F70CF82B000090A6331A78637D324086
:10061000B343134363752B000227A7331B780421D0
:1006200033405A00637D1020BB43134363752B0096
:10063000A8331B7833409A00637D8B431343637563
:100640002B00A9331B7849183340DA00637D8C46B0
:100650008B43134363752B00AB331B781831334046
:100660005A01637D8B43134363752B00AC331B78B6
:10067000203133409A01637D8B43134363752B0014
:10068000AA331A78637D32401201834313436375A2
:100690002B00AD331A78637D3F31D2010B401343F9
:1006A00063752B00AE331A787B39531E9A41A37DB4
:1006B000B3431343A3752B00AF331A78A37D3240A5
:1006C0005200BB431343A3752B00B0331A78A37DAC
:1006D0003240BA408B431343A3752B006146B133BC
:1006E0001A78A37D3240D2008B431343A3752B00AD
:1006F000B2331A78A37D3240834312011A432B0090
:10070000A275B3331B78183133405A01A37D8B4354
:100710001343A3752B00B4331B78203133409A0167
:10072000A37D8B431343A3752B00B5331A78A37DA8
:100730003F31D20119401143A17508F09FF8FA2109
:10074000030A20706370030C000EA370E070890030
:10075000286CF0F721FB2B0080B22074000A607433
:100760005E331B8804219BB2A3711B0AE3712B002B
:1007700060331B889BB223711B0A63712B006233A9
:100780001B88A3721B0AE3722B0064331B8823723D
:100790001B0A6372EB8E23731B0A63732B8FA37385
:1007A0001B0AE3732B00A2331A78E37D3240B34374
:1007B0001343E3752B00A3331B7833405A00E37DCA
:1007C000BB431343E3752B00A0331B78686F3340A2
:1007D0009A00E37D8B431343E375F0F797FCA07415
:1007E000E86FA96FF0F71AFF2F49F1F707F9F0F753
:1007F0008DFC2D49E0740098F1F700F9F0F786FCC4
:10080000207520000622AA2118300BF0D2FCC04629
:100810002000F3F75DFB254B002800D1D9E0244AE6
:100820001E70137801331370C04608F027F8019B3F
:100830002049C41A204BA0B21C600B78DBB25A1CB2
:10084000D2B20A701D4A5B0098520B78012B01D975
:1008500000230B70C0461A4A1A4B11688C4203D908
:100860001968002900D11460174A11688C4231D9E7
:100870002CE0C04644180020380500205018002005
:10088000781800204E180020481800202C1800204E
:100890004C18002054180020401800203018002068
:1008A00058180020FC1E00200000C8420F1800202D
:1008B0000E180020BC1F002010180020B81F0020B8
:1008C0001C1800202018002018180020196803297F
:1008D00000D91460424A11688C4200D21460186832
:1008E000404D461C1E60F1F7B5FB2968F1F786F80C
:1008F000071C2000F1F7AEFB011C381CF0F7FCFCD4
:10090000041C3000F1F7A6FB011C201CF0F786FE4A
:1009100028600BB0F0BD344B1A7801221A7036E40F
:10092000324B1A7801221A7046E4002900D0F2E511
:100930001E2202A80BF03DFC009902A8F3F7ECFA86
:100940002B4B02A81968F3F749FBE4E5002C00D013
:100950001EE61E22210002A80BF02BFC02A8F3F7D2
:10096000C9FA244B02A81A68511C1960F3F736FB28
:10097000214A2249002804D113680C700133136006
:1009800006E60B780A200133DBB20B701C490968BC
:10099000642900D80098834200DAF9E51160C04666
:1009A000F6E5012C00D1FBE507F068FF019BC01ABA
:1009B0005A2800D8C5E5C04600E6114B39601960D9
:1009C000104B19700B4B1960F3F7E8FA01232B70E9
:1009D000F4E50D4A187013680133136025E7C0462B
:1009E0003405002014180020B7200020B820002073
:1009F0005018002040180020441800203C18002007
:100A0000481800204E18002038180020F7B50C00B8
:100A10005148524916000BF061F807F02FFF010012
:100A20004F480BF05BF821004E480BF057F84E484A
:100A30000BF054F84D4F3B78002B2DD101223A702A
:100A4000002E28D1542C0BD0494B9C4213D0494B3B
:100A50003E70E018032818D8F0F70AF929346776B1
:100A6000089B454A1B79DB09137000F0C1F8434B22
:100A70003E701860F7BD089B414A1B78DB09137074
:100A800000F0B6F83F4B3E701860162CF2D10122F0
:100A90003D4B1A70EEE73B70364BE0180328DBD96C
:100AA000012EF2D10899200009F008FCEDE7374B40
:100AB000A4331B78002B02D10122354B1A70012E72
:100AC000D8D1EFE7314BA4331B78002BF7D1C046C8
:100AD000304D0422089928000BF062FB2E4F089B32
:100AE0000422191D38000BF05BFB2B683A68019358
:100AF0009A42E4D8012129480170254801709142A9
:100B000080414042030026480370002A00D10A00B9
:100B1000019B3A6001339B1A2B600023214A13602A
:100B2000214A1360214A1370C9E7C0461B4B1B784A
:100B3000002B09D1042208991D480BF031FB012339
:100B40001C4A1370124A1370089BDB79FF2BA7D144
:100B50000122164B1A70A3E7D9C3010075C8010022
:100B6000E6C3010090C80100FDC301000C1800207D
:100B70005603000000FAFFFF04FCFF1F08FCFF1FE4
:100B800005FCFF1F00FCFF1FFA1E0020FC1E0020BA
:100B90004D18002048180020541800204E1800203E
:100BA0004C18002040180020441800202C18002069
:100BB000501800204F18002010B50023044A0121CE
:100BC000044801F06DF80021080001F075F810BD2F
:100BD000F81700205401002010B5FFF7EDFF0120A9
:100BE00007F03EFE002010BD10B507F039FE10BD25
:100BF00010B507F043FE10BD10B5FEF7C9FD10BDDE
:100C000010B5FEF7D9FD10BD10B50122FEF7D4FDD9
:100C100010BD10B50022FEF7CFFD10BD10B5FEF7D8
:100C2000D0FD10BD10B5FEF7D4FD10BD10B5034CBE
:100C300002000B0003CCFEF7FBFE10BDE00100201C
:100C400013B5044C00920B00020003CCFEF7ACFE7F
:100C500016BDC046E00100201FB502930123054CDC
:100C60000192009302000B0003CCFEF701FF04B0D9
:100C700010BDC046E001002010B5FEF743FE10BDD8
:100C800010B5034C02000B0003CCFEF7D1FE10BDE3
:100C9000FC17002013B5044C00920B00020003CC9B
:100CA000FEF782FE16BDC046FC1700201FB502935A
:100CB0000123054C0192009302000B0003CCFEF7C8
:100CC000D7FE04B010BDC046FC17002010B5FEF7DB
:100CD00029FC10BD10B5FEF7A1FC10BD10B5FEF744
:100CE000B9FC10BD10B5FEF7ABFF10BD10B5FEF797
:100CF000C9FF10BD10B5FEF7FDFF10BD10B5FFF721
:100D000011F810BD10B5FFF715F810BD10B5FFF7BD
:100D100019F810BD10B5FFF717F810BD10B5FEF7A4
:100D2000D3FF10BD10B5FEF70DFF10BD10B5FEF7D7
:100D30001BFF10BD10B5002804D10B210548FFF79B
:100D400068FF10BD0128FCD10B210248FFF75CFFB2
:100D5000F7E7C04600F00F4010B5002804D10C2181
:100D60000548FFF756FF10BD0128FCD10C210248B1
:100D7000FFF74AFFF7E7C04600F00F4070B5094D96
:100D8000002228000B2106F0B9FB28000B21FEF7FA
:100D900018FD0400012228000B2106F0AFFBE0B291
:100DA00070BDC04600F00F4010B5FEF7EDFE10BD5F
:100DB00010B5FEF711FF10BD030010B589180139F9
:100DC0001C1AA24200DC10BD0C781C700133F6E73F
:100DD000002310B5934200DB10BDCC5CC45401333A
:100DE000F8E710B500F052F810BD000010B5154C32
:100DF000FFF7F2FEFFF700FF200001220221FFF7BC
:100E0000FFFE002201211048FFF7FAFE0122052112
:100E10000E48FFF7F5FE012209210D48FFF7F0FE0D
:100E2000200000220821FFF7EBFE002207210948DD
:100E3000FFF7E6FEFFF720FFFFF754FFFFF7B4FFD1
:100E400010BDC04680F00F40C0F00F4040F00F4092
:100E500000F10F4000F00F4010B5FFF747FF10BD45
:100E600010B5FFF733FF10BD044B054A5A605A68AE
:100E7000044A1A60044A9A607047C0460020054040
:100E800020C528D920210000FFFF000003480449A5
:100E9000044B425892B213434350704700E000E0C5
:100EA0000C0D00000400FA0501232448244A1B1AF3
:100EB0009B18002230B5234C511C99422AD10123A2
:100EC0002148224A1B1A9B180022214C511C99428E
:100ED00024D101221F48204B121AD21800231C00D3
:100EE000591C91421ED101231C481D4A1B1A9B18F4
:100EF00000221C4C511C994218D11B491B488142AD
:100F000005D000231A4A920892009A4212D1194B36
:100F1000196030BD855CA5540A00CDE7855CA554F9
:100F20000A00D3E7C3181C700B00D9E7855CA554F1
:100F30000A00DFE7C458CC500433E6E7BCCB01001D
:100F40000CD20100C00000200CD201000CD2010024
:100F500010070020C0100020F42200200CD2010055
:100F6000C0D2010000FCFF1F0000002000080000AC
:100F7000C000000008ED00E0064B02205B69DBB218
:100F8000042B06D00130802B03D01800012B00D099
:100F90000420704700E00740034B00205B68DB0142
:100FA00001D5024B18687047FC4006409C18002091
:100FB000C0238021054A9B00D35849040B40181ECA
:100FC00003D0C2239B00D35801487047004006401D
:100FD000006CDC028022064B92009A580020D2015D
:100FE00005D5822292009B58DB0700D50148704747
:100FF0000040064000127A0070B5164D06002B69BD
:101000001B011B0F022B15D0032B16D00020012B28
:1010100001D1FFF7C1FF0F242969090C21400131DB
:10102000EFF730FE012E0BD0002E02D0022E0ED094
:10103000002070BDFFF7CEFFEDE7FFF7B9FFEAE74D
:101040002969090921400131EFF71CFEF1E72969FF
:10105000F8E7C0460040064010B5002903D001293A
:101060001FD0002116E0052807D0062814D0042838
:1010700010D1FFF7AFFF812302E0FFF799FFC123F3
:10108000144A9B00D15807231940002902D0013986
:10109000C8400100080010BDFFF77EFF0E4B9968A5
:1010A000F1E7052807D006280ED00428D9D1FFF78C
:1010B00091FF812302E0FFF77BFFC123054A9B00DC
:1010C000D1584905490FE0E7FFF766FF024B9968E1
:1010D000F7E7C04600400640FC4006400C4B10B508
:1010E0001B6A00201B011B0F032B07D81800EFF70A
:1010F000BFFD0206090C0220FFF77EFF10BDFFF7BF
:101100004BFFFBE7FFF766FFF8E7FFF751FFF5E757
:10111000004006400E4A10B513699B069B0F022B38
:101120000DD0032B0ED0012B04D000210620FFF799
:1011300093FF03E002231069184006D110BD054B50
:101140001868FBE700210520F1E7FA20C001F5E768
:10115000008004407C1800200B4A10690007830FB0
:10116000022B07D0032B0BD00020002B01D1FA203B
:101170004002704710691840FBD0FA20C001F8E720
:1011800010690223F7E7C0460080044010B51C4CEC
:10119000002063681B0515D560680006000F0E2847
:1011A00009D8EFF765FD1008130818081B1E082260
:1011B0002A0824082700002061684905490F0131E9
:1011C000EFF760FD10BDFFF789FFF5E7012106206D
:1011D000FFF742FFF0E701210420F9E70121052094
:1011E000F6E70020FFF708FFE6E70120FAE7FFF740
:1011F000B3FFE1E7FFF78EFFDEE7FA204002DBE70F
:10120000008004407FB5060000290DD16B466A4678
:10121000197119730123137253725371022391715F
:101220006946D3712E4B009301242E4B02205A683D
:10123000520E22400BD15D682B48054080205D6036
:101240002A4DC00458602A60002E02D1002004B04C
:1012500070BDE02007264A7AC00012020240087AD8
:101260003040024330209A60CA79013612010240B0
:101270008879C000304002434879043E8000304005
:101280000243DA600A79012A15D0002A0CD0022A1A
:1012900019D00B68164C2B60FFF77EFE00281AD180
:1012A000002C16D10330D2E70A7B501E8241D205B2
:1012B00014435C60EDE70A7B501E82410D48D20565
:1012C00002435A60E5E70A7B501E82410A48D20574
:1012D000F6E7013CE0E7002CB8D10320B7E7C046B1
:1012E00000127A00FC400640FFFF7FFF9C180020A0
:1012F00088E730000100010001000300F7B5060097
:10130000002909D16B466A4619710123917169461A
:10131000537153709370137080250124214BAD00DD
:101320005A590220520E224007D158591E4F3840B8
:1013300058515A51002E01D10020FEBDE020072552
:101340008A78C00012020240487828400243812077
:1013500080001A500A78043022401A504D7988795A
:1013600009790322002900D1220029004D1EA9413C
:1013700089000A430100481E8141C9050A438021B2
:10138000642489005A50FFF725FE002805D1002C5F
:1013900001D10330D1E7013CF5E7002CCCD103208B
:1013A000CBE7C04600400640FFFF7FFF37B500296E
:1013B00007D16A46012391711170694653715370C8
:1013C0009370C0241F4BA4001D590222AD0109D403
:1013D0001A591D4D2A401A518022D2041A51002850
:1013E00002D1002210003EBDE02007248A78C00010
:1013F00012020240487820400243C12080001A5067
:1014000003200A780240C22080001A5048798A7965
:101410000121002800D10831501E8241D2050A4323
:10142000C021142489005A50FFF7C2FD002805D1BD
:10143000002C01D10322D5E7013CF5E7002CD0D1E7
:10144000F8E7C04600400640FFFF7FFFF7B50B7886
:101450008F78013301377B434E780193CB78013687
:1014600005000C007E43022B0ED0032B0FD0002072
:10147000012B01D1FFF790FD0209012D0AD0022DA9
:1014800034D000252800FEBDFFF7A4FDF4E7FFF7E8
:101490008FFDF1E70C20E3782A49584341580909A8
:1014A0004F43BA42EED82749091848680009464315
:1014B000B242E7D889680198090948438242E1D8D5
:1014C000F021A278090312040A40F0211B06090545
:1014D0000B400F21134322780A4013436278F03106
:1014E00012010A401343184A5361CAE70C20E178FD
:1014F000164B4843C5582D096F430125BA42C1D840
:101500001B18586800094643B242BBD89B68019833
:101510001B0958438242B5D8F022A37812031B045A
:101520001340F0220906120511400B430F212278C7
:101530000A4013436278F03112010A401343024A11
:1015400093619EE720C901000040064074C9010074
:1015500070B50400FFF710FD2100FFF777FF0028AA
:101560000FD10A220F25E178064C2369013A1B0EA0
:101570002B40994203D0002AF7D1032001E0002A32
:10158000FBD070BD00400640154B4000C35A154AC1
:101590009B009B180F20012270B51C681D68240950
:1015A000054014400020A54217D31868800F104052
:1015B00013D01B685B015B0F022B06D0032B0DD0F1
:1015C0000620934202D0002002E00420FFF744FDF1
:1015D000691CEFF757FB0134604370BD0520F5E748
:1015E00096C8010000500640F0B50400A3B00028E2
:1015F00000D09EE0012310A90B70E84904AA1161F4
:101600000EA90B70092102AD4919CC7706A9CC7738
:101610000A214919CC770B210C2502AE8919CD7707
:1016200005A9CC770D218919CB770E218919CB77A4
:101630003D21107190715073D071D0621075107788
:10164000907502208919D370537113705370937081
:10165000937313731372537253775375D075137654
:1016600053760B70032111AD29704B25AD192B70EA
:101670004125AD19297012AD2C703F25AD192B7085
:101680003E25AD192B704525AD19287013A80370A0
:10169000432080190470422080190170C0495465AC
:1016A00011671621D16615A90B704D2189190C708F
:1016B0004E2189190C704F2189190C7016A90B70D5
:1016C00017A90B70532189190B70522189190C70BD
:1016D000512189190C701CA90B70692189190B7093
:1016E0006A2189190B706B2189190B701DA90B7068
:1016F0006D2189190B70732189190B7018A90B7052
:101700006E2189199465D4650B706F2189190B704E
:101710001EA90C70712189190C70722189190C7025
:1017200021A90B707D2189190B707D339B191C70C9
:1017300014009C4E33691B011B0F032B11D0FFF7C4
:1017400037FC011E00D150E10022032303A8827060
:101750000132C37042700370FFF7FAFE051E00D01D
:1017600049E1E0782100FFF7C9FD051E05D1210000
:10177000607F1031FFF746FD05002700FFF7FCFBF7
:101780003637012803D00437022800D00027002D67
:1017900000D030E1FB78032B00D031E1627F023BC7
:1017A000002A00D12AE103A88570C370437003703A
:1017B000FFF7CEFE0500E378002B0BD0012D09D1F9
:1017C000022303A8C3700023057083704370FFF7E2
:1017D000BFFE0500002D00D00DE1E11DA07BFFF74D
:1017E000E5FD051E00D006E1FB7803A8C370BB78B9
:1017F00083707B7843703B780370FFF7A9FE051E6A
:1018000000D0F8E0230030331B78002B02D0664B69
:10181000E26A1A60230035331B78002B0BD0336A41
:10182000624AF0211A40230034331B7809051B0655
:101830000B4013433362230043331B78002B00D04B
:10184000EFE0236F002B00D0FCE0230044331A7834
:10185000002A15D056499A784F68564912010F4010
:101860005978D8784E1EB141FF263240E02600025A
:10187000F60030400243C9023A430A434C494A60E9
:101880001A79002A17D059799A7901913F21484E47
:10189000920037698F43197A0F43D979481E8141E5
:1018A0000C2002403A43302701984900000138409B
:1018B00002430A4332611A7F002A31D001203C4A98
:1018C000116C81430800597F014302201164116C9F
:1018D0008143987F461EB0414000014304201164BB
:1018E000116C8143D87F461EB0418000014308201F
:1018F0001164116C8143080021004531C97F4E1EDF
:10190000B141C900014310201164116C81430800EA
:1019100021004631C97F4E1EB141090101431164C6
:101920001B7B002B06D0244B626D1A60A26D5A609F
:10193000E26D9A6023004733DB7F002B23D0002029
:101940001B4A8026936E906651681C4B76011940A5
:1019500023004933DB7F1B0333400B4353602300D9
:1019600090664833DB7F83420DD023000E214A333B
:10197000DB7F5B000B4021004B31C87F8021490594
:1019800001430B43936674342378002B33D07F21BB
:101990000B4A607893780B4014E0C04600127A003E
:1019A00039050020004006407C180020FFFFFFF0B2
:1019B000008004400FF0FFFF80180020FFEFFFFFC2
:1019C00000D007407E394140C9010B43DBB2937020
:1019D0000223E356002B01DA20335BB21F2011797A
:1019E000034081430B43137105E00120FFF7DEFC48
:1019F000051E00D1A8E6280023B0F0BD1D00DAE6E0
:101A000003A8C370BB7883707B7843703B78037006
:101A1000FFF79EFD051EEED1E11DA07BFFF7C6FC82
:101A2000EDE6210001203631FFF710FD002807D137
:101A3000210002303A31FFF709FD002800D100E70C
:101A40000500D8E70522E16E4A439E180F2294460E
:101A50009E4200D1F9E61A780F495200515A0F4AB6
:101A6000890089180A680E4810270240E0200A60A1
:101A70009A78C00412061040DA7812013A4067469C
:101A8000024318793840024358780533471EB8415D
:101A9000800710430860DBE796C80100005006404D
:101AA000FFFFFFBF70B504000D00112839D80F28C3
:101AB00000D9C2E0EFF7DCF80811135215181BC16A
:101AC0001E2124292B2E30330020FFF795FA002306
:101AD000002D00D02860180070BD0120F5E702201D
:101AE000F3E7FFF777FAF2E7FFF762FAEFE7FFF7BE
:101AF00053FAECE7624B1868E9E7FFF7EFFAE6E71D
:101B000000210420FFF7A8FAE1E70121F9E700210D
:101B10000520F7E70121FBE700210620F2E701217C
:101B2000FBE7212865D815380C2800D985E0EFF7A8
:101B30009FF8071115181B222E3B424A4E525600A1
:101B4000504BDB689B019B0F032B50D04E4A9B00F0
:101B50009858BCE74B4BDB681B01F4E7FFF716FB1B
:101B6000B5E7FFF7D7FAB2E7484B9C78E4093ED1D6
:101B7000FFF7F2FAABE7454B9B78DB0937D1414AD7
:101B8000106901221040A3D0FA208000A0E73F4B4B
:101B90009B78DB092BD13B4A10690222104000D10F
:101BA00096E7FA20C00193E7384B9B78DB091ED1FA
:101BB000FA2040028CE7334B186CC006C00F16D1D8
:101BC00080235B0084E72F4B186C0007F6E72D4B52
:101BD000186C4007F2E72B4B186C8007EEE7294B97
:101BE000186C01231840FF33002800D170E7002053
:101BF0006DE70423432800D96DE703000122223B4F
:101C0000DBB21000182B02D82148D840C043104046
:101C100014D0432C11D01F4B6100CB5A1E499B009E
:101C20005B589B0F13420BD10020C9E773060DD4FC
:101C300073B2002B0EDA022008E00020042347E7ED
:101C40002020164B1E5D3040F0D00120FFF7D4F964
:101C50000028E9D01820304000D138E700203307B1
:101C600003D501002000FFF78FFCF30603D5012107
:101C70002000FFF789FC434243411B0228E7C0468E
:101C80007C180020008004408018002000D007400D
:101C90000100290196C8010000500640C8C9010092
:101CA00010B5044C206021710020A260237363737F
:101CB00010BDC0468C180020F0B585B06B46009072
:101CC0001B7803AE33706B4601911B79002473704F
:101CD00003F0F4FB2D4D2B7B6B730123B3702B7B37
:101CE000A34215D8009B2A689B009858FFF77CFCFC
:101CF0006B461B78071E6B7121D102230400B37061
:101D00002B7BA3422AD803F0CDFB380005B0F0BDF1
:101D1000AA68A3009B58002B02D10134E4B2DEE78D
:101D20001A79022AF9D01A68996830009047002879
:101D3000F3D0019B6C73002BEFD10427FF370023F6
:101D4000A400B370AB681B59002B03D01A689968C4
:101D500030009047043C231DF4D1D4E7AA68A300C7
:101D60009B58002B02D10134E4B2C9E71A79012A49
:101D7000F9D01A689968300090470028F3D0019B89
:101D80006C73002BEFD182277F00BCE78C180020FA
:101D900010B5FFF787FE10BD00234118884200D11F
:101DA000704703700130F9E7830004480068C018E9
:101DB00003685960036800209A607047A0180020EB
:101DC000094B82001B6810B5D35803221040074A04
:101DD0001077D077002B06D05A68002A03D0197BE1
:101DE0009868C9B2904710BDA0180020008000403C
:101DF00070B5032406000D4D044000222100280088
:101E000000F0EAFA0A4BB6001B68F358002B0BD01F
:101E100001222C77EC77AC771A735A68002A03D02A
:101E2000197B9868C9B2904770BDC04600800040D9
:101E3000A0180020F0B501248BB0099310AB1B78DB
:101E4000089205932300059A0690934003936B46EE
:101E500007911198197BEEF79BFF20000491002950
:101E60005BD10325069B314F1D402900380000F04F
:101E7000B9FA80212E4B6C01E218138809029B04E9
:101E80009B0C0B43138080223B68E61993433B6015
:101E90008023089A5B01F250264B099AE3181A60D6
:101EA000059B290001930093049B38001A0000F061
:101EB000D1FA079B032B18D818001F4A049BEEF792
:101EC000D7FE020B2E32B3526B461B7B5BB29BB22A
:101ED0001A4AA218138008E06B461B7B5BB29BB2C8
:101EE000B3520022154BE3181A80119A29000F48AB
:101EF00000F0C8FA01220D48290000F041FB0C4B0C
:101F00000020E418022322889A43134323800C4BB9
:101F1000069A1B689200D35818730BB0F0BD6B463D
:101F20001B7B5BB29BB2B352D2E7C046008000403D
:101F30001C900040109000400410000014900040DD
:101F4000A018002073B5050009AC06A80078267813
:101F5000079C009001942800FFF76CFF041E13D12A
:101F600003231D40089A2900084800F009FB0822B5
:101F7000074B6D01ED182B8893431A0033005E1E4A
:101F8000B341DB0013432B80200076BD008000406E
:101F90001C900040032110B501400122024800F0CE
:101FA0001BFA002010BDC04600800040032110B580
:101FB00001400022024800F00FFA002010BDC04688
:101FC0000080004070B57F243F260C4B31401D5CE3
:101FD00025401D541D5CB543294340251954195C07
:101FE000A943551EAA4192010A4380211A541A5C42
:101FF00022400A431A54002070BDC046001002401F
:1020000003231840024B400189B2C01881807047F9
:102010000090004003231840024B4001C0180160AB
:102020007047C0460C90004003231840024B40010B
:1020300089B2C0180180704714900040032110B588
:102040000140024800F0C4FA10BDC04600800040C4
:10205000032308221840054B4001C018038893430E
:102060004A1E9141C9001943018070471C900040ED
:1020700070B504000D00002838D0002936D020218A
:102080002800FFF789FE0721637A227E0B40E021BA
:10209000D2021343227AC90012020A40FF211343DD
:1020A000627ED2000A401343EB8023682B60638971
:1020B000AB80E369AB602369EB6063682B61A38944
:1020C000AB82E36A1968631C89B2E982DA7F002A6D
:1020D0000DD0636AAB6128342378501E8241581EAC
:1020E000834112015B001343AB83E98370BD6369D5
:1020F000F0E70000F0B5032606400C0085B0310083
:10210000564800F06FF98022544B7501EF18544B7C
:102110001202EB1803931B8850489B049B0C13433B
:10212000039A1380802322685B01FA504D4B62684A
:10213000EB181A60617A637E227E0191217A009108
:10214000310000F087F96289474BFA52474BA28968
:10215000EB181A80464B2269EB181A60631CDA7F71
:102160003E4F1023002A00D168E0039A3100128804
:1021700038009A431343039A1380626A00F0C6F949
:102180000221374BEA1813888B43190023002833A8
:102190001B78581E83415B000B431380E26A002AC0
:1021A00056D03B681B060DD5324B1179EB181B68D6
:1021B0005B005B08002901D0802109060B432D49F3
:1021C00069180B603B681B060AD52A4BE91808689A
:1021D000294B184053795F1EBB419B0703430B609B
:1021E000926831001D4800F071F9E26931001B4826
:1021F00000F048F9E26A3100137B1848527B00F086
:102200008DF9E16AF024164A2401AD18CA7B2888AA
:1022100012022240194C8B7B2040024320202A804E
:102220002A888243581E83415B0113432B800A682E
:102230000A48310000F0A4F905B0F0BD039A1288F5
:102240009A43039B1A800E4B6269EB181A6097E75A
:10225000E2693100014800F015F9EDE70080004027
:102260001C900040109000400410000014900040AA
:102270000C90004008900040FFFFFFBFFFF0FFFF01
:1022800018900040F0B50024012699B0029320ABCD
:102290001B7817000693484B82001B680590D358A3
:1022A00001911C733300BB4000936B460298198860
:1022B000EEF76EFD0CAD280004913021FFF76CFDA8
:1022C000102108A8FFF768FD029B08AAEB6116AB76
:1022D0001E701123EA629B18147154711473947365
:1022E0001F22DE77019B2F721F339343203B6F72B7
:1022F0001F002C616C612C766C761E9E1F9D0194D4
:10230000019B069A934247D10498431E984180B29C
:102310004FE02A7A337A03929A4249D1E36A0299CA
:102320000793EEF7AFFC079B1860039B032B09D8BC
:102330001800EEF79DFC021D2227002363816B46E7
:102340001B88A3816B461A79069B013BDBB2934243
:102350001AD100231593002A19D10CA90598FFF76B
:10236000C9FE019B2037013301930C360C35C7E7BA
:102370006B461B8863810023E3E76B4600229B5E6C
:102380006381DEE70023FBE73B002033E2E739000F
:102390000CA8FFF76DFEE4E7049B002B08D133681F
:1023A0000CAC0C932B68706863606B689842B0D07B
:1023B000012019B0F0BDC046A0180020034B8000DA
:1023C0001B68C358187BC0B27047C046A0180020D5
:1023D0000048704700800040002A01D0C176704755
:1023E0008176FCE74901114B4018C21800231360A5
:1023F0008022520183500E4A83520E4A83520E4A63
:10240000821813600D4A821813600D4A82181380D7
:102410000C4A821813800C4A821813600B4A8218E7
:1024200013800B4A801803807047C04608100000D4
:1024300004100000061000000C1000001010000036
:102440001410000016100000181000001C100000EE
:102450001E10000070B5FF26DB001E40072304ACF1
:10246000257805AC2478D2022340E02433431A4374
:10247000E4002B02234080311A43490192B24018F4
:10248000C28070BD036810B549011B060CD50E4C07
:1024900043181B191C68002C0BDB1C68640008D453
:1024A000920092081A6010BD074B4018C0180260D5
:1024B000F9E7054B4018C018036892059B0A9B0278
:1024C000920D1A43F3E7C04608100000036810B5E8
:1024D0001B0614D50A4C490143181B191C681B68BC
:1024E0005B0001D4002C0ADA054B4018C0180368C1
:1024F000044992020B4004490A401A43026010BD8D
:1025000008100000FF0300C000FCFF3F4901024B20
:102510004018C018026070471810000070B54901DB
:10252000134D4418641924881D006404640C002BA6
:1025300000D0104D40180E492C4346180E49A4B245
:102540003480401801884904490C0D43ADB2058020
:10255000002B0CD0F0215202490133880A40074970
:102560000B401343338003880B401A43028070BD35
:102570001E1000000080FFFF16100000FFE1FFFFAB
:102580004901114B401810B5C41823880F491BB2DC
:102590004018002B0CDA2388D2055B0AD20D5B02AF
:1025A0001343238003885B0A5B021A43028010BD39
:1025B00023885204DB0B520CDB0313432380038874
:1025C000DB0BDB03F1E7C0461E1000001610000015
:1025D0004901084B4018C3181B88074A1BB28018D2
:1025E0000088002B02DAC005C00D70474004400C83
:1025F000FBE7C0461E1000001610000010B50020BA
:10260000FFF7DEFB10BD10B50120FFF7D9FB10BDB1
:1026100010B50220FFF7D4FB10BD10B50320FFF763
:10262000CFFB10BD70B50020FFF7D2FE00240126BD
:10263000C56A354202D02000FFF7DAFB0134E4B26C
:102640006D08042CF5D170BD234B820070B5D458B1
:102650000600230061331D78002D1CD12A000521BE
:102660001E4800F015FF2A0006211C4800F010FF4C
:102670002A000721194800F00BFF00232360A379EB
:10268000002B02D0201D06F005F96379032B01D041
:102690000023637170BD6379032BEED0230025689E
:1026A00060331878FFF782FC2B689A0202D46A68BC
:1026B000920C6A601B031B0F2B74AB681BBAAB60D8
:1026C000EB681BBAEB60256D002DD6D023000022ED
:1026D00008213000A847D0E7A4180020004002409D
:1026E00070B5C4B201290BD10322074B8000C35837
:1026F0001D6D5A71002D03D0002208312000A8471B
:102700002000FFF7A1FF70BDA418002070B50C00D9
:10271000094B8000C558E400002208482E1900F03B
:10272000B7FEB379002B03D0201D281806F0B2F8AD
:102730000023737170BDC046A41800200040024001
:102740001F2803D801238340014A13637047C04602
